:100000000C940C190C943D190C943D190C943D1949
:100010000C943D190C943D190C943D190C943D1908
:100020000C943D190C943D190C943D190C943D19F8
:100030000C943D190C94ADA60C943D190C943D19EB
:100040000C943D190C946CC90C943D190C943D19F9
:100050000C943D190C943D190C9437AA0C9463A68A
:100060000C943D190C94F3840C94E9840C943D1980
:100070000C943D190C943D190C943D190C943D19A8
:100080000C943D190C943D190C943D190C943D1998
:100090000C943D190C943D190C943D190C943D1988
:1000A0000C943D190C943D190C943D190C943D1978
:1000B0000C943D190C943D190C943D190C943D1968
:1000C0000C943D190C943D190C943D190C943D1958
:1000D0000C943D190C943D190C943D190C943D1948
:1000E0000C943D19084AD73B3BCE016E84BCBFFD42
:1000F000C12F3D6C74319ABD56833DDA3D00C77FF8
:1001000011BED9E4BB4C3E916BAAAABE0000008090
:100110003F05A84CCDB2D44EB93836A9020C50B91F
:10012000918688083CA6AAAA2ABE000000803F004B
:100130004E414E494E495459494E46CDCCCC3D0ACC
:10014000D7233C17B7D13877CC2B329595E6241FAF
:10015000B14F0A000020410000C84200401C462068
:10016000BCBE4CCA1B0E5AAEC59D7400407A10F33B
:100170005A00A0724E18090010A5D4E80000E876D5
:1001800048170000E40B54020000CA9A3B0000002C
:10019000E1F505000080969800000040420F000045
:1001A00000A08601000000102700000000E8030006
:1001B0000000006400000000000A000000000001D0
:1001C00000000000002C76D888DC674F0823DFC1D0
:1001D000DFAE59E1B1B796E5E3E453C63AE651998B
:1001E0007696E8E6C28426EB898C9B62ED407C6FB4
:1001F000FCEFBC9C9F40F2BAA56FA5F490055A2A6B
:10020000F75C936B6CF9676DC11BFCE0E40D47FE76
:10021000F520E6B500D0ED902E030094357705006B
:1002200080841E080000204E0A000000C80C3333F2
:1002300033330F986E12831141EF8D2114893BE601
:100240005516CFFEE6DB18D1844B381BF77C1D908A
:100250001DA4BBE424203284725E228100C9F124F3
:10026000ECA1E53D27434F4D4D554E49434154497F
:100270004F4E0044525952554E004552524F525320
:1002800000494E464F004543484F00554E4C4F41A4
:10029000442046494C414D454E54004C4F4144206A
:1002A00046494C414D454E540046494C414D454E02
:1002B00054204348414E47450053544F5050454405
:1002C0002E20005072696E7465722073746F7070A6
:1002D00065642064756520746F206572726F727337
:1002E0002E2046697820746865206572726F7220CE
:1002F000616E6420757365204D39393920746F2023
:10030000726573746172742E202854656D70657205
:1003100061747572652069732072657365742E202F
:100320005365742069742061667465722072657308
:1003300074617274696E67290A004E6F20436865A4
:10034000636B73756D2077697468206C696E6520C6
:100350006E756D6265722C204C617374204C696EF1
:10036000653A2000636865636B73756D206D697312
:100370006D617463682C204C617374204C696E65E8
:100380003A20004C696E65204E756D626572206979
:1003900073206E6F74204C617374204C696E6520FD
:1003A0004E756D6265722B312C204C617374204C3C
:1003B000696E653A20004D313130005365726961D4
:1003C0006C20737461747573206D69736D617463EF
:1003D000680A002121204B494C4C206361757365EC
:1003E00064206279204B494C4C20627574746F6EA6
:1003F0002F70696E0A002121204B494C4C2063610B
:100400007573656420627920746F6F206D75636801
:1004100020696E6163746976652074696D65202D4D
:100420002063757272656E7420636F6D6D616E64AA
:100430003A2000627573793A2070617573656420A3
:10044000666F7220696E7075740A00627573793A0E
:100450002070617573656420666F722075736572B4
:100460000A00627573793A2070726F6365737369FD
:100470006E670A00506C6561736520526573657420
:10048000005052494E5445522048414C5445440076
:1004900025533A202553004B494C4C45442E20000F
:1004A0005072696E7465722068616C7465642E2088
:1004B0006B696C6C28292063616C6C6564210A008F
:1004C0006563686F3A004572726F723A000A4D6553
:1004D00061737572656420706F696E74733A0A0097
:1004E000337833206D6573682E205A206F666673EB
:1004F00065743A2000486F74656E6420746F6F20D5
:10050000636F6C640A004732362043616E63656C2A
:100510006564004732362048656174696E67204E15
:100520006F7A7A6C65004732362048656174696E6F
:1005300067204265640057616974696E6720666F61
:1005400072206865617475702E0A0046697865646A
:10055000204C656E677468205072696D6500446F49
:100560006E65205072696D696E67004D616E7561D0
:100570006C207072696D696E672E2E2E004C65615D
:1005800076696E6720473236003F5370656369664F
:1005900069656420582C5920636F6F7264696E61BD
:1005A0007465206F7574206F6620626F756E64735A
:1005B0002E0A003F28522965706561742076616CAF
:1005C0007565206E6F7420706C61757369626C65FF
:1005D0003B206D757374206265206174206C6561C9
:1005E000737420312E0A003F537065636966696534
:1005F00064206E6F7A7A6C652074656D70657261C7
:1006000074757265206E6F7420706C6175736962A9
:100610006C652E0A003F53706563696669656420E6
:1006200066696C616D656E742073697A65206E6FA2
:100630007420706C61757369626C652E0A003F539B
:100640007065636966696564207072696D65206CA8
:10065000656E677468206E6F7420706C6175736965
:10066000626C652E0A003F53706563696669656454
:10067000206E6F7A7A6C652073697A65206E6F746C
:1006800020706C61757369626C652E0A003F52655B
:100690007472616374696F6E204D756C7469706CEF
:1006A000696572206D75737420626520737065636F
:1006B00069666965642E0A003F53706563696669FF
:1006C00065642052657472616374696F6E204D7544
:1006D0006C7469706C696572206E6F7420706C61E7
:1006E000757369626C652E0A003F537065636966B5
:1006F000696564206C6179657220686569676874F2
:10070000206E6F7420706C61757369626C652E0A5F
:100710000043292E0A003F5370656369666965646A
:10072000206265642074656D7065726174757265B0
:10073000206E6F7420706C61757369626C6520281F
:1007400034302D00473236207374617274696E67DD
:100750002E2E2E0A00206E6F7420656E74657265F1
:10076000642E0A0050726F62696E6720506F696E66
:10077000740025532025692F256900206F6620000D
:100780004D424C2047323920706F696E7420002929
:100790000A004A206F7574206F662072616E67656B
:1007A0002028302D00290A0049206F7574206F66BB
:1007B0002072616E67652028302D004732384C303A
:1007C000004D6573682070726F62696E6720646F98
:1007D0006E65004D6573682070726F62696E672088
:1007E000646F6E652E0A005374617274206D6573B8
:1007F000682070726F62696E672077697468202262
:10080000473239205331222066697273742E0A00F0
:100810004732395332004732384C300A4732395365
:100820003200686173206E6F20646174612E0A006B
:100830004D65736820426564204C6576656C696E11
:1008400067200053206F7574206F662072616E6799
:10085000652028302D35292E0A00496E7365727483
:100860002066696C616D656E7420616E64207072C3
:1008700065737320627574746F6E0A0050726573CD
:100880007320627574746F6E20746F206865617474
:10089000206E6F7A7A6C650A0020496E76616C6909
:1008A00064206578747275646572200047322F4742
:1008B000332062616420706172616D65746572736A
:1008C0000A0047322F4733206261642070617261F1
:1008D0006D65746572730A00536C6565702E2E2EFB
:1008E000004D65736820706F696E74206F75742099
:1008F0006F662072616E67650A00436C69636B20E6
:10090000746F20526573756D652E2E2E004E6F200C
:100910004D6F76652E002569730025696D20256968
:1009200073002569682025696D2025697300256994
:1009300064202569682025696D2025697300256973
:100940007920256964202569682025696D2025693D
:1009500073005072696E742074696D653A20006F7F
:100960006B006F666600860281027A02730265027E
:1009700044454255473A004D313132205368757431
:10098000646F776E004D31313320530053696465D5
:1009900077696E646572205831204F46462E004DAF
:1009A0004541545041434B00434F4F4C45525F54D7
:1009B000454D5045524154555245004348414D42E2
:1009C00045525F54454D50455241545552450042A1
:1009D0004142595354455050494E470041524353A8
:1009E000004D4F54494F4E5F4D4F444553005448BE
:1009F00045524D414C5F50524F54454354494F4E20
:100A0000004C4F4E475F46494C454E414D450041D5
:100A100055544F5245504F52545F53445F535441C5
:100A20005455530053445F57524954450052455062
:100A3000454154005344434152440050524F4D509D
:100A4000545F535550504F525400454D4552474501
:100A50004E43595F50415253455200434153455F05
:100A60004C494748545F4252494748544E455353B6
:100A700000544F47474C455F4C4947485453005337
:100A80004F4654574152455F504F574552004255CB
:100A9000494C445F50455243454E54004C455645E1
:100AA0004C494E475F44415441005A5F50524F42B7
:100AB000450052554E4F5554004155544F4C4556E4
:100AC000454C005052494E545F4A4F420050524FDD
:100AD0004752455353004155544F5245504F52547D
:100AE0005F54454D50004155544F5245504F52545C
:100AF0005F504F5300564F4C554D4554524943009B
:100B0000454550524F4D0042494E4152595F46496A
:100B10004C455F5452414E5346455200534552494D
:100B2000414C5F584F4E5F584F4646004649524D24
:100B3000574152455F4E414D453A4D61726C696E69
:100B400020322E302E382E3120284A756E20323534
:100B500020323032312031393A34333A303729209B
:100B6000534F555243455F434F44455F55524C3AAE
:100B70006769746875622E636F6D2F4D61726C6961
:100B80006E4669726D776172652F4D61726C696E28
:100B90002050524F544F434F4C5F56455253494F8C
:100BA0004E3A312E30204D414348494E455F54590D
:100BB00050453A5369646577696E646572205831AF
:100BC0002045585452554445525F434F554E543A70
:100BD0003120555549443A63656465326132662D6A
:100BE000343161322D343734382D396231322D634E
:100BF00035356336326633363766660A002F2F0086
:100C00004D31343520533C696E6465783E206F75F4
:100C100074206F662072616E67652028302D31293F
:100C20000A00205200416363656C65726174696FEC
:100C30006E3A2050003F4A206F7574206F66207214
:100C4000616E67652028302E303120746F20302E81
:100C500033290A004D323036205800205800202019
:100C60004D61783A2000200020204D696E3A200026
:100C7000536F667420656E6473746F70733A2000EE
:100C800046523A0020466C6F773A20004261627902
:100C900073746570205A004D424C2041646A75732C
:100CA00074205A0020643A0020693A0020703A000B
:100CB000496E76616C6964206578747275646572DA
:100CC0000A0020643A0020693A0020703A00646902
:100CD0007300656E0043290A0061626C6564202818
:100CE0006D696E2074656D702000436F6C642065C3
:100CF000787472756465732061726520004F464692
:100D0000004F4E004F46460A004661646520486524
:100D1000696768742000426564204C6576656C697B
:100D20006E6720004661696C656420746F20656E93
:100D300061626C6520426564204C6576656C696E05
:100D4000670A004D65736820426564204C657665CE
:100D50006C20646174613A0A00496E76616C696462
:100D6000206D6573682E0A004D65736820706F6989
:100D70006E74206F7574206F662072616E67650AED
:100D8000004D34323120696E636F72726563742076
:100D9000706172616D657465722075736167650A53
:100DA000004F666673657473204170706C6965648A
:100DB000004572723A20546F6F20666172210054B0
:100DC0006F6F206661722066726F6D207265666556
:100DD00072656E636520706F696E740A00454550D8
:100DE000524F4D204F4B0A002E0A002028302D3143
:100DF0003029002076616C7565206F7574206F66F0
:100E00002072616E676500416476616E6365204B98
:100E10003D006F6B005A580A0058590A00595A0A87
:100E200000576F726B737061636520506C616E6503
:100E300020004361703A00436F6F6C696E672E2E1D
:100E40002E0048656174696E672E2E2E00452025A0
:100E5000530042656420436F6F6C696E672E2E2EBF
:100E6000004265642048656174696E672E2E2E000D
:100E700023646566696E652044454641554C545F60
:100E800000626564004B6420004B6920004B7020B9
:100E900000504944204175746F74756E6520666911
:100EA0006E697368656421205075742074686520CC
:100EB0006C617374204B702C204B6920616E642030
:100EC0004B6420636F6E7374616E74732066726F0F
:100ED0006D2062656C6F7720696E746F20436F6E52
:100EE00066696775726174696F6E2E680A00504991
:100EF00044204175746F74756E65206661696C6518
:100F000064212074696D656F75740A00504944202E
:100F10004175746F74756E65206661696C656421D6
:100F20002054656D706572617475726520746F6FA1
:100F300020686967680A00204B643A2000204B69EA
:100F40003A2000204B703A200020436C6173736993
:100F50006320504944200A00204E6F206F7665724E
:100F600073686F6F740A002054753A2000204B7527
:100F70003A2000206D61783A2000206D696E3A2099
:100F80000020643A200020626961733A20005049D1
:100F900044204175746F74756E652073746172744A
:100FA0000A00504944204175746F74756E6520665F
:100FB00061696C6564212054656D7065726174753A
:100FC000726520746F6F20686967680A0050494431
:100FD000204175746F74756E6500504944204175E9
:100FE000746F74756E65206661696C65642120425A
:100FF0006164206865617465722069640A00A100FB
:1010000000006900A20000006300B00000000900B9
:10101000C10000004100C20000004100C300000008
:101020004100C40000004100C50000004100C600AE
:1010300000004145C70000004300C8000000450013
:10104000C90000004500CD0000004900D1000000AB
:101050004E00D50000004F00D60000004F00D70022
:1010600000007800DC0000005500DD0000005900A1
:10107000E00000006100E10000006100E20000000B
:101080006100E30000006100E40000006100E50091
:1010900000006100E60000006165E70000006300F9
:1010A000E80000006500E90000006500EA000000BB
:1010B0006500EB0000006500EC0000006900ED0039
:1010C00000006900EE0000006900EF000000690008
:1010D000F10000006E00F20000006F00F30000005D
:1010E0006F00F40000006F00F50000006F00F600D4
:1010F00000006F00F80000006F00F90000007500AC
:10110000FA0000007500FB0000007500FC00000004
:101110007500FD0000007900FF0000007900040167
:1011200000004100050100006100060100004300CD
:101130000701000063000C01000043000D010000E6
:1011400063000E01000044000F0100006400110163
:10115000000064001901000065001A01000045004C
:101160001B01000065001F01000067003001000046
:101170004900310100006900410100004C004201BA
:1011800000006C00430100004E00440100006E00AE
:10119000480100006E005801000052005901000093
:1011A00072005A01000053005B01000073005F01F0
:1011B0000000730060010000530061010000730033
:1011C0006501000074006F01000075007C010000E3
:1011D0007A007D0100005A007E0100007A00920131
:1011E00000006600E30200007800222000002E00CC
:1011F0001E210000507822210000544D9021000053
:101200003C2D922100002D3EB02100000300BB21A7
:10121000000004003C2200007E00482200007E3DC9
:1012200060220000213D612200003D006422000098
:101230003C3D652200003E3DF12300000700A03048
:1012400000003D0021F301000200C2F4010005008E
:10125000A1000000A900A2000000A400A30000005B
:10126000A500A5000000A600A7000000D200A9006C
:101270000000CF00AA0000009D00AB000000BB00F2
:10128000AE000000CE00B0000000B200B1000000CF
:101290001000B20000001E00B30000001F00B600E6
:1012A0000000D300BA0000009E00BB000000BC009C
:1012B000BC000000B600BD000000B500BF0000008B
:1012C0009F00C20000008F00C3000000AA00C400FD
:1012D00000008E00C60000009200C70000008000E1
:1012E000C90000009000D10000009C00D500000063
:1012F000AC00D60000009900D7000000B700D8006D
:101300000000AE00DC0000009A00E0000000850054
:10131000E1000000A000E20000008300E300000004
:10132000AB00E40000008400E50000008600E60059
:1013300000009100E70000008700E80000008A003C
:10134000E90000008200EA0000008800EB000000D5
:101350008900EC0000008D00ED000000A100EE000F
:1013600000008C00EF0000008B00F10000009B00EB
:10137000F20000009500F3000000A200F40000005D
:101380009300F5000000AD00F60000009400F700A7
:101390000000B800F8000000AF00F900000097005E
:1013A000FA000000A300FB0000009600FC00000013
:1013B0008100FF000000980092010000A8008E0349
:1013C0000000DB008F030000DE0090030000E70058
:1013D00093030000D40094030000D500980300009C
:1013E000D6009B030000D7009E030000D800A00396
:1013F0000000D900A3030000DA00A5030000DB0011
:10140000A6030000DC00A8030000DD00A903000023
:10141000DE00AC030000DF00AD030000E300AE031C
:101420000000E500AF030000E700B0030000F1009A
:10143000B1030000DF00B2030000E000B3030000CE
:10144000E100B4030000E200B5030000E300B603CE
:101450000000E400B7030000E500B8030000E60068
:10146000B9030000E700BA030000E800BB03000076
:10147000E900BC030000EA00BD030000EB00BE036E
:101480000000EC00C0030000ED00C1030000EE000E
:10149000C3030000EF00C4030000F000C503000018
:1014A000F100C7030000F200C8030000F300C90305
:1014B0000000F400CA030000E700CB030000F100C5
:1014C000CD030000F100CE030000F4002220000054
:1014D000CD001E210000A70022210000D000A42181
:1014E0000000F900B5210000C400BB210000040089
:1014F000E5210000FB001A220000BE001E220000B1
:10150000C2002B2200001B003C2200001D004822CC
:1015100000001A0060220000BD00612200001100DE
:1015200064220000B90065220000BA0020230000F8
:10153000C00021230000C100A72300001400A9233C
:1015400000001500AB2300001600AD2300001700BB
:10155000B02300001800B12300001900B2230000DE
:101560001200B32300001300F123000007000C2534
:101570000000C90010250000CA0014250000CB009F
:1015800018250000CC00F8250000C300602B0000E7
:10159000C800612B0000C500622B0000C700632B50
:1015A0000000C600C62B0000F500C72B0000F700A6
:1015B000C82B0000F6000000000001020404000037
:1015C000001C1C0C040404020100000000000408BC
:1015D0001000000000002D2D2D2D2D2D007C4D61C3
:1015E000726C696E7C002D2D2D2D2D2D00040E1F8B
:1015F000041C000000000E1315110E00001C101832
:101600001705060500040A0A0A0A11110E0C121227
:101610000C00000000001F1511151F00004265643A
:1016200000456E636C6F73757265002568753A25A9
:10163000303268750025303268753A253032687569
:1016400000202020202020200020202020004545B0
:1016500050524F4D2056657273696F6E20457272FD
:101660006F7200454550524F4D20496E6465782099
:101670004572726F7200454550524F4D20435243A0
:10168000204572726F72003F0049676E6F7265008D
:10169000526573657400496E697469616C697A6535
:1016A00020454550524F4D004C6F6164206D6D00D8
:1016B000556E6C6F6164206D6D0046696C2E204420
:1016C00069612E004520696E206D6D5E33004164B6
:1016D00076616E6365204B004D33303320553120E9
:1016E0004525692053256900504944204175746F90
:1016F00074756E65202A005049442D44202A0050FC
:1017000049442D49202A005049442D50202A0020C8
:10171000022046616374002002204D61780020029F
:10172000204D696E004F6666004F6E004175746F04
:1017300074656D70005654726176204D696E005666
:101740006D696E00566D6178204500566D61782098
:101750005A00566D6178205900566D617820580006
:10176000416D6178204500416D6178205A00416DDE
:101770006178205900416D6178205800412D5472E4
:101780006176656C00412D5265747261637400412D
:101790006363656C00452073746570732F6D6D0015
:1017A0005A2053746570732F6D6D00592053746502
:1017B00070732F6D6D00582053746570732F6D6DAD
:1017C00000416476616E6365642053657474696E6C
:1017D0006773003F0043616E63656C00496E697416
:1017E000004D34323800496E697469616C697A65FC
:1017F00020454550524F4D0046696C616D656E74D1
:101800000054656D7065726174757265005374651E
:1018100070732F6D6D004A756E6374696F6E20442E
:10182000657600416363656C65726174696F6E0013
:1018300056656C6F636974790053657420486F6DE9
:1018400065204F66667365747300436F6E666967E3
:1018500075726174696F6E003F004E657874204345
:101860006F726E657200446F6E65004E657874002D
:10187000486F6D696E672058595A00426564004E82
:101880006F7A7A6C650046616E20537065656400FE
:10189000436F6E66696775726174696F6E00526539
:1018A00073746F72652044656661756C7473004C67
:1018B0006F61642053657474696E67730053746F4D
:1018C00072652053657474696E6773005072656841
:1018D000656174202420436F6E6600416476616EFA
:1018E0006365642053657474696E6773004D616944
:1018F0006E004D37303220542564004D3630302094
:10190000423020542564004D373032203B2564009E
:101910004D37303120542564004D373032004D377B
:101920003031004D363030204230004D61696E005C
:10193000436F6E74696E7565005075726765206DD2
:101940006F726500524553554D45204F5054494FD5
:101950004E533A005052494E54205041555345443D
:101960000020204E6F7A7A6C653A2000504554472B
:1019700000504C410024F4D43050C38E20C2A24009
:1019800017828B7011127A910D816CD90AA861E1CE
:1019900008C7586607615143061E4B5D05C145A740
:1019A000041A411104093D9803713931034036DBB3
:1019B0000265339102D4305402802E1D02632CEE56
:1019C00001752AC501B028A001102781018F256467
:1019D000012B244B01E0223401AC211F018D200D8D
:1019E00001801FFC00841EED00971DDF00B81CD293
:1019F00000E61BC600201BBC00641AB200B219A886
:101A0000000A19A0006A189900D117910040178B9D
:101A100000B516840031167E00B31579003A1573AF
:101A200000C7146F0058146A00EE13660088136331
:101A30000025135E00C7125B006C1257001512548C
:101A400000C111510070114F0021114B00D61049F7
:101A5000008D1047004610440002104200C00F40A5
:101A600000800F3E00420F3C00060F3B00CB0E38BB
:101A700000930E37005C0E3500270E3400F30D3254
:101A800000C10D3100900D3000600D2E00320D2D83
:101A900000050D2C00D90C2B00AE0C2900850C295B
:101AA000005C0C2700350C27000E0C2600E80B24E8
:101AB00000C40B2400A00B23007D0B23005A0B2134
:101AC00000390B2100180B2000F80A1F00D90A1E4C
:101AD00000BB0A1E009D0A1D00800A1D00630A1C2F
:101AE00000470A1B002C0A1B00110A1A00F7091AEA
:101AF00000DD091900C4091900AB09190092091782
:101B0000007B091800630917004C091600360916F6
:101B100000200916000A091500F5081500E0081450
:101B200000CC081400B8081400A40814009008138E
:101B3000007D0812006B08130058081200460812B6
:101B400000340811002308110012081100010811C7
:101B500000F0071000E0071000D0071000C00710C9
:101B600000B0070F00A107100091070E0083070FB8
:101B70000074070F0065070E0057070E0049070E97
:101B8000003B070D002E070E0020070D0013070D68
:101B90000006070D00F9060C00ED060D00E0060C2E
:101BA00000D4060C00C8060C00BC060C00B0060CE5
:101BB00000A4060B0099060C008D060B0082060B94
:101BC0000077060B006C060B0061060A0057060B37
:101BD000004C060A0042060A0038060A002E060AD1
:101BE0000024060A001A060A001006090007060A61
:101BF00000FD050900F4050900EB050900E20509EF
:101C000000D9050900D0050900C7050900BE05096E
:101C100000B5050800AD050800A50509009C0508EC
:101C200000940508008C050800840508007C050860
:101C300000740508006C050700650508005D0507D0
:101C400000560508004E0507004705070040050837
:101C50000038050700310507002A0507002305079E
:101C6000001C050600160507000F050700080506FD
:101C70000002050700FB040600F5040700EE040659
:101C800000E8040600E2040700DB040600D50406B1
:101C900000CF040600C9040600C3040600BD040604
:101CA00000B7040600B1040500AC040600A6040653
:101CB00000A00405009B040600950405009004069E
:101CC000008A04050085040500800406007A0405E6
:101CD0000075040500700405006B0405006604052A
:101CE00000610405005C040500570405005204056A
:101CF000004D04050048040500430405003E0404AB
:101D0000003A04050035040500300404002C0405E5
:101D10000027040400230405001E0404001A040420
:101D20000016040500110404000D04040009040554
:101D3000000404040000040400FC030400F803048D
:101D400000F4030400F0030400EC030400E80304BF
:101D500000E4030400E0030400DC030400D80304EF
:101D600000D4030400D0030400CC030400C8030320
:101D700000C503030024F404D9201BC40C5C0E9896
:101D800004C4095F0265077101F405F900FB04B39F
:101D90000048048700C10369005803550003034548
:101DA00000BE023A008402310053022A00290225B3
:101DB0000004022000E4011C00C8011900AF011753
:101DC00000980114008401130071011000610110DA
:101DD0000051010E0043010D0036010B002B010BD9
:101DE0000020010B00150109000C01090003010886
:101DF00000FB000800F3000800EB000700E4000609
:101E000000DE000600D8000600D2000600CC000567
:101E100000C7000500C2000500BD000400B90004B1
:101E200000B5000400B1000400AD000400A90004E6
:101E300000A5000300A20003009F0004009B000314
:101E40000098000300950002009300030090000337
:101E5000008D0002008B0003008800020086000253
:101E60000084000300810002007F0002007D000268
:101E7000007B00020079000200770001007600027A
:101E8000007400020072000100710002006F000285
:101E9000006D0001006C0002006A00010069000290
:101EA0000067000100660001006500010064000297
:101EB000006200010061000100600001005F00029B
:101EC000005D0001005C0001005B0001005A0001A0
:101ED00000590001005800010057000100560001A0
:101EE00000550001005400010053000000530001A0
:101EF000005200010051000100500001004F00019C
:101F0000004E0000004E0001004D0001004C000199
:101F1000004B0000004B0001004A00010049000195
:101F20000048000000480001004700010046000092
:101F3000004600010045000000450001004400018A
:101F40000043000000430001004200000042000185
:101F5000004100000041000100400001003F00007E
:101F6000003F0001003E0000003E0001003D000077
:101F7000003D0001003C0000003C0000003C00016E
:101F8000003B0000003B0001003A0000003A000165
:101F9000003900000039000100380000003800005E
:101FA0000038000100370000003700010036000053
:101FB000003600000036000100350000003500004A
:101FC000003500010034000000340000003400013E
:101FD0000033000000330000003300010032000035
:101FE000003200000032000100310000003100002A
:101FF000003100010030000000300000003000011E
:10200000002F0000002F0000002F0000002F000113
:10201000002E0000002E0000002E0001002D000008
:10202000002D0000002D0000002D0001002C0000FC
:10203000002C0000002C0000002C0001002B0000F0
:10204000002B0000002B0000002B0001002A0000E4
:10205000002A0000002A0000002A000100290000D8
:1020600000290000002900000029000000290001CB
:1020700000280000002800000028000000280000C0
:1020800000280001002700000027000000270000B2
:1020900000270000002700010026000000260000A5
:1020A0000026000000260000002600010025000098
:1020B000002500000025000000250000002500008C
:1020C000002500010024000000240000002400007E
:1020D0000024000000240001002300000023000071
:1020E0000023000000230000002300000023000064
:1020F0000023000100220000002200000022000056
:102100000022000000220000002200010021000047
:10211000002100000021000000210000002100003B
:10212000002100000021000100200000002000002C
:10213000002000000020000000200000002000001F
:102140000020000000200001001F0000001F000010
:10215000001F0000001F0000001F0000001F000003
:10216000001F0001001E0000001E0000001E0000F5
:10217000001E000000232C0000B8220000561800AA
:10218000003A0F0000B8080000B10400007102001E
:10219000003E01000020436F756E7420583A000025
:1021A00042656400453100626564002C20737973D8
:1021B00074656D2073746F7070656421204865616B
:1021C0007465725F49443A200048656174696E67BE
:1021D000204661696C65640048656174696E6720BA
:1021E0006661696C6564004572723A204D415854CD
:1021F000454D50004D415854454D5020747269670B
:102200006765726564004572723A204D494E5445C7
:102210004D50004D494E54454D50207472696767CA
:102220006572656400544845524D414C2052554EEC
:102230004157415900546865726D616C2052756E4A
:102240006177617900202F002042403A0020403A17
:102250000020573A0020573A00496E76616C696455
:102260002065787472756465720A00026D61726C23
:10227000696E66772E6F7267006D61726C696E664B
:10228000772E6F7267006D61726C696E66772E6F64
:10229000726700322E302E382E3100322E302E381A
:1022A0002E3100322E302E382E31006D61726C6965
:1022B0006E66772E6F7267006D61726C696E6677FD
:1022C0002E6F7267006D61726C696E66772E6F7229
:1022D000670020322E302E382E310070012C0190F4
:1022E000012701B0012201C0011D01F001180110F8
:1022F00002130130020E016002090190020401C0C4
:1023000002FF000003FA004003F5008003F000D054
:1023100003EB002004E6007004E100E004DC004070
:1023200005D700C005D2004006CD00D006C8008009
:1023300007C3003008BE00F008B900C009B400B0FF
:102340000AAF00B00BAA00D00CA500000EA00050F0
:102350000F9B00C01096005012910000148C00C01A
:10236000158700B0178200B0197D00D01B780000DF
:102370001E730040206E0090226900F0246400402B
:10238000275F0090295A00E02B5500102E500020A6
:10239000304B0010324600E033410090353C0010D5
:1023A00037370070383200A0392D00B03A2800A02D
:1023B0003B2300603C1E00103D1900903D140010AE
:1023C0003E0F00703E0A00C03E0500003F00004086
:1023D0003FFBFF803FF6FFC03FF1FF2020506C61C4
:1023E0006E6E657242756666657242797465733A9F
:1023F00020002046726565204D656D6F72793A2028
:1024000000436F6D70696C65643A204A756E2032C6
:102410003520323032310A00204C617374205570FF
:1024200064617465643A20323032312D30352D319B
:1024300035207C20417574686F723A202845746895
:10244000657265616C2050726F6A656374205349D0
:10245000444557494E44455220583120572F4D414D
:102460004E55414C204D455348290A00322E302EFE
:10247000382E310A004D61726C696E0020536F6610
:1024800074776172652052657365740A0020576124
:10249000746368646F672052657365740A00204234
:1024A000726F776E206F75742052657365740A00C1
:1024B0002045787465726E616C2052657365740A8C
:1024C00000506F77657255700A0073746172740AF8
:1024D00000456E6473746F7073002553202563206C
:1024E000256320256320256300205A3A0020593AAD
:1024F0000020583A00656E6473746F7073206869C9
:10250000743A200000000A0B02090C0D0E080703A4
:1025100004010000000000000000000000000000B6
:1025200000000000000000000000000000000000AB
:102530001211100000000000000000000000000068
:1025400000000000000000000000004D6F766520D4
:1025500025736D6D004D6F766520302E316D6D00E9
:102560004D6F766520316D6D004D6F766520313091
:102570006D6D004D6F766520417869730045787404
:102580007275646572004D6F7665205A004D6F76E6
:10259000652059004D6F766520580071196C1943FC
:1025A00068616E67652046696C616D656E74005583
:1025B0006E6C6F61642046696C616D656E74004C71
:1025C0006F61642046696C616D656E740050726560
:1025D0006865617420437573746F6D00507265682F
:1025E0006561742024004261636B00486F6D696E01
:1025F00067204661696C656400FFFFFF486F6D6589
:102600002025732573257320466972737400496E03
:10261000736572742066696C616D656E7420616E9D
:102620006420707265737320627574746F6E0A0033
:10263000220A00556E6B6E6F776E20636F6D6D6151
:102640006E643A2022005369646577696E6465722E
:102650002058312052656164792E005072696E7481
:10266000696E672E2E2E005072696E74205061754F
:1026700073656400204500205A00205900204D3920
:1026800032205800DB0FC93F45BCDA3F8FB3024010
:10269000FCF0274056946140FE4B9B4084A5D840F7
:1026A000E0231841346A5641E859974164DBD5412B
:1026B0006E271742B4B75542CE1A9742C8AED542DC
:1026C000B5885A43D40684BFA65FA7BF7443E0BF52
:1026D00010B11AC01C2C58C0E8F697C0B849D6C033
:1026E0004E4E17C124D355C1802497C1A0B5D5C182
:1026F000121A17C244AE55C2781797C26CACD5C235
:1027000067885AC320746F6F206C6F6E672065787E
:1027100074727573696F6E2070726576656E74651C
:10272000640A0020636F6C64206578747275736945
:102730006F6E2070726576656E7465640A006F6BEB
:102740000A00526573656E643A200000002200257D
:102750000028002B002E003100340002010000058B
:102760000108010B0100002100240027002A002D90
:10277000003000330001010000040107010A0105D7
:10278000050505070508080808020202020A0A08EA
:102790000804040404010101010101010103030310
:1027A0000303030303040707070C0C0C0C0C0C0CAD
:1027B0000C0202020206060606060606060B0B0BB4
:1027C0000B0B0B0B0B0102102020080810204010EF
:1027D00020408002010201080402010102040810E5
:1027E0002040808040201008040201800402018003
:1027F000402010080402010804020101020408102C
:10280000204080010204081020408020453A00202A
:102810005A3A0020593A00583A004572726F7220B5
:1028200077726974696E6720746F20454550524F06
:102830004D210A005061726B696E672E2E2E0000CA
:10284000005761697420666F720066696C616D651E
:102850006E74206368616E676500746F20737461C5
:102860007274005761697420666F720066696C61EA
:102870006D656E7420756E6C6F616400004E6F7ACA
:102880007A6C652068656174696E6700506C65617B
:10289000736520776169742E2E2E00005072657367
:1028A0007320627574746F6E00746F206865617454
:1028B000206E6F7A7A6C650000496E7365727420C1
:1028C00066696C616D656E7400616E64207072651E
:1028D000737320627574746F6E00746F20636F6E13
:1028E00074696E7565005761697420666F72006661
:1028F000696C616D656E74206C6F6164000050726C
:1029000065737320427574746F6E00746F20726506
:1029100073756D65207072696E740000576169741B
:1029200020666F72207072696E7400746F20726519
:1029300073756D652E2E2E00005761697420666FC9
:10294000720066696C616D656E7420707572676582
:1029500000004368616E67652046696C616D656E55
:102960007400436F6E66696775726174696F6E009B
:1029700054656D7065726174757265004D6F746930
:102980006F6E0054756E6500496E666F20536372FA
:1029900065656E002100486F74656E6420746F6F0A
:1029A00020636F6C64004261636B0050726F6365FB
:1029B0006564004D6F74696F6E0044697361626C89
:1029C00065205374657070657273004D3834004C27
:1029D0006576656C20436F726E6572730046616444
:1029E0006520486569676874004F6666004F6E0031
:1029F000426564204C6576656C696E67004C65764F
:102A0000656C20426564004732394E00486F6D6541
:102A1000205A004732385A00486F6D6520590047E8
:102A200032385900486F6D652058004732385800D9
:102A30004175746F20486F6D6500473238004D61F5
:102A4000696E0050726568656174202420456E646B
:102A500000507265686561742024204265640054EA
:102A6000656D706572617475726500436F6F6C643B
:102A70006F776E005072656865617420240046614E
:102A80006E20537065656400426564004E6F7A7A0B
:102A90006C65004D61696E00546F74616C00426139
:102AA000627973746570205A00416476616E636563
:102AB000204B00466C6F770046616E205370656551
:102AC0006400426564004E6F7A7A6C6500537065ED
:102AD0006564004D61696E006F70656E0054524907
:102AE000474745524544003A20007A5F6D696E00C1
:102AF000795F6D696E00785F6D696E005265706F09
:102B00007274696E6720656E6473746F702073747D
:102B1000617475730A0020746F6F206C6F6E67208C
:102B2000657874727573696F6E2070726576656E04
:102B30007465640A0020636F6C6420657874727534
:102B400073696F6E2070726576656E7465640A00D5
:102B5000000000C00000A0C0000000005761726EBD
:102B6000696E673A20486F6D696E672042756D70B7
:102B70002044697669736F72203C20310A0002029A
:102B80000400009743008098430000C8430000A061
:102B9000400000A0400000004000000001000000D4
:102BA00001000080005555550000004000333333CC
:102BB00000AAAA2A004992240000002000C7711C24
:102BC0000099991900D1451700555515003BB113CF
:102BD000002449120011111100000010000F0F0F06
:102BE00000E3380E0043790D00CCCC0C00C3300C50
:102BF00000E8A20B0064210B00AAAA0A00703D0A9B
:102C0000009DD80900427B090092240900DCD3080A
:102C100000888808001042080000000800F0C10782
:102C2000008787070075500700711C07003EEB0600
:102C300000A1BC06006990060066660600703E06AC
:102C4000006118060017F4050074D105005BB0059B
:102C500000B29005006272050055550500783905EF
:102C600000B81E0500050505004EEC040087D404DD
:102C700000A1BD040090A7040049920400C17D0496
:102C800000EE690400C7560400444404005C3204AA
:102C9000000821040041100400000004003FF0037C
:102CA00000F8E0030026D20300C3C30300CCB50341
:102CB000003AA803000A9B0300388E0300C081037A
:102CC000009F750300D0690300505E03001D53038D
:102CD0000034480300913D030033330300162903F9
:102CE00000381F030097150300300C030003030393
:102CF000000BFA020049F10200BAE802005CE002AF
:102D0000002DD802002DD0020059C80200B0C00228
:102D10000031B90200DAB10200AAAA0200A0A3029F
:102D200000BC9C0200FA9502005C8F0200DF880262
:102D30000082820200457C02002776020027700292
:102D400000436A02007C640200D05E02003F590228
:102D500000C8530200FFFDFCFAF8F6F4F2F0EEECC6
:102D6000EAE9E7E5E3E1E0DEDCDAD9D7D5D4D2D091
:102D7000CFCDCBCAC8C7C5C3C2C0BFBDBCBAB9B727
:102D8000B6B4B3B2B0AFADACAAA9A8A6A5A4A2A18F
:102D9000A09E9D9C9A99989795949392908F8E8DD2
:102DA0008B8A8988878684838281807F7E7D7B7AF7
:102DB000797877767574737271706F6E6D6C6B6AFB
:102DC000696867666564636261605F5E5D5C5B5AEB
:102DD0005958585756555453525150504F4E4D4CC8
:102DE0004B4A4A4948474646454443424241403F90
:102DF0003E3E3D3C3B3B3A39383837363535343347
:102E000032323130302F2E2E2D2C2B2B2A292928EF
:102E1000272726252524232322212120201F1E1E8B
:102E20001D1C1C1B1B1A191918181716161515141A
:102E3000131312121111100F0F0E0E0D0D0C0C0B9F
:102E40000A0A09090808070706060505040403031A
:102E5000020201000000009643000096430000C8F3
:102E600043000000C00000A0C000000000536574D3
:102E700074696E67732053746F72656400290A0069
:102E80002062797465733B2063726320005365741C
:102E900074696E67732053746F72656420280048EC
:102EA000617264636F6465642044656661756C7407
:102EB0002053657474696E6773204C6F6164656438
:102EC0000A003B200020204D3630332000205500E2
:102ED0004C0046696C616D656E74206C6F61642F87
:102EE000756E6C6F6164206C656E677468733A0010
:102EF00020204D393030204B004C696E65617220C6
:102F0000416476616E63653A0020440020490020E8
:102F1000204D333034205000204400204900202030
:102F20004D3330312050005049442073657474692A
:102F30006E67733A0020460020420020480020209F
:102F40004D3134352053004D6174657269616C20D8
:102F500068656174757020706172616D6574657209
:102F6000733A002020473239205334205A00204A37
:102F700000202047323920533320490020204D348F
:102F800032302053004D65736820426564204C65E3
:102F900076656C696E673A0020204D3230362058D5
:102FA00000486F6D65206F66667365743A00204A4D
:102FB0000020530020204D323035204200416476FD
:102FC000616E6365643A20423C6D696E5F7365674C
:102FD0006D656E745F74696D655F75733E20533CFB
:102FE0006D696E5F66656564726174653E20543C10
:102FF0006D696E5F74726176656C5F66656564723B
:103000006174653E204A3C6A756E635F6465763E16
:103010000020540020520020204D32303420500037
:10302000416363656C65726174696F6E2028756EAB
:103030006974732F7332293A20503C7072696E7430
:103040005F616363656C3E20523C726574726163BC
:10305000745F616363656C3E20543C747261766595
:103060006C5F616363656C3E0020204D323031201F
:1030700058004D6178696D756D20416363656C65BD
:10308000726174696F6E2028756E6974732F733264
:10309000293A0020204D3230332058004D617869A4
:1030A0006D756D2066656564726174657320287541
:1030B0006E6974732F73293A0053746570732070AE
:1030C000657220756E69743A0020440020204D32EC
:1030D00030302053002044697361626C65640A00DB
:1030E00046696C616D656E742073657474696E6792
:1030F000733A0020204D3134392043203B20556E57
:1031000069747320696E2043656C736975730A0076
:1031100020286D6D29002020473231202020203BBF
:1031200020556E69747320696E206D6D00454550A1
:10313000524F4D206461746173697A6520657272C3
:103140006F722E0A00290A002062797465733B2091
:1031500063726320002073746F72656420736574FA
:1031600074696E6773207265747269657665642030
:103170002800202863616C63756C61746564292183
:103180000A0020213D2000454550524F4D2043521A
:1031900043206D69736D61746368202D20287374FA
:1031A0006F7265642920002053697A653A200049CE
:1031B0006E6465783A200000009643000096430054
:1031C00000484200002042F43DA042F43DA0429657
:1031D000E3C7430080D943D0070000D00700006454
:1031E00000000010270000204D61726C696E3D5692
:1031F0003833290A00454550524F4D207665727389
:10320000696F6E206D69736D617463682028454530
:1032100050524F4D3D006FF711241FBECFEFD1E24A
:10322000DEBFCDBF00E00CBF13E0A0E0B2E0E6E2FD
:10323000F8E102E00BBF02C007900D92AE35B10776
:10324000D9F720E1AEE5B3E001C01D92AC3AB20778
:10325000E1F719E1CCE0D9E100E006C021970109CE
:10326000802FFE010F94EA08CB30D10780E00807D9
:10327000A9F70E9488F80D94110C0C940000CF93CC
:10328000DF93EC01CB01BA010F94290229EC38EC51
:1032900048EC5EE30F94E10920E030E040E05FE3BA
:1032A0000F9405090F944E0A6883DF91CF9108951A
:1032B000E091BC0686E0E802F0011124E059F94FE4
:1032C00080919F0690E09583848308958F929F92CA
:1032D000AF92BF92CF92DF92EF92FF92CF936B01AA
:1032E0007C0120E030E0A9010F94230287FD9FC0FC
:1032F0006DEB77E386E095E3A70196010F9405094E
:103300006B017C0120E030E040E251E40F94880240
:1033100020E030E048EC52E40F9488024B015C015D
:1033200020E030E0A901C701B6010F94230220E09C
:1033300030E040EA50E487FF04C020E030E040EA9B
:1033400050ECC501B4010F94050920E030E040E2E3
:1033500051E40F94E1090F94490A6B017C018BE25F
:10336000F7FE09C0F094E094D094C094C11CD11C25
:10337000E11CF11C8DE280930010C701B60120E131
:1033800037E240E050E00F946F088AE0882E912CDD
:10339000A12CB12CCA01B901A50194010F946F08A9
:1033A000605D60930110C701B60128EE33E040E094
:1033B00050E00F946F08CA01B901A50194010F9460
:1033C0006F08605D60930210C701B60124E630E02B
:1033D00040E050E00F946F08CA01B901A5019401C3
:1033E0000F946F08605D609303108EE28093041069
:1033F000C701B601A50194010F946F08C62FCA0139
:10340000B901A50194010F946F08605D60930510E8
:10341000C05DC093061080E090E1CF91FF90EF90E7
:10342000DF90CF90BF90AF909F908F9008956DEBFD
:1034300077E386E095EB60CF8F929F92AF92BF9239
:10344000CF92DF92EF92FF92CF936B017C0120E04D
:1034500030E0A9010F94230287FDAAC06DEB77E34A
:1034600086E095E3A70196010F9405096B017C01A5
:1034700020E030E0A9010F94230287FF9EC0C7011E
:10348000B601905820E030E040E251E40F94880209
:1034900020E030E040E251E40F94880220E030E088
:1034A00040EA50E40F94050920E030E040E251E4A6
:1034B0000F94E1090F94490A6B017C0180E280932B
:1034C000001060E280E1C81687E2D806E104F1044A
:1034D0008CF0C701B60120E137E240E050E00F94E4
:1034E0006F08CA01B9012AE030E040E050E00F94D3
:1034F0006F08605D6093011060E288EEC81683E09B
:10350000D806E104F1048CF0C701B60128EE33E0DF
:1035100040E050E00F946F08CA01B9012AE030E0A2
:1035200040E050E00F946F08605D6093021060E22D
:1035300084E6C816D104E104F1048CF0C701B60199
:1035400024E630E040E050E00F946F08CA01B90172
:103550002AE030E040E050E00F946F08605D609337
:1035600003108AE0882E912CA12CB12CC701B60142
:10357000A50194010F946F08C62FCA01B901A501D6
:1035800094010F946F08605D609304108EE2809345
:103590000510C05DC093061080E090E1CF91FF90D0
:1035A000EF90DF90CF90BF90AF909F908F90089555
:1035B0006DEB77E386E095EB55CF20E030E040E21D
:1035C00051E4C701B60162CF8F929F92AF92BF9232
:1035D000CF92DF92EF92FF92CF936B017C0120E0BC
:1035E00030E0A9010F94230287FD93C06DEB77E3D0
:1035F00086E095E3A70196010F9405096B017C0114
:1036000020E030E040E251E40F94880220E030E016
:103610004AE754E40F9488024B015C0120E030E05B
:10362000A901C701B6010F94230220E030E040EA6F
:1036300050E487FF04C020E030E040EA50ECC501D0
:10364000B4010F94050920E030E040E251E40F940A
:10365000E1090F94490A6B017C01C114D104E10412
:10366000F10409F45BC0F7FE59C0F094E094D094E3
:10367000C094C11CD11CE11CF11C8DE2809301108F
:10368000C701B60128EE33E040E050E00F946F0828
:103690008AE0882E912CA12CB12CCA01B901A50178
:1036A00094010F946F08605D609302108EE2809326
:1036B0000310C701B60124E630E040E050E00F946B
:1036C0006F08CA01B901A50194010F946F08605DEC
:1036D00060930410C701B601A50194010F946F080F
:1036E000C62FCA01B901A50194010F946F08605D4E
:1036F00060930510C05DC093061081E090E1CF910A
:10370000FF90EF90DF90CF90BF90AF909F908F9001
:1037100008956DEB77E386E095EB6CCF80E2AECF5A
:10372000CF93DF93EC01CB01BA010F94290220E083
:1037300030E040E251E40F94E109688379838A83A1
:103740009B83DF91CF910895CF93DF93EC01CB0161
:10375000BA010F94290220E030E040E251E40F94D6
:10376000E109688379838A839B83DF91CF910895F0
:103770000F94290220E030E040E251E40F94E10987
:103780005BCECF93DF93EC01CB01BA010F942902FA
:103790002AE037ED43E25DE30F94E1090F944E0A0E
:1037A000688379838A839B83DF91CF910895CF9338
:1037B000DF93EC01CB01BA010F9429022AE037ED27
:1037C00043E25DE30F94E109688379838A839B83F5
:1037D000DF91CF910895CF93DF93EC01CB01BA0134
:1037E0000F942902688379838A839B83DF91CF9129
:1037F0000895CF93DF93EC01CB01BA010F94290216
:10380000688379838A839B83DF91CF910895CF93D7
:10381000DF93EC01CB01BA010F94290220E030E0E4
:1038200048EC52E40F94E109688379838A839B838F
:10383000DF91CF910895CF93DF93EC01CB01BA01D3
:103840000F94290220E030E048EC52E40F94E109A3
:10385000688379838A839B83DF91CF9108950F9446
:10386000290220E030E048EC52E40F94E1092ECD2B
:10387000CF93DF93EC01CB01BA010F9429020F948F
:10388000490A79836883DF91CF910895CF93DF93BD
:10389000EC01CB01BA010F94290220E030E04AE7A5
:1038A00054E40F94E109688379838A839B83DF91D1
:1038B000CF9108950F94290220E030E04AE754E4C4
:1038C0000F94E10981CECF92DF92EF92FF9223EF26
:1038D00034E045E35FE36091040770910507809150
:1038E0000607909107070F9488022AE136EF45E911
:1038F0005EE30F94E1096B017C0160919C0D709176
:103900009D0D80919E0D90919F0D0F9427029B011C
:10391000AC01C701B6010F9488020F94720B60933B
:103920001C0770931D0780931E0790931F07FF903D
:10393000EF90DF90CF9008952CEA35EC47E25EE3FC
:103940006091190470911A0480911B0490911C04D9
:103950000F94E109609397067093980680939906F7
:1039600090939A0608952CEA35EC47E25EE3609165
:103970001D0470911E0480911F04909120040F94E7
:1039800088026093930670939406809395069093B3
:10399000960608952CEA35EC47E25EE3609119043F
:1039A00070911A0480911B0490911C040F94E109FA
:1039B00060939706709398068093990690939A0661
:1039C00008952CEA35EC47E25EE360911D047091A6
:1039D0001E0480911F04909120040F94880260932C
:1039E0009306709394068093950690939606089597
:1039F000FC0184910895FC01808108958091E50E79
:103A00009091E60E891B8F7059F480910207811105
:103A100005C081E090910307913009F080E008959E
:103A200081E00895AF92BF92CF92DF92EF92FF9222
:103A30000F931F93CF93DF93EC015B018A01FB018E
:103A4000199587FD16C0C82ED12CF12CE12C21969A
:103A5000F801C082D182E282F382CE01DF91CF9160
:103A60001F910F91FF90EF90DF90CF90BF90AF909C
:103A70000895982F907E903CA9F48F7190E0B0E06B
:103A8000A0E06C017D0156E0CC0CDD1CEE1CFF1C9F
:103A90005A95D1F7CE010196F50119958F73C82A71
:103AA0002296D6CF982F907F903E11F58F7090E0A0
:103AB000B0E0A0E06C017D0136E0CC0CDD1CEE1C1A
:103AC000FF1C3A95D1F7CE010196F50119958F7338
:103AD000C82A46E0CC0CDD1CEE1CFF1C4A95D1F731
:103AE000CE010296F50119958F73C82A2396B0CF9F
:103AF000982F987F903F79F5877090E0B0E0A0E034
:103B00006C017D0186E0CC0CDD1CEE1CFF1C8A954F
:103B1000D1F7CE010196F50119958F73C82A96E069
:103B2000CC0CDD1CEE1CFF1C9A95D1F7CE01029641
:103B3000F50119958F73C82A26E0CC0CDD1CEE1C0C
:103B4000FF1C2A95D1F7CE010396F50119958F73C5
:103B5000C82A24967DCF982F907C903841F4807CA1
:103B6000803869F42196CE01F5011995F8CF8E7F42
:103B70008D3F28F02196CE01F5011995F8CFC12C83
:103B8000D12C760165CF90E080E00895282F9091A8
:103B9000AB03833021F495FD0FC094FD0FC0892F36
:103BA00090E0B0E0A0E004C0B695A7959795879502
:103BB0002A95D2F78170089581E0089580E00895F4
:103BC0002FEB280F2A3108F047C0E22FF0E0809158
:103BD000C7039091C803A091C903B091CA0304C060
:103BE000B695A795979587952A95D2F780FD02C03F
:103BF00081700895E355FC4FE081EE2341F18091FF
:103C0000000790910107E80FF92FF11D808190EDD9
:103C1000980F9A3030F08E3251F4818180538A307F
:103C200098F4F093AA03E093A90381E008958D32FC
:103C300011F08B3249F4818190ED980F9A3088F31E
:103C40008E3211F48281EACFF0E0E0E0EACF109208
:103C5000AA031092A903E9CF80E00895129A08956B
:103C60000F9429020F94490ACB010C948CE184E053
:103C70000C9461A383E00C9461A382E00C9461A393
:103C80000F94290229EC38EC48EC5EE30F94E1092B
:103C900020E030E040E05FE30F9405090F944E0A06
:103CA000862F0C94F9E180E090E0A0E8B0E48093E6
:103CB000450290934602A0934702B093480281EDDB
:103CC00092E00E9498D780E090E0A8E4B2E480936C
:103CD0003D0290933E02A0933F02B0934002809336
:103CE000410290934202A0934302B0934402E091B8
:103CF0002204EE0FFF0BEF54FD4F80819181833042
:103D0000910571F18430910509F43FC0029761F487
:103D100080E090E0AAE7B3E480933D0290933E02F6
:103D2000A0933F02B093400289EB92E00E9498D7A3
:103D30008DEC9CECACE4BEE380934502909346028C
:103D4000A0934702B093480281ED92E00E9498D779
:103D5000809122048F5F8430ECF4809322040895D4
:103D600080E090E0AAE7B3E480933D0290933E02A6
:103D7000A0933F02B093400280934102909342028D
:103D8000A0934302B0934402CFCF80E090E0AAE733
:103D9000B3E4F2CF109222040895CF93DF9300D0C2
:103DA0001F92CDB7DEB70F944E0A0F942702698396
:103DB0007A838B839C83CE0101960E94A4DD0F90B1
:103DC0000F900F900F90DF91CF9108950F942902DB
:103DD0002AE037ED43E25DE30F94E109DECFCF92B5
:103DE000DF92EF92FF92CF93DF9300D01F92CDB777
:103DF000DEB76B017C0120E030E0A9010F942302C3
:103E000087FD1BC06DEB77E386E095E3A701960184
:103E10000F94050969837A838B839C83CE01019675
:103E20000E94A4DD0F900F900F900F90DF91CF9123
:103E3000FF90EF90DF90CF9008956DEB77E386E0F1
:103E400095EBE4CF0F9429022AE037ED43E25DE3DE
:103E50000F94E109C4CF0F942902C1CFCF92DF9212
:103E6000EF92FF92CF93DF9300D01F92CDB7DEB7D2
:103E70006B017C0120E030E0A9010F94230287FD53
:103E80001BC06DEB77E386E095E3A70196010F94E5
:103E9000050969837A838B839C83CE0101960E94F6
:103EA00027DE0F900F900F900F90DF91CF91FF9032
:103EB000EF90DF90CF9008956DEB77E386E095EB80
:103EC000E4CF0F94290220E030E040E251E40F9467
:103ED000E109C4CFCF92DF92EF92FF926B017C0198
:103EE00020E030E0A9010F94230287FD26C06DEB8E
:103EF00077E386E095E3A70196010F9405096B012E
:103F00007C0120E030E0A9010F94230220E030E0A2
:103F100040E05FE387FF04C020E030E040E05FEB7B
:103F2000C701B6010F9405090F94490ACB01FF9010
:103F3000EF90DF90CF900C94E2E06DEB77E386E0BA
:103F400095EBD9CF0F942902C5CF0F94290220E019
:103F500030E048EC52E40F94E1090C94A3E60C9491
:103F6000D2CD0C94D2CD0C94D2CD0C94D2CD0C9455
:103F70005BCD0C945BCD0C945BCD0C945BCD63E975
:103F800072E084E690E00E9477E66AEB72E084E6F5
:103F900090E00C9477E68111F2CF68EB71E084E158
:103FA00090E00C9477E60E942ECAF5CF0E942AF783
:103FB000F2CF0E94C7DBE3CFCF92DF92EF92FF9266
:103FC0000F931F930E9431A60091D1031091D20349
:103FD0002091D3033091D4036B017C01C01AD10A24
:103FE000E20AF30A9701860137FD11C02091D00340
:103FF00020952093D0036A547C4F8F4F9F4F60933E
:10400000D1037093D2038093D3039093D40381E0C0
:104010009091D003911101C080E01F910F91FF900A
:10402000EF90DF90CF900895CF93DF93C09161061A
:10403000D0916206209729F160915D0670915E062D
:1040400080915F06909160060F94490A6E5F7F4FE2
:1040500024976C177D07ACF470934C0460934B0469
:104060000E9431A6605A75418F4F9F4F60934D0457
:1040700070934E0480934F0490935004DF91CF913E
:10408000089510924D0410924E0410924F04109215
:104090005004F4CFCF92DF92EF92FF920F931F93D1
:1040A000CF93DF9300D000D01F921F92CDB7DEB721
:1040B0008E010F5F1F4FD80130E020E0FB01E20FBF
:1040C000F31FE491ED932F5F3F4F28303105B1F797
:1040D000877098E0899FB001112460648DE19FE0B2
:1040E0000E944CA783E790E00197F1F77801E8E0A0
:1040F000EE0EF11C8BE9C82ED12CF80161918F01D5
:104100008DE19FE00E948386C6010197F1F7E016DA
:10411000F10699F728960FB6F894DEBF0FBECDBF13
:10412000DF91CF911F910F91FF90EF90DF90CF9093
:104130000895CF92DF92EF92FF920F931F93CF9348
:10414000DF9300D000D0CDB7DEB78A0146E0469FAE
:104150009001479F300D1124BC01620F731F46E090
:1041600050E0CE0101960F945701C980DA80EB80B0
:10417000FC80F80140815181628173818FEF9FEF54
:10418000C416D506E606F70640F081E090E04C152F
:104190005D056E057F0508F080E026960FB6F89461
:1041A000DEBF0FBECDBFDF91CF911F910F91FF906A
:1041B000EF90DF90CF9008950F931F93CF93DF93ED
:1041C000CDB7DEB72E970FB6F894DEBF0FBECDBFCA
:1041D0008A011E861D866F83788789879A872FEFCD
:1041E0002B87603871058105910538F48DE19FE0DA
:1041F0000E94838681E090E02FC09E01235F3F4FA5
:10420000AE01495F5F4F61E970E080E592E10E9495
:10421000529A97FD2CC08D859E8526E0289FB0017F
:10422000299F700D1124605B7D4E46E050E0CE0169
:1042300001960F9457016D818DE19FE00E94838666
:1042400001301105B9F26E816623A1F28DE19FE084
:104250000E94838682E090E02E960FB6F894DEBF2F
:104260000FBECDBFDF91CF911F910F9108959E0199
:10427000235F3F4FAE01495F5F4F63E670E08EEF13
:104280009FE00E94529A97FD0BC08D859E8526E087
:10429000289FB001299F700D11246250704FC5CF27
:1042A0006FE3A4CF2F923F924F925F926F927F92D3
:1042B0008F929F92AF92BF92CF92DF92EF92FF9236
:1042C0001F93CF93DF93CDB7DEB72C970FB6F8943B
:1042D000DEBF0FBECDBF7A011901DC012D913D91EA
:1042E0004D915C912D833E834F835887FB01408025
:1042F00051806280738080903D0290903E02A09039
:104300003F02B0904002A50194016D817E818F81B2
:1043100098850F94230281110EC011E0A301920130
:104320006091410270914202809143029091440257
:104330000F942302811110E0D1012D913D914D91F7
:104340005C9129873A874B875C87F701C080D180D1
:10435000E280F3802091000230910102409102023C
:1043600050910302C701B6010F942302882309F478
:104370004EC0C0920002D0920102E0920202F0927E
:1043800003028091490290914A02A0914B02B091A0
:104390004C0240914102509142026091430270915F
:1043A00044028092BF069092C006A092C106B092CD
:1043B000C2064093C3065093C4066093C50670932B
:1043C000C606C092C706D092C806E092C906F0920F
:1043D000CA068093CB069093CC06A093CD06B093EB
:1043E000CE0620E030E040E05FE36091C80D7091C0
:1043F000C90D8091CA0D9091CB0D0F9488026983ED
:104400007A838B839C83CE0101960E9432D72D81C3
:104410003E814F8158852093BF063093C00640935C
:10442000C1065093C2064092C3065092C4066092E1
:10443000C5067092C606D1012D913D914D915C91BA
:104440006091CB067091CC068091CD069091CE06FE
:104450000F9405096093CB067093CC068093CD062C
:104460009093CE0611112FC020E030E0A90169859C
:104470007A858B859C850F942302811133C060E07F
:1044800070E088EC92E469837A838B839C83CE010D
:1044900001960E9432D72C960FB6F894DEBF0FBE5D
:1044A000CDBFDF91CF911F91FF90EF90DF90CF9024
:1044B000BF90AF909F908F907F906F905F904F9044
:1044C0003F902F9008952AEF3EE74AE25FE3609124
:1044D000CC0D7091CD0D8091CE0D9091CF0D0F949C
:1044E0008802D1CF60E070E080EA91E4CCCFEF9217
:1044F000FF920F931F93CF93DF9300D000D000D093
:104500001F921F92CDB7DEB77C0120919D06422FEE
:10451000022E000C550B80919E06833099F1843059
:1045200051F18BEF98E15F932F939F938F938E01BF
:104530000F5F1F4F1F930F930F94BC01C7010E9481
:10454000D8EF4FE350E0B80182E994E00F94F70B05
:104550000F900F900F900F900F900F902B960FB61B
:10456000F894DEBF0FBECDBFDF91CF911F910F91A9
:10457000FF90EF90089587E099E127FDD4CF82EF77
:1045800098E1D1CF80E199E1CECF80918C069091D6
:104590008D06ADCFE091BC0686E0E802F001112463
:1045A000E059F94F80819181A2CF8091A903909128
:1045B000AA03009731F04AE050E070E060E00D940B
:1045C0004F0060E070E0CB0108958091A9039091C5
:1045D000AA03009731F04AE050E070E060E00C94EC
:1045E00022FF60E070E0CB010895EFDFCB0108957A
:1045F0000F931F93CF938091A9039091AA030097E3
:10460000E9F0FC018F01C1912C2F2F7D81F0C53481
:1046100011F0C536B9F7F801108270E060E00E9431
:10462000CCFDF801C083CF911F910F91089570E0E8
:1046300060E0CF911F910F910C94CCFD60E070E091
:10464000CB01F1CF382F1092BB068091A606909136
:10465000A706A091A806B091A906B7FF08C01092BE
:10466000A6061092A7061092A8061092A9062091FD
:10467000A60620939B061092B60680918306181614
:10468000ECF4082E000C990B831B9109022E000CF0
:10469000330B2817390794F097FF02C090E080E0B1
:1046A00080939B06092E000CAA0BBB0B8093A606D9
:1046B0009093A706A093A806B093A90680919B06A5
:1046C0006623A9F090919C06891714F480939C06A8
:1046D00020919C06022E000C330B2D5F3F4F482F7C
:1046E000082E000C550B241735071CF483508093BB
:1046F0009C060895E0911804E63010F581E08E0FD5
:10470000809318044091A6065091A7066091A806D0
:104710007091A90690919C068091830628E0E29F03
:10472000F0011124E851FC4F20911B0F30911C0F18
:104730003183208342835383648375839683878385
:104740000895CF93DF93CDB7DEB78E819091F906B0
:10475000891768F08093F9069E01275F3F4F4F81CC
:10476000588568E270E080ED96E00F94EB01DF91F0
:10477000CF9108950F931F93CF93DF938C016F3FD9
:1047800019F41092F90660E02091F906862F062EA2
:10479000000C990B2817190609F0F4F46093F90638
:1047A000C8010F947201800F911FEC01C01BD10B47
:1047B000C932D1053CF00197FC012491207C2038BE
:1047C000D1F3F3CFDD27AE01B80180ED96E00F9471
:1047D0009301C053D94F1882DF91CF911F910F9150
:1047E00008950F931F930E9431A60091CD0E109152
:1047F000CE0E2091CF0E3091D00E601B710B820B2C
:10480000930B97FD0CC086B186FB882780F991E059
:104810008927349B8260329B84608093D10E809183
:10482000D10E81709091D10E91FD82609091E7033D
:10483000981749F0813009F148F0823079F08330DF
:1048400091F08093E7031F910F910895913079F0D3
:104850009230B9F79091E60391500CC0992339F04A
:104860009330C1F3EECF9130A9F3923051F790918C
:10487000E6039F5F9093E603E4CF992359F39330C7
:1048800001F7F5CFCF92DF92EF92FF92CF93C82F2F
:104890000E9431A66B017C0124EA30E74DE75FE31B
:1048A00060914D0270914E0280914F0290915002A2
:1048B0000F94230287FD18C08AEF90E0A0E0B0E0DB
:1048C0008C0D9D1DAE1DBF1D8093D5039093D60307
:1048D000A093D703B093D803C0930D02CF91FF905C
:1048E000EF90DF90CF90089580E090E0DC01E8CF7A
:1048F000FC0180E09491992331F0907C903809F08C
:104900008F5F3196F7CF0895FC0180E09191992354
:1049100029F0907C9038D1F38F5FF8CF089565E14E
:1049200076E180E0B7DB6DE076E181E0B3DB65E066
:1049300076E182E0AFDB6DEF75E186E0ABDB65EF42
:1049400075E187E0A7DB6DEE75E183E0A3CB20E0A6
:1049500030E040E05FE360918806709189068091C5
:104960008A0690918B060F9405090F94490ACB0192
:104970000895CF93823061F4C4E0C15058F088E0CC
:10498000C89FB00111246A547A4E8C2F83DBF5CF77
:10499000CF91C5CFCF9108950F931F93522F2091A0
:1049A0001B0F30911C0F2817390781F190931C0FB2
:1049B00080931B0F8B0130E020E00093A60610933C
:1049C000A7062093A8063093A90640939C0650930F
:1049D0008306835B9C4221F41092FC06109218041B
:1049E0008DE19FE00E9454A781E020911B0F309140
:1049F0001C0F235B3C4209F080E0BBDF82E0809328
:104A00003C0281E08093B606109221041F910F9121
:104A1000089580913C02882331F041E060E778E11D
:104A200081E00E9438A0809116108770873069F469
:104A30001092220420E040E070E060E08CE19CE213
:104A4000ABDF81E0809321042EC9089520E040E08F
:104A500070E060E083EB9CE29FCFCF930E94C7DBC6
:104A60000E942ECAC82F882319F080E00E943EF0D1
:104A70008C2F91DACF91EACF0F931F93CF93DF93CF
:104A8000CDB7DEB76E970FB6F894DEBF0FBECDBFC1
:104A9000282F082E000C330B90910F02409110022A
:104AA0008F3F39F0F901EE0FFF1FEF5EFD4F908150
:104AB00041814F939F933F938F9388ED96E19F930E
:104AC0008F938E010F5F1F4F1F930F930F94BC01A5
:104AD0004FE350E0B80182E994E00F94F70BB6DFA2
:104AE0000FB6F894DEBF0FBECDBF6E960FB6F8942A
:104AF000DEBF0FBECDBFDF91CF911F910F91089503
:104B00008FEFBACF8091BC06B7CFE0911804EE23A7
:104B100081F0E150E093180488E0E89FF00111244F
:104B2000E851FC4F628173812781468180819181A8
:104B300033CF8CCF4F925F926F927F928F929F92E2
:104B4000AF92BF92CF92DF92EF92FF920F931F939B
:104B5000CF93DF9300D01F92CDB7DEB70E9431A66E
:104B60004B015C0180910D028F3F09F441C00E940E
:104B700031A6C090D503D090D603E090D703F09033
:104B8000D8036C197D098E099F0997FD31C080916A
:104B9000E50E9091E60E8F5F8F70891749F1E091D5
:104BA0000D0280E090E0A5E0B3E4E43050F424E0AE
:104BB000E29FF0011124EF55FD4F80819181A28188
:104BC000B38189839A83AB83BC83C12CD12C7601BA
:104BD0008E010F5F1F4F29E432E045E452E061E4AB
:104BE00072E08DE392E00E94C69B8FEF80930D02EE
:104BF000F8DD8091E503811115C08091D10E82FF0F
:104C000011C08091E40381110FC091E09093E403FF
:104C10008091FA068927809382061092FA060E94F4
:104C20003DA602C01092E4038091E0039091E1035D
:104C3000A091E203B091E303A5019401281B390B75
:104C40004A0B5B0BDA01C901B7FD86C1D501C4016E
:104C50008C599F4FAF4FBF4F8093E0039093E10378
:104C6000A093E203B093E3036091E603062E000CE9
:104C7000770B77FF03C07195619571099091E603F9
:104C80008091DF03981302C0633068F0633069F4E9
:104C90008091E60387FD9CC081E0880F880F809398
:104CA000E60364E002C01092E6038091E60380937D
:104CB000DF03643008F08EC08091820681110CC140
:104CC00080911B0F90911C0F835B9C4241F480915B
:104CD0000E02882309F412C1815080930E020E94B3
:104CE000DCD0C0902407D0902507E0902607F090F4
:104CF000270781110E94E9D020913C02222309F468
:104D00004BC0D701C6014AE0B695A7959795879500
:104D10004A95D1F7009741E0A407B10520F08FEF45
:104D20009FEFA0E0B0E096958795009739F040910D
:104D3000D9035091DA034817590770F5223038F03B
:104D4000243008F4EDC0243011F410923C02E091BC
:104D50001B0FF0911C0F19951092820680911B0F6A
:104D600090911C0F835B9C42F9F40E9431A6DC01F8
:104D7000CB0188199909AA09BB09C090D903D09021
:104D8000DA03F12CE12CC816D906EA06FB0620F45A
:104D90009093DA038093D90380911B0F90911C0F9D
:104DA000835B9C4209F4C0C08091FC068111BCC0A9
:104DB0008091DB039091DC03A091DD03B091DE03D1
:104DC000881A990AAA0ABB0AB7FCBCC03FDEBAC05F
:104DD0008FEF63CF8091BB0621E030E040E050E0F0
:104DE000882309F456C0C090B706D090B806E0906A
:104DF000B906F090BA06C114D104E104F104E9F156
:104E000070E090E080E00F94270220E030E040E87E
:104E10005EE30F9488022B013C01C501B4016C19BB
:104E20007D098E099F090F9427029B01AC01C301E4
:104E3000B2010F94E10920E030E04AE754E40F9416
:104E400088026B017C0120E030E040EA52E40F94DC
:104E50002C0B24E630E040E050E087FF12C020E059
:104E600030E040EF51E4C701B6010F942C0B2AE06B
:104E700030E040E050E087FF04C021E030E040E057
:104E800050E08092B7069092B806A092B906B09210
:104E9000BA06A091E6030A2E000CBB0B0F949508EE
:104EA00024E030E040E050E00F946F088091A606C7
:104EB0009091A706A091A806B091A906820F931F12
:104EC000A41FB51F8093A6069093A706A093A806DB
:104ED000B093A9061092E603D501C4018856954CFB
:104EE000AF4FBF4F8093DB039093DC03A093DD03B0
:104EF000B093DE0381E080933C02E2CE89E08093B0
:104F00000E028091D9039091DA03009729F001975E
:104F10009093DA038093D90381E080933C02DFCE43
:104F200081E080933C0213CF38E9830E3AE3931E6D
:104F3000A11CB11C8092DB039092DC03A092DD03E4
:104F4000B092DE0380913C028130D9F0833021F4AD
:104F50008DE19FE00E9454A70F900F900F900F904B
:104F6000DF91CF911F910F91FF90EF90DF90CF9045
:104F7000BF90AF909F908F907F906F905F904F9079
:104F8000089510923C02E8CF80939F0620E040E015
:104F900070E060E088E59CE2FFCC20E044E064E162
:104FA0008DE19FE00E945BA781E020911B0F309173
:104FB0001C0F235B3C4209F080E0DBDC8DE19FE0CD
:104FC0000C9454A7EADF3E98469A3C98449A3A9843
:104FD000429A07DC1092E60308954FEF5FEFECC8AA
:104FE000AF92BF92CF92DF92EF92FF920F931F93F7
:104FF000CF93DF9300D01F92CDB7DEB76C015B017A
:105000007A0110E000E00E151F05E0F419821A8203
:105010001B821C82AE014F5F5F4FB501C6010E942B
:10502000121D6C0169817A818B819C8161157105EA
:105030008105910539F0A701401B510BBDD8080F20
:10504000191FE1CFC8010F900F900F900F90DF91C3
:10505000CF911F910F91FF90EF90DF90CF90BF9075
:10506000AF900895CF92DF92EF92FF920F931F932C
:10507000CF93DF9300D01F92CDB7DEB77C01062F10
:105080006A01122F11160CF03CC0AE014F5F5F4F4A
:1050900068EF7CE1C7010E94121D7C0169817A8161
:1050A0008B819C81611571058105910551F16D33ED
:1050B00071058105910509F447C06E3771058105B9
:1050C000910509F441C06A3271058105910539F5F0
:1050D00007FF0FC081E296E10E3F11F08DE196E1EE
:1050E000412F012E000C550B68EF7CE179DF181B76
:1050F00059C065E470E080E090E06FDF115031F559
:1051000010E0812F0F900F900F900F90DF91CF91B3
:105110001F910F91FF90EF90DF90CF900895643230
:1051200071058105910569F4C114D10451F0412F35
:10513000012E000C550B68EF7CE1C60151DF181BF6
:10514000A1CF4BDF11509ECF07FDC4CF61E0898115
:105150009A81AB81BC81CD97A105B10509F460E0CE
:10516000600F6A30A4F01150862F6AE00F94B608E1
:10517000092F682F880F770B605D7F4F072E000C7B
:10518000880B990B2ADF112309F4BACF602F062E62
:10519000000C770B605D7F4F072E000C880B990B7E
:1051A0001CDF1150112309F4ABCF412F012E000C4D
:1051B000550B68EF7CE1C70113DF181BA2CF4FEF3F
:1051C0005FEF6BEF7CE10CCF4FEF5FEF68EF7CE1BF
:1051D00007CF0F931F93CF93DF9300D000D01F9280
:1051E0001F92CDB7DEB700917D0210917E02209113
:1051F0007F02309180020D831E832F8338870091B8
:1052000081021091820220918302309184020983ED
:105210001A832B833C839091240F691710F06FEF52
:10522000690F262F30E04091250F2C0F3D1FF9010B
:10523000403199F4943089F46181680F60688DE1A0
:105240009FE028960FB6F894DEBF0FBECDBFDF916A
:10525000CF911F910F910C944CA76581EECF2F92A7
:105260003F924F925F926F927F928F929F92AF92F6
:10527000BF92CF92DF92EF92FF920F931F93CF9343
:10528000DF935C010F94720101968501080F191FCD
:10529000C8010F947201F8016080C1E0611001C083
:1052A000C0E0F801E80FF91FFF24F3948181811118
:1052B00001C0F12C60E084E0C5D970909C06D0E07C
:1052C000CC2ED12CFFEFCF1ADF0ACF0CD11C92E0ED
:1052D000592E25E0422E711096C080913C02882301
:1052E00091F0E0913702E25064E579E1E33038F47F
:1052F000F0E0EE0FFF1FE752FD4F6081718143E048
:105300008D2F0E9438A0C2E0662069F0E2E07E1294
:1053100009C080913C02882329F041E0B8018D2F1B
:105320000E9438A0C3E0F1E0CF16D10409F4CF5FAA
:10533000C71194C080913C02882309F48DC042E0DB
:1053400061E679E18D2F0E9438A03090FE066D2F26
:105350008BE03FDF0E94DC1F282E37FE5FC020E07D
:1053600030E040E05FE360915D0670915E06809101
:105370005F06909160060F9405090F94490A4B014E
:10538000E0906106F090620662E070E080E090E0FC
:1053900024DE8AE393E097FC03C0C4010E948CE101
:1053A0000EDF6FE270E080E090E017DE21103DC07C
:1053B0008FEF21E0381629F0232D330C330B37FD06
:1053C00020E0429EF0011124EB5AFB4F8481882398
:1053D00061F160E270E080E090E0FFDDEAE0EE166F
:1053E000F1040CF456C060E270E080E090E0F5DD7E
:1053F000F4E6EF16F1040CF457C060E270E080E0D0
:1054000090E0EBDD16C081E078127DCF80913C0208
:10541000882309F478CF41E0B50172CF98DA4C01C6
:10542000E0908C06F0908D06AFCFC7010E9461E13D
:10543000C6DE61E070E080E090E0CFDD60E270E029
:1054400080E090E0CADD8AE0E816F1042CF460E226
:1054500070E080E090E0C1DD50923C027394DF5F29
:10546000D43009F038CFCF5FC0938306DF91CF915E
:105470001F910F91FF90EF90DF90CF90BF90AF9072
:105480009F908F907F906F905F904F903F902F9064
:10549000089561E070E080E090E09FDD60E270E000
:1054A00080E090E09ADDD3CF61E070E080E090E0B2
:1054B000F9CFFC01A081B1811C92A281B3818C91B2
:1054C0008F5F8C930280F381E02D608180E081CE3C
:1054D0004F925F926F927F928F929F92BF92CF92E4
:1054E000DF92EF92FF920F931F93CF93DF9300D041
:1054F00000D01F921F92CDB7DEB77C013B016A013D
:105500004901FB016081FC01808163DEC114D1048B
:1055100061F1FA82E9827C826B8201111FC0AE01C7
:105520004B5F5F4FB401C6010E94121D6C016D817B
:105530007E818F8198856115710581059105A9F09E
:105540004CDDF70180818F5F8083843140F3CE0191
:105550000196AFDFE4CFB12C860129C08601B12CC2
:1055600026C0452846284728B1F728960FB6F89454
:10557000DEBF0FBECDBFDF91CF911F910F91FF9086
:10558000EF90DF90CF90BF909F908F907F906F9023
:105590005F904F900895B39407C0B1102EC00115CD
:1055A0001105C9F20F5F1F4F01151105A9F2AE01D8
:1055B0004B5F5F4FB401C6010E94121D6C014D800C
:1055C0005E806F8078844114510461047104A9F0F5
:1055D000F0E24F16510461047104F9F2D301C201E3
:1055E0008D97A109B1090297A105B10530F04BE2F1
:1055F000441651046104710471F6F7018081482F4B
:105600004B0D5527551F453151052CF0853018F0AD
:10561000CE0101964EDF81E0411451046104710412
:1056200009F480E0B80EF70180818B0D8083BB20E8
:1056300009F497CFBA94AE014B5F5F4FB401C80134
:105640000E94121D8C016D817E818F819885C5DC41
:10565000EECF2F923F924F925F926F927F928F92F6
:105660009F92AF92BF92CF92DF92EF92FF920F93F1
:105670001F93CF93DF9300D0CDB7DEB74C013B0132
:105680005A01222E3B8328014091A6065091A7067D
:105690006091A8067091A906411551056105710533
:1056A00079F081E0141615060CF080E08093210457
:1056B0001092A6061092A7061092A8061092A906AC
:1056C000109121043090820610928206311005C09C
:1056D00080913C02882309F497C0C20109D9082FA0
:1056E00080E0C114D10411F0C60102D91A821982D6
:1056F000E114F104B1F4402F50E0282F30E0CA014A
:10570000820F931F45976CF484E190E0841B950B06
:10571000821B930B97FD0196959587958A8381E06F
:10572000898301E028EF3CE1A201BE016F5F7F4F5A
:10573000CE010296CDDEE114F10489F08A8188233E
:1057400021F01A8289818F5F898300E02BEF3CE191
:10575000A701BE016F5F7F4FCE010296B9DEC11473
:10576000D10451F000E028EF3CE1A601BE016F5FDB
:105770007F4FCE010296ACDE63E080E02ADD6BE570
:1057800070E080E090E0112321F060E270E080E0C2
:1057900090E023DCC30118DD6DE570E080E090E06F
:1057A000112321F060E270E080E090E016DCC4019B
:1057B0009FD863E092E1981B892F0BDD60E270E0D7
:1057C00080E090E0112321F06BE570E080E090E054
:1057D00004DCC401F9DC60E270E080E090E01123B9
:1057E00021F06DE570E080E090E0F7DB332049F0D8
:1057F000111102C0A22CBB80A114B104D9F0F50193
:10580000199581E08093FC060F900F900F90DF9127
:10581000CF911F910F91FF90EF90DF90CF90BF90AD
:10582000AF909F908F907F906F905F904F903F9040
:105830002F9008956AD9E5CFCF92DF92EF92FF9231
:105840000F931F9388E5C82E88E1D82EF12CE12C08
:105850000AE518E12BEA3CE443E55EE166E678E11F
:105860008BE698E1F6DE1F910F91FF90EF90DF90AD
:10587000CF900895CF92DF92EF92FF920F931F93F4
:1058800083EDC82E87E1D82EF12CE12C06EE17E12E
:1058900030E020E04DE255E265ED77E18CED97E1F7
:1058A000D8DE1F910F91FF90EF90DF90CF90089579
:1058B000AF92BF92CF92DF92EF92FF920F931F931E
:1058C000CF93DF93CDB7DEB7ADB6BEB686E996E12E
:1058D0000FD890E001962DB73EB7281B390B0FB6B5
:1058E000F8943EBF0FBE2DBF8DB79EB701967C01C9
:1058F00066E976E10F946B0180919F0603E616E15D
:10590000813031F00EE416E1823011F006E716E145
:1059100087E8C82E86E1D82E26E235E24DE255E230
:1059200069E876E180E996E194DE0FB6F894BEBEB0
:105930000FBEADBEDF91CF911F910F91FF90EF9001
:10594000DF90CF90BF90AF900895CF92DF92EF920B
:10595000FF9269017A013DDCC701B601FF90EF902B
:10596000DF90CF903ACB4F925F926F927F928F925F
:105970009F92AF92BF92CF92DF92EF92FF920F93DE
:105980001F93CF93DF93CDB7DEB72E970FB6F89462
:10599000DEBF0FBECDBF1092BB0680918206109273
:1059A0008206882301F120E040E070E060E085EAB3
:1059B0009EEE0E94CC24F1DA2E960FB6F894DEBF4C
:1059C0000FBECDBFDF91CF911F910F91FF90EF9050
:1059D000DF90CF90BF90AF909F908F907F906F900F
:1059E0005F904F9008952091510230915202409162
:1059F000A6065091A706CA01820F931F24363105CF
:105A000009F04EC04730510544F006978A309105A1
:105A10000CF055C08AE090E05CC006964A3F5F4FAC
:105A2000ACF30E94DC1F182F60E080E0D2DB0E9404
:105A3000A7246C01E0908C06F0908D0662E070E087
:105A400080E090E0CADA8AE393E0D7FC03C0C601A5
:105A50000E948CE1B4DB6FE270E080E090E0BDDAA0
:105A6000111147C080915904882309F442C060E2B3
:105A700070E080E090E0B1DAFAE0EF16F1040CF4A7
:105A80000BC360E270E080E090E0A7DA24E6E21663
:105A9000F1049CF160E270E080E090E09EDA2DC0BD
:105AA000243631054CF48536910504F58A3091058C
:105AB00034F48AE090E009C084369105BCF0883E59
:105AC000E3E09E0714F087EE93E02817390709F406
:105AD000A8CF90935202809351021092A606109282
