:100000000C9486100C94B7100C94B7100C94B71085
:100010000C94B7100C94B7100C94B7100C94B71044
:100020000C94B7100C94B7100C94B7100C94B71034
:100030000C94B7100C94B7100C94B7100C94B71024
:100040000C94B7100C9468950C94B7100C94B710DE
:100050000C94B7100C94B7100C9498890C941988D0
:100060000C94B7100C94B2950C94A8950C94B710FE
:100070000C94B7100C94B7100C94B7100C94B710E4
:100080000C94B7100C94B7100C94B7100C94B710D4
:100090000C94B7100C94B7100C94B7100C94B710C4
:1000A0000C94B7100C94B7100C94B7100C94B710B4
:1000B0000C94B7100C94B7100C94B7100C94B710A4
:1000C0000C94B7100C94B7100C94B7100C94B71094
:1000D0000C94B7100C94B7100C94B7100C94B71084
:1000E0000C94B710084AD73B3BCE016E84BCBFFDD1
:1000F000C12F3D6C74319ABD56833DDA3D00C77FF8
:1001000011BED9E4BB4C3E916BAAAABE0000008090
:100110003F05A84CCDB2D44EB93836A9020C50B91F
:10012000918688083CA6AAAA2ABE000000803F004B
:100130004E414E494E495459494E46CDCCCC3D0ACC
:10014000D7233C17B7D13877CC2B329595E6241FAF
:10015000B14F0A000020410000C84200401C462068
:10016000BCBE4CCA1B0E5AAEC59D74434F4D4D5577
:100170004E49434154494F4E0044525952554E0046
:100180004552524F525300494E464F004543484F47
:10019000002121204B494C4C20636175736564201C
:1001A000627920746F6F206D75636820696E61637A
:1001B000746976652074696D65202D20637572728F
:1001C000656E7420636F6D6D616E643A20005072CD
:1001D000696E7465722073746F70706564206475E5
:1001E0006520746F206572726F72732E2046697875
:1001F00020746865206572726F7220616E6420756C
:100200007365204D39393920746F207265737461BC
:1002100072742E202854656D7065726174757265F4
:100220002069732072657365742E2053657420698C
:10023000742061667465722072657374617274698A
:100240006E67290A004E6F20436865636B73756D96
:100250002077697468206C696E65206E756D6265C3
:10026000722C204C617374204C696E653A200063D7
:100270006865636B73756D206D69736D6174636818
:100280002C204C617374204C696E653A20004C69D7
:100290006E65204E756D626572206973206E6F7495
:1002A000204C617374204C696E65204E756D6265DB
:1002B000722B312C204C617374204C696E653A208E
:1002C000004D3131300053657269616C2073746187
:1002D000747573206D69736D617463680A0062756B
:1002E00073793A2070617573656420666F72206956
:1002F0006E7075740A00627573793A207061757357
:10030000656420666F7220757365720A006275738A
:10031000793A2070726F63657373696E670A00655E
:1003200063686F3A004572726F723A000A4D6561F8
:10033000737572656420706F696E74733A0A003366
:100340007833206D6573682E205A206F666673655A
:10035000743A200057616974696E6720666F722075
:100360006865617475702E0A003F53706563696635
:1003700069656420582C5920636F6F7264696E61DF
:100380007465206F7574206F6620626F756E64737C
:100390002E0A003F28522965706561742076616CD1
:1003A0007565206E6F7420706C61757369626C6521
:1003B0003B206D757374206265206174206C6561EB
:1003C000737420312E0A003F2852296570656174CC
:1003D000206D75737420626520737065636966694A
:1003E0006564207768656E206E6F74207573696E22
:1003F0006720616E204C43442E0A003F53706563B2
:100400006966696564206E6F7A7A6C652074656DC3
:100410007065726174757265206E6F7420706C61A6
:10042000757369626C652E0A003F53706563696677
:100430006965642066696C616D656E742073697AA4
:1004400065206E6F7420706C61757369626C652EC7
:100450000A003F537065636966696564207072695C
:100460006D65206C656E677468206E6F7420706CAB
:1004700061757369626C652E0A003F5072696D6523
:10048000206C656E677468206D75737420626520DA
:10049000737065636966696564207768656E206E50
:1004A0006F74207573696E6720616E204C43442E13
:1004B0000A003F537065636966696564206E6F7AF0
:1004C0007A6C652073697A65206E6F7420706C6138
:1004D000757369626C652E0A003F526574726163C0
:1004E00074696F6E204D756C7469706C69657220EB
:1004F0006D757374206265207370656369666965E4
:10050000642E0A003F537065636966696564205212
:10051000657472616374696F6E204D756C74697077
:100520006C696572206E6F7420706C61757369629E
:100530006C652E0A003F53706563696669656420C7
:100540006C6179657220686569676874206E6F7484
:1005500020706C61757369626C652E0A0043292EE8
:100560000A003F537065636966696564206265646B
:100570002074656D7065726174757265206E6F743C
:1005800020706C61757369626C65202834302D00B1
:10059000473236207374617274696E672E2E2E0A8C
:1005A00000206E6F7420656E74657265642E0A009B
:1005B00020496E76616C6964206578747275646533
:1005C00072200047322F47332062616420706172CD
:1005D000616D65746572730A00206F6620004D427C
:1005E0004C2047323920706F696E742000290A0050
:1005F0004A206F7574206F662072616E67652028CF
:10060000302D00290A0049206F7574206F66207212
:10061000616E67652028302D004732384C30004D20
:100620006573682070726F62696E6720646F6E65B3
:100630002E0A005374617274206D657368207072A5
:100640006F62696E672077697468202247323920AB
:100650005331222066697273742E0A00473239536F
:1006600032004732384C300A473239533200686121
:1006700073206E6F20646174612E0A004D6573688B
:1006800020426564204C6576656C696E6720005376
:10069000206F7574206F662072616E676520283048
:1006A0002D35292E0A004D65736820706F696E74B0
:1006B000206F7574206F662072616E67650A002571
:1006C00069730025696D20256973002569682025F7
:1006D000696D2025697300256964202569682025D6
:1006E000696D2025697300256979202569642025B5
:1006F00069682025696D20256973005072696E74E0
:100700002074696D653A20006F6B006F6666008C1F
:10071000018701800179016B0144454255473A0048
:100720004D3131322053687574646F776E004D31EE
:1007300031332053004D4541545041434B00434F0A
:100740004F4C45525F54454D5045524154555245CA
:10075000004348414D4245525F54454D504552413A
:100760005455524500424142595354455050494E08
:10077000470041524353004D4F54494F4E5F4D4F38
:1007800044455300544845524D414C5F50524F54DC
:10079000454354494F4E004C4F4E475F46494C45E8
:1007A0004E414D45004155544F5245504F52545FB4
:1007B00053445F5354415455530053445F57524977
:1007C000544500524550454154005344434152441E
:1007D0000050524F4D50545F535550504F5254009B
:1007E000454D455247454E43595F5041525345523E
:1007F00000434153455F4C494748545F4252494783
:1008000048544E45535300544F47474C455F4C495D
:100810004748545300534F4654574152455F504F39
:10082000574552004255494C445F50455243454E4E
:1008300054004C4556454C494E475F444154410095
:100840005A5F50524F42450052554E4F5554004149
:1008500055544F4C4556454C005052494E545F4AF2
:100860004F420050524F4752455353004155544F49
:100870005245504F52545F54454D50004155544FCE
:100880005245504F52545F504F5300564F4C554DA8
:10089000455452494300454550524F4D0042494E40
:1008A0004152595F46494C455F5452414E5346456B
:1008B000520053455249414C5F584F4E5F584F4686
:1008C00046004649524D574152455F4E414D453ACB
:1008D0004D61726C696E20322E302E382E312028F8
:1008E0004A756E20203520323032312031373A358A
:1008F000363A34332920534F555243455F434F44D2
:10090000455F55524C3A6769746875622E636F6D26
:100910002F4D61726C696E4669726D776172652FD9
:100920004D61726C696E2050524F544F434F4C5F73
:1009300056455253494F4E3A312E30204D4143488F
:10094000494E455F545950453A5369646577696E1D
:100950006465722058312045585452554445525FC1
:10096000434F554E543A3120555549443A636564D6
:1009700065326132662D343161322D343734382D91
:10098000396231322D633535633632663336376638
:10099000660A002F2F00205200416363656C657268
:1009A0006174696F6E3A2050003F4A206F75742061
:1009B0006F662072616E67652028302E303120749A
:1009C0006F20302E33290A004D3230362058002057
:1009D000580020204D61783A2000200020204D69E9
:1009E0006E3A2000536F667420656E6473746F7086
:1009F000733A200046523A0020466C6F773A200046
:100A00004261627973746570205A004D424C2041F6
:100A1000646A757374205A0020643A0020693A00B1
:100A200020703A00496E76616C6964206578747252
:100A3000756465720A0020643A0020693A002070EB
:100A40003A0064697300656E0043290A0061626CB4
:100A5000656420286D696E2074656D702000436F99
:100A60006C642065787472756465732061726520AA
:100A7000004F4646004F4E004F46460A004661640E
:100A800065204865696768742000426564204C658C
:100A900076656C696E6720004661696C65642074D8
:100AA0006F20656E61626C6520426564204C6576DE
:100AB000656C696E670A004D657368204265642045
:100AC0004C6576656C20646174613A0A00496E7603
:100AD000616C6964206D6573682E0A004D657368EA
:100AE00020706F696E74206F7574206F662072615C
:100AF0006E67650A004D34323120696E636F727221
:100B000065637420706172616D65746572207573C0
:100B10006167650A00546F6F206661722066726FAC
:100B20006D207265666572656E636520706F696EB3
:100B3000740A00454550524F4D204F4B0A002E0A73
:100B4000002028302D313029002076616C75652019
:100B50006F7574206F662072616E67650041647600
:100B6000616E6365204B3D006F6B004361703A001E
:100B700023646566696E652044454641554C545F63
:100B80000000626564004B6420004B6920004B70DC
:100B90002000504944204175746F74756E6520665D
:100BA000696E697368656421205075742074686586
:100BB000206C617374204B702C204B6920616E6433
:100BC000204B6420636F6E7374616E747320667261
:100BD0006F6D2062656C6F7720696E746F20436F54
:100BE0006E66696775726174696F6E2E680A00506F
:100BF0004944204175746F74756E65206661696C37
:100C00006564212074696D656F75740A00504944EC
:100C1000204175746F74756E65206661696C6564DA
:100C2000212054656D706572617475726520746FF2
:100C30006F20686967680A00204B643A2000204BE7
:100C4000693A2000204B703A200020436C61737396
:100C5000696320504944200A00204E6F206F76655A
:100C60007273686F6F740A002054753A2000204B2D
:100C7000753A2000206D61783A2000206D696E3A47
:100C8000200020643A200020626961733A200050FD
:100C90004944204175746F74756E65207374617278
:100CA000740A00504944204175746F74756E652054
:100CB0006661696C6564212054656D70657261744C
:100CC00075726520746F6F20686967680A00504903
:100CD00044204175746F74756E65206661696C653A
:100CE00064212042616420686561746572206964D2
:100CF0000A006F70656E005452494747455245449B
:100D0000003A20007A5F6D696E00795F6D696E0050
:100D1000785F6D696E005265706F7274696E6720DE
:100D2000656E6473746F70207374617475730A00F8
:100D300020746F6F206C6F6E6720657874727573A6
:100D4000696F6E2070726576656E7465640A002046
:100D5000636F6C6420657874727573696F6E207050
:100D6000726576656E7465640A00000000C000005C
:100D7000A0C0000000005761726E696E673A20489B
:100D80006F6D696E672042756D7020446976697376
:100D90006F72203C20310A000202040000974300D9
:100DA0008098430000C8430000A0400000A040001D
:100DB000000040000000010000000100008000551C
:100DC0005555000000400033333300AAAA2A0049D9
:100DD00092240000002000C7711C0099991900D1CD
:100DE000451700555515003BB11300244912001159
:100DF000111100000010000F0F0F00E3380E004328
:100E0000790D00CCCC0C00C3300C00E8A20B0064C0
:100E1000210B00AAAA0A00703D0A009DD8090042D1
:100E20007B090092240900DCD308008888080010A0
:100E300042080000000800F0C1070087870700751E
:100E4000500700711C07003EEB0600A1BC060069BC
:100E500090060066660600703E06006118060017E0
:100E6000F4050074D105005BB00500B29005006286
:100E70007205005555050078390500B81E050005B6
:100E80000505004EEC040087D40400A1BD040090C9
:100E9000A7040049920400C17D0400EE690400C764
:100EA000560400444404005C32040008210400415C
:100EB000100400000004003FF00300F8E0030026E7
:100EC000D20300C3C30300CCB503003AA803000A51
:100ED0009B0300388E0300C08103009F750300D080
:100EE000690300505E03001D530300344803009162
:100EF0003D03003333030016290300381F03009716
:100F0000150300300C0300030303000BFA02004931
:100F1000F10200BAE802005CE002002DD802002DC8
:100F2000D0020059C80200B0C0020031B90200DA94
:100F3000B10200AAAA0200A0A30200BC9C0200FA0F
:100F40009502005C8F0200DF880200828202004569
:100F50007C02002776020027700200436A02007CB0
:100F6000640200D05E02003F590200C8530200FF35
:100F7000FDFCFAF8F6F4F2F0EEECEAE9E7E5E3E17D
:100F8000E0DEDCDAD9D7D5D4D2D0CFCDCBCAC8C732
:100F9000C5C3C2C0BFBDBCBAB9B7B6B4B3B2B0AFB7
:100FA000ADACAAA9A8A6A5A4A2A1A09E9D9C9A9911
:100FB000989795949392908F8E8D8B8A8988878647
:100FC00084838281807F7E7D7B7A79787776757461
:100FD000737271706F6E6D6C6B6A69686766656459
:100FE000636261605F5E5D5C5B5A59585857565545
:100FF0005453525150504F4E4D4C4B4A4A4948471A
:101000004646454443424241403F3E3E3D3C3B3BD9
:101010003A39383837363535343332323130302F8B
:101020002E2E2D2C2B2B2A2929282727262525242F
:10103000232322212120201F1E1E1D1C1C1B1B1AC6
:101040001919181817161615151413131212111151
:10105000100F0F0E0E0D0D0C0C0B0A0A09090808D3
:101060000707060605050404030302020100000049
:10107000009643000096430000C843000000C000F3
:1010800000A0C000000000290A0020627974657386
:101090003B20637263200053657474696E6773202C
:1010A00053746F72656420280048617264636F64D2
:1010B00065642044656661756C7420536574746959
:1010C0006E6773204C6F616465640A003B200020EA
:1010D000204D393030204B004C696E6561722041E3
:1010E0006476616E63653A00204400204900202048
:1010F0004D33303420500020440020490020204D42
:101100003330312050005049442073657474696E47
:1011100067733A002020473239205334205A002088
:101120004A00202047323920533320490020204DE7
:101130003432302053004D65736820426564204C82
:101140006576656C696E673A0020204D3230362036
:101150005800486F6D65206F66667365743A0020AD
:101160004A0020530020204D323035204200416497
:1011700076616E6365643A20423C6D696E5F7365AB
:10118000676D656E745F74696D655F75733E20533E
:101190003C6D696E5F66656564726174653E20547E
:1011A0003C6D696E5F74726176656C5F66656564DF
:1011B000726174653E204A3C6A756E635F64657651
:1011C0003E0020540020520020204D323034205068
:1011D00000416363656C65726174696F6E20287588
:1011E0006E6974732F7332293A20503C7072696EA5
:1011F000745F616363656C3E20523C72657472611A
:1012000063745F616363656C3E20543C7472617605
:10121000656C5F616363656C3E0020204D32303148
:101220002058004D6178696D756D20416363656C70
:1012300065726174696F6E2028756E6974732F739F
:1012400032293A0020204D3230332058004D617849
:10125000696D756D206665656472617465732028BB
:10126000756E6974732F73293A0053746570732017
:1012700070657220756E69743A0020440020204D1C
:101280003230302053002044697361626C65640A17
:101290000046696C616D656E742073657474696E67
:1012A00067733A0020286D6D2900202047323120D5
:1012B0002020203B20556E69747320696E206D6D6F
:1012C00000454550524F4D206461746173697A65E1
:1012D000206572726F722E0A00290A0020627974EA
:1012E00065733B2063726320002073746F726564C2
:1012F0002073657474696E677320726574726965B2
:10130000766564202800202863616C63756C6174C5
:10131000656429210A0020213D2000454550524F97
:101320004D20435243206D69736D61746368202DB5
:10133000202873746F7265642920002053697A65D0
:101340003A2000496E6465783A2000000096430018
:101350000096430000484200002042F43DA042F4C1
:101360003DA04296E3C7430080D943D0070000D098
:101370000700006400000010270000204D61726C1F
:10138000696E3D563833290A00454550524F4D206D
:1013900076657273696F6E206D69736D61746368D1
:1013A0002028454550524F4D3D0024F4D43050C3C1
:1013B0008E20C2A24017828B7011127A910D816C1F
:1013C000D90AA861E108C7586607615143061E4B58
:1013D0005D05C145A7041A411104093D98037139FF
:1013E00031034036DB0265339102D4305402802E43
:1013F0001D02632CEE01752AC501B028A00110273B
:1014000081018F2564012B244B01E0223401AC21A2
:101410001F018D200D01801FFC00841EED00971D13
:10142000DF00B81CD200E61BC600201BBC00641AFB
:10143000B200B219A8000A19A0006A189900D117C1
:10144000910040178B00B516840031167E00B3154D
:1014500079003A157300C7146F0058146A00EE1330
:1014600066008813630025135E00C7125B006C12D0
:10147000570015125400C111510070114F00211175
:101480004B00D61049008D10470046104400021052
:101490004200C00F4000800F3E00420F3C00060F8C
:1014A0003B00CB0E3800930E37005C0E3500270E44
:1014B0003400F30D3200C10D3100900D3000600D8D
:1014C0002E00320D2D00050D2C00D90C2B00AE0C7A
:1014D0002900850C29005C0C2700350C27000E0C18
:1014E0002600E80B2400C40B2400A00B23007D0B76
:1014F00023005A0B2100390B2100180B2000F80A99
:101500001F00D90A1E00BB0A1E009D0A1D00800A8A
:101510001D00630A1C00470A1B002C0A1B00110A4D
:101520001A00F7091A00DD091900C4091900AB09EE
:101530001900920917007B091800630917004C096C
:10154000160036091600200916000A091500F508CC
:101550001500E0081400CC081400B8081400A40812
:101560001400900813007D0812006B08130058083F
:101570001200460812003408110023081100120856
:10158000110001081100F0071000E0071000D0075B
:101590001000C0071000B0070F00A107100091074E
:1015A0000E0083070F0074070F0065070E00570732
:1015B0000E0049070E003B070D002E070E00200706
:1015C0000D0013070D0006070D00F9060C00ED06CF
:1015D0000D00E0060C00D4060C00C8060C00BC068A
:1015E0000C00B0060C00A4060B0099060C008D063A
:1015F0000B0082060B0077060B006C060B006106E1
:101600000A0057060B004C060A0042060A0038067C
:101610000A002E060A0024060A001A060A0010060E
:10162000090007060A00FD050900F4050900EB059D
:101630000900E2050900D9050900D0050900C70520
:101640000900BE050900B5050800AD050800A5059F
:1016500009009C050800940508008C050800840515
:1016600008007C050800740508006C050700650586
:1016700008005D050700560508004E0507004705F0
:1016800007004005080038050700310507002A0556
:101690000700230507001C050600160507000F05B7
:1016A00007000805060002050700FB040600F50414
:1016B0000700EE040600E8040600E2040700DB046D
:1016C0000600D5040600CF040600C9040600C304C2
:1016D0000600BD040600B7040600B1040500AC0412
:1016E0000600A6040600A00405009B04060095045D
:1016F0000500900406008A040500850405008004A6
:1017000006007A04050075040500700405006B04EA
:10171000050066040500610405005C04050057042B
:101720000500520405004D0405004804050043046B
:1017300005003E0404003A040500350405003004A9
:1017400004002C04050027040400230405001E04E3
:1017500004001A04040016040500110404000D041A
:101760000400090405000404040000040400FC0350
:101770000400F8030400F4030400F0030400EC0385
:101780000400E8030400E4030400E0030400DC03B5
:101790000400D8030400D4030400D0030400CC03E5
:1017A0000400C8030300C503030024F404D9201B6C
:1017B000C40C5C0E9804C4095F0265077101F4054E
:1017C000F900FB04B30048048700C1036900580313
:1017D000550003034500BE023A0084023100530263
:1017E0002A002902250004022000E4011C00C8018F
:1017F0001900AF0117009801140084011300710152
:1018000010006101100051010E0043010D0036016E
:101810000B002B010B0020010B00150109000C012E
:10182000090003010800FB000800F3000800EB00BA
:101830000700E4000600DE000600D8000600D20023
:101840000600CC000500C7000500C2000500BD0071
:101850000400B9000400B5000400B1000400AD00AC
:101860000400A9000400A5000300A20003009F00DB
:1018700004009B0003009800030095000200930001
:101880000300900003008D0002008B00030088001D
:1018900002008600020084000300810002007F0035
:1018A00002007D0002007B00020079000200770048
:1018B0000100760002007400020072000100710055
:1018C00002006F0002006D0001006C0002006A005F
:1018D0000100690002006700010066000100650068
:1018E000010064000200620001006100010060006C
:1018F00001005F0002005D0001005C0001005B0070
:1019000001005A0001005900010058000100570071
:101910000100560001005500010054000100530071
:10192000000053000100520001005100010050006E
:1019300001004F0001004E0000004E0001004D006C
:1019400001004C0001004B0000004B0001004A0068
:101950000100490001004800000048000100470064
:10196000010046000000460001004500000045005F
:101970000100440001004300000043000100420058
:101980000000420001004100000041000100400051
:1019900001003F0000003F0001003E0000003E004B
:1019A00001003D0000003D0001003C0000003C0043
:1019B00000003C0001003B0000003B0001003A0039
:1019C00000003A0001003900000039000100380031
:1019D0000000380000003800010037000000370028
:1019E000010036000000360000003600010035001E
:1019F0000000350000003500010034000000340014
:101A00000000340001003300000033000000330008
:101A100001003200000032000000320001003100FD
:101A200000003100000031000100300000003000F3
:101A30000000300001002F0000002F0000002F00E8
:101A400000002F0001002E0000002E0000002E00DC
:101A500001002D0000002D0000002D0000002D00D1
:101A600001002C0000002C0000002C0000002C00C5
:101A700001002B0000002B0000002B0000002B00B9
:101A800001002A0000002A0000002A0000002A00AD
:101A900001002900000029000000290000002900A1
:101AA0000000290001002800000028000000280094
:101AB0000000280000002800010027000000270087
:101AC000000027000000270000002700010026007A
:101AD000000026000000260000002600000026006E
:101AE0000100250000002500000025000000250061
:101AF0000000250000002500010024000000240053
:101B00000000240000002400000024000100230045
:101B10000000230000002300000023000000230039
:101B2000000023000000230001002200000022002A
:101B3000000022000000220000002200000022001D
:101B40000100210000002100000021000000210010
:101B50000000210000002100000021000100200001
:101B600000002000000020000000200000002000F5
:101B700000002000000020000000200001001F00E5
:101B800000001F0000001F0000001F0000001F00D9
:101B900000001F0000001F0001001E0000001E00CA
:101BA00000001E0000001E000000232C0000B822D0
:101BB0000000561800003A0F0000B8080000B104F9
:101BC0000000710200003E01000020436F756E743A
:101BD00020583A0000626564002C207379737465A4
:101BE0006D2073746F707065642120486561746541
:101BF000725F49443A200048656174696E67204607
:101C000061696C65640048656174696E672066612E
:101C1000696C6564004572723A204D415854454DD7
:101C200050004D415854454D5020747269676765A6
:101C3000726564004572723A204D494E54454D50CC
:101C4000004D494E54454D50207472696767657266
:101C5000656400544845524D414C2052554E415701
:101C6000415900546865726D616C2052756E6177E0
:101C7000617900202F002042403A0020403A0020A5
:101C8000573A0020573A00496E76616C69642065C6
:101C9000787472756465720A0070012C01900127D6
:101CA00001B0012201C0011D01F001180110021351
:101CB0000130020E016002090190020401C002FF1E
:101CC000000003FA004003F5008003F000D003EBAE
:101CD000002004E6007004E100E004DC004005D7C9
:101CE00000C005D2004006CD00D006C8008007C362
:101CF000003008BE00F008B900C009B400B00AAF57
:101D000000B00BAA00D00CA500000EA000500F9B45
:101D100000C01096005012910000148C00C015876E
:101D200000B0178200B0197D00D01B7800001E7330
:101D30000040206E0090226900F024640040275F7C
:101D40000090295A00E02B5500102E500020304BF7
:101D50000010324600E033410090353C0010373728
:101D60000070383200A0392D00B03A2800A03B2383
:101D700000603C1E00103D1900903D1400103E0F05
:101D800000703E0A00C03E0500003F0000403FFBDF
:101D9000FF803FF6FFC03FF1FF2020506C616E6E68
:101DA000657242756666657242797465733A2000A1
:101DB0002046726565204D656D6F72793A2000434B
:101DC0006F6D70696C65643A204A756E202035200D
:101DD000323032310A00204C6173742055706461D6
:101DE0007465643A20323032312D30352D31352052
:101DF0007C20417574686F723A202845746865725A
:101E000065616C2050726F6A656374205349444564
:101E100057494E44455220583120572F4D414E5579
:101E2000414C204D455348290A00322E302E382E81
:101E3000310A004D61726C696E0020536F667477D1
:101E40006172652052657365740A0020576174637E
:101E500068646F672052657365740A002042726F70
:101E6000776E206F75742052657365740A00204583
:101E7000787465726E616C2052657365740A0050E7
:101E80006F77657255700A0073746172740A00206E
:101E90005A3A0020593A0020583A00656E6473742B
:101EA0006F7073206869743A2000000021002400DC
:101EB00027002A002D00300033000101000004013A
:101EC00007010A0100002200250028002B002E0037
:101ED0003100340002010000050108010B01050575
:101EE0000505070508080808020202020A0A080890
:101EF00004040404010101010101010103030303BE
:101F000003030303040707070C0C0C0C0C0C0C0C4C
:101F10000202020206060606060606060B0B0B0B5D
:101F20000B0B0B0B01021020200808102040102082
:101F3000408002010201080402010102040810208D
:101F4000408080402010080402018004020180408B
:101F500020100804020108040201010204081020F4
:101F60004080010204081020408000000A0B020992
:101F70000C0D0E0807030401000000000000000023
:101F80000000000000000000000000000000000051
:101F9000000000000000121110000000000000000E
:101FA0000000000000000000000000000000000031
:101FB000486F6D696E67204661696C656400FFFF5C
:101FC000FFDB0FC93F45BCDA3F8FB30240FCF0276F
:101FD0004056946140FE4B9B4084A5D840E02318B6
:101FE00041346A5641E859974164DBD5416E271761
:101FF00042B4B75542CE1A9742C8AED542B5885AB8
:1020000043D40684BFA65FA7BF7443E0BF10B11AD4
:10201000C01C2C58C0E8F697C0B849D6C04E4E1721
:10202000C124D355C1802497C1A0B5D5C1121A17B8
:10203000C244AE55C2781797C26CACD5C267885AF5
:10204000C320746F6F206C6F6E6720657874727533
:1020500073696F6E2070726576656E7465640A00D0
:1020600020636F6C6420657874727573696F6E207D
:1020700070726576656E7465640A00486F6D6520E0
:1020800025732573257320466972737400220A0034
:10209000556E6B6E6F776E20636F6D6D616E643A17
:1020A000202200204500205A00205900204D3932BE
:1020B0002058006F6B0A00526573656E643A200009
:1020C00020453A00205A3A0020593A00583A004533
:1020D00072726F722077726974696E6720746F20F4
:1020E000454550524F4D210A005072696E74657219
:1020F0002068616C7465642E206B696C6C282920E3
:1021000063616C6C6564210A0000619611241FBE36
:10211000CFEFD1E2DEBFCDBF00E00CBF12E0A0E008
:10212000B2E0EAE4FDE401E00BBF02C007900D92CB
:10213000A03DB107D9F72EE0A0EDB2E001C01D929D
:10214000A039B207E1F710E1C6E8D0E100E006C02F
:1021500021970109802FFE010E9489A3C538D1076C
:1021600080E00807A9F70E94D7960C94A3A60C94C8
:102170000000FC0120818091320E9091330E922755
:1021800028E0AC01880F991F57FD07C02150C9F7FF
:102190009093330E8093320E0895F1E28F27F0E191
:1021A0009F27F4CF282F30E0F901E659F04E9491A3
:1021B000F901EC5DF04E44912252314EF901249127
:1021C000222309F435C0992311F191509231F8F48A
:1021D000E92FF0E08827E051FF4E8F4F0C9489A340
:1021E00021112511021119111D11071128112E118C
:1021F000321138113C11401146114A1107114E118C
:1022000054115811809180008F7780938000E22FC5
:10221000F0E0EE0FFF1FEC53F14EA591B4918FB794
:10222000F894EC91611148C040954E234C938FBFB8
:102230000895809180008F7DE8CF80918000877F16
:10224000E4CF84B58F7784BDE2CF84B58F7DFBCF9B
:102250008091B0008F778093B000D9CF8091B0008B
:102260008F7DF9CF809190008F7780939000CFCFB2
:10227000809190008F7DF9CF80919000877FF5CF7E
:102280008091A0008F778093A000C1CF8091A000A3
:102290008F7DF9CF8091A000877FF5CF80912001BD
:1022A0008F7780932001B3CF809120018F7DF9CF6C
:1022B00080912001877FF5CF4E2BB8CF582F282F44
:1022C00030E0F901EC5DF04E4491F901E252F14E3B
:1022D0008491882399F090E0880F991FFC01E655BE
:1022E000F14EA591B491FC01EC53F14E859194917E
:1022F0008FB7F894EC91E42BEC938FBF61157105C7
:1023000019F460E0852F4ECF6F3F710511F461E045
:10231000F9CFF901E659F04EE491E150E23108F0CD
:10232000B0C0F0E08827E856FE4E8F4F0C9489A38A
:10233000AA11AF11B411BE11C8114112D211DA1194
:10234000E211EC11F61100120F12191241122312B0
:102350002D12371284B5806884BD67BD089584B599
:10236000806284BD68BD08958091800080688093FC
:1023700080007093890060938800089580918000A8
:1023800080628093800070938B0060938A00089530
:102390008091800088608093800070938D006093AE
:1023A0008C0008958091B00080688093B0006093A5
:1023B000B30008958091B00080628093B000609374
:1023C000B40008958091900080688093900070938D
:1023D00099006093980008958091900080628093A6
:1023E000900070939B0060939A00089580919000F4
:1023F00088608093900070939D0060939C00089586
:102400008091A00080688093A0008091A0008F7BC5
:102410008093A0007093A9006093A8000895809114
:10242000A00080628093A0007093AB006093AA002C
:1024300008958091A00088608093A0007093AD0003
:102440006093AC0008958091200180688093200102
:102450007093290160932801089580912001806282
:102460008093200170932B0160932A01089580913D
:10247000200188608093200170932D0160932C01CE
:102480000895603871050CF042CF3BCF3FB7F89408
:102490008091640690916506A0916606B0916706EA
:1024A00026B5A89B05C02F3F19F00196A11DB11DAF
:1024B0003FBFBA2FA92F982F8827BC01CD01620FEB
:1024C000711D811D911D42E0660F771F881F991FA6
:1024D0004A95D1F708958F929F92AF92BF92CF9273
:1024E000DF92EF92FF926B017C01D0DF4B015C0128
:1024F000C114D104E104F104B1F0C8DF681979090D
:102500008A099B09683E73408105910588F321E0A3
:10251000C21AD108E108F10888EE880E83E0981EFF
:10252000A11CB11CE5CFFF90EF90DF90CF90BF9042
:10253000AF909F908F9008952FB7F89460916006A8
:102540007091610680916206909163062FBF089595
:1025500061157105C1F002966450710986179707DD
:1025600094F490932D0E80932C0EE6DF605E714BF9
:102570008F4F9F4F60932E0E70932F0E8093300ECF
:102580009093310E089510922E0E10922F0E1092ED
:10259000300E1092310E08958F929F92AF92BF929B
:1025A000CF92DF92EF92FF920F931F93CF93DF931F
:1025B000B0E4A0E06A2F70E0AB014B0F511D5595C0
:1025C0004795411119C0EBE9FCE165917491072E23
:1025D000000C880B990B0E94379FDF91CF911F91C0
:1025E0000F91FF90EF90DF90CF90BF90AF909F90B2
:1025F0008F900895B42FE0CFA41711F0B41303C047
:10260000E7E9FDE1E2CF9A0121503109220F331FA2
:10261000220F331FF901E756F34EE590F490F901CC
:10262000E356F34EC591D4918E159F051CF3A42F4C
:10263000C817D9070CF4BECFF901E556F34E059142
:102640001491F901E156F34EC590D490BC016E1976
:102650007F09072E000C880B990B0E94379F4B01B6
:102660005C01B601601B710B072E000C880B990BE7
:102670000E94379F9B01AC01C501B4010E94969F47
:102680004B015C01BE016E197F09072E000C880BFF
:10269000990B0E94379F9B01AC01C501B4010E94B8
:1026A0008CA46B017C01B801110F880B990B0E945F
:1026B000379F9B01AC01C701B6010E94B0A38DCF2B
:1026C0008F929F92AF92BF92CF92DF92EF92FF9242
:1026D0000F931F93CF93DF93EC018A01072E000C19
:1026E000880B990B0E94379F4B015C01C880D980F1
:1026F000EA80FB80A70196010E94D6A518162CF44B
:1027000088829982AA82BB8210C0B801110F880BFF
:10271000990B0E94379F4B015C01AC019B01C701E3
:10272000B6010E94D6A518165CF3DF91CF911F91D8
:102730000F91FF90EF90DF90CF90BF90AF909F9060
:102740008F900895CF93DF93C4EDDBE120E030E07C
:1027500048E452E460915004709151048091520415
:10276000909153040E94D6A587FF17C080E0FE0118
:10277000C4912091020190E0B0E0A0E004C0B695C1
:10278000A79597958795CA95D2F780FD14C02071BB
:1027900020930001DF91CF910895FE01249181E003
:1027A00090E0A0E0B0E004C0880F991FAA1FBB1FF3
:1027B0002A95D2F7DCCF2095EACF809110048823A8
:1027C00039F060916F0E7091700E8091710E0895C6
:1027D00060E070E080E00895BC012091F103309149
:1027E000F2034091F1035091F2032417350731F4BD
:1027F00081E02617370709F080E008959A01F1CFAC
:10280000EF92FF920F931F93E092DD02F092DE02AF
:102810000093DF021093E0026093E1027093E20202
:102820008093E3029FEFFF27621B730B840B30F44E
:10283000809570956195790B890B99279093DC02AF
:10284000A6E06A9F0092D002512DEE277A9F500D8C
:10285000E11D8A9FE00D5093D102E093D202AFE0D8
:102860006A9F0092D402512DEE277A9F500DE11DF0
:102870008A9FE00D5093D502E093D602AAE06A9FAA
:102880000092D802512DEE277A9F500DE11D8A9FAC
:10289000E00D5093D902E093DA021F910F91FF905F
:1028A000EF9008958091850480FF1EC089988FEF76
:1028B0008093A10380918504869580FF18C08F982E
:1028C0008FEF8093A203809185048695869580FF83
:1028D00011C080910B018095827080930901439A09
:1028E0008FEF8093A3030895899A81E0E1CF8F9AB7
:1028F00081E0E7CF80910B018270809309014398BA
:1029000081E0EFCFCF93DF93EC018B3E910514F084
:10291000CBEED0E0D0935504C093540460915004A2
:102920007091510480915204909153040E94F4A438
:10293000CB01BE01DF91CF910BCECF93DF9380917E
:102940006103811119C0C0911B02D0911C02219713
:1029500020E030E040E05FE360915004709151046A
:1029600080915204909153040E94B0A30E94F4A459
:1029700021E06C177D070CF020E0822FDF91CF91D2
:1029800008959F92AF92BF92CF92DF92EF92FF9203
:102990000F931F93CF93DF9300D01F921F92CDB759
:1029A000DEB7EFE6FFE00027BB27462F572FA82F03
:1029B000AA2341F4A52F542FB85FAA2319F4A52FF9
:1029C0005527B85FA03138F45295A295452F4F7026
:1029D000507FA42BBC5FA03428F4550FAA1F550FBD
:1029E000AA1FBE5FA03818F4550FAA1FB395550F44
:1029F000AA1FEA0FF01F449151E0AA27B85079F1BD
:102A0000C0F0B0FF02C0440F551FB1FF04C0440F17
:102A1000551F440F551FB2FF06C052954295142F03
:102A20001F70407F512BB3FF1AC0A52F542F44278E
:102A300016C0B195B0FF02C055954795B1FF04C0CF
:102A40005595479555954795B2FF05C05295407FDE
:102A50004295452B5F70B3FF02C0452F5527DD24FB
:102A6000CC24BB24B2E0649FD018C108B00AB00BDC
:102A7000749FC018B108B00B849FB018B109659F4E
:102A8000C018B108B00B759FB018B109859FB01977
:102A90006A9FB018B1097A9FB0194D9DA12C992455
:102AA0003327992722275D9DA00C911C301F901F72
:102AB000201FAD9D900C311D901F201F4C9DA00C20
:102AC000911C301F901F201F5C9D900C311D901F8A
:102AD000201FAC9D300D911D201F4B9D900C311D72
:102AE000901F201F5B9D300D911D201FAB9D900DF1
:102AF000211D4B9F300D911D201F5B9F900D211DAF
:102B0000AB9F200DB1E0BB24CC24DD24639FD01803
:102B1000C108B00AB00B739FC018B108B00B839FF7
:102B2000B018B109699FC018B108B00B799FB018EF
:102B3000B109899FB019629FB018B109729FB0198D
:102B4000D61AC70AB80A20F0B1E03B0F901F201F29
:102B50001124792F632F90E0822F0F900F900F9008
:102B60000F900F90DF91CF911F910F91FF90EF90F9
:102B7000DF90CF90BF90AF909F900895CF92DF925B
:102B8000EF92FF9280917203882309F457C0C0909E
:102B90006E03D0906F03E0907003F090710320E01B
:102BA00030E0A901C701B6010E94319F882309F4D2
:102BB00045C020E030E040E05FE3C701B6010E947D
:102BC000969F9B01AC010E94969F2BED3FE049E44C
:102BD00050E40E94969F9B01AC0160E070E080E8A9
:102BE0009FE30E948CA46B017C01C0925D03D09294
:102BF0005E03E0925F03F0926003609119027091AE
:102C00001A02072E000C880B990B0E94379F2AE0AE
:102C100037ED43E25CE30E94969FA70196010E9474
:102C2000969F609358027093590280935A02909332
:102C30005B02FF90EF90DF90CF900895C12CD12CD4
:102C400080E8E82E8FE3F82ED0CF8091490E909146
:102C50004A0E891B8F7019F490E080E008959091DE
:102C6000460E992351F0833030F48FEF890F19F01D
:102C70008093460EF1CF1092460E80914A0E22E6C6
:102C8000829FC00111248354994FFC01208120FDB3
:102C9000E3CF20914A0E2F5F2F702093470E309183
:102CA0004A0E2091480E321304C02091470E209303
:102CB000480E08952F923F924F925F926F927F92AB
:102CC0008F929F92AF92BF92CF92DF92EF92FF923C
:102CD0000F931F93CF93DF93CDB7DEB762970FB6F5
:102CE000F894DEBF0FBECDBF788B6F87DC018D906F
:102CF0009D90AD90BC90139714962D913D914D9160
:102D00005C9117972D833E834F83588720E030E0F6
:102D100040EF51E4C501B4010E94AFA329E838E8AF
:102D200048E05CE30E94969F0E94F4A416160CF003
:102D300024C161E0E62E660FFF08F701EE0FFF1FCA
:102D4000EE0FFF1FE258F14F408051806280738088
:102D500087010F5F1F4F20E030E040EF51E46D81AD
:102D60007E818F8198850E94AFA329E838E848E0EA
:102D70005CE30E94969F0E94F4A416160CF001C119
:102D800061E0E62F660FFF0BFA8BE98BEE0FFF1F5A
:102D9000EE0FFF1FE258F14F2081318142815381B4
:102DA00029833A834B835C8329883A883FEF231A2F
:102DB000330AB701660F771FAB014E0D5F1D5A87AF
:102DC0004987FA0189899A89E80FF91FEE0FFF1FD9
:102DD000EE0FFF1FED58FC4FC080D180E280F380E2
:102DE000F801EE0FFF1FEE0FFF1FE258F14FA30196
:102DF000920160817181828193810E94AFA36B8770
:102E00007C878D879E87A3019201C501B4010E9432
:102E1000AFA32B013C01C801880F991F080F191F90
:102E2000A989BA89A00FB11FAA0FBB1FAA0FBB1F88
:102E3000AD58BC4FA70196016D917D918D919C91EC
:102E40000E94AFA32B853C854D855E850E948CA496
:102E5000A30192010E94969FA70196010E94B0A330
:102E60006B017C01E985FA85E20DF31DEE0FFF1F72
:102E7000EE0FFF1FED58FC4F80809180A280B38041
:102E8000020D131DF801EE0FFF1FEE0FFF1FED588F
:102E9000FC4FA501940160817181828193810E9420
:102EA000AFA32B853C854D855E850E948CA4A30134
:102EB00092010E94969FA50194010E94B0A3A701D0
:102EC00096010E94AFA34B015C01F101EE0FFF1FC1
:102ED000EE0FFF1FE258F14F29813A814B815C814F
:102EE00060817181828193810E94AFA39B01AC01BB
:102EF000C501B4010E948CA44B015C0129813A8177
:102F00004B815C816D817E818F8198850E94AFA30A
:102F10009B01AC01C501B4010E94969FA7019601D7
:102F20000E94B0A3EF85F8892081318142815381CD
:102F30000E94969F209197033091980340919903A6
:102F400050919A030E94B0A362960FB6F894DEBF28
:102F50000FBECDBFDF91CF911F910F91FF90EF90EA
:102F6000DF90CF90BF90AF909F908F907F906F90A9
:102F70005F904F903F902F90089567FFDBCE60E009
:102F8000D9CE67FFFECE60E0FCCE90916F0081E06D
:102F900091FD02C080E0089590916F009D7F909315
:102FA0006F000895EFE6F0E08081826080830895ED
:102FB000CF93C82FEADF94E0C99F90011124F90153
:102FC000EC50FC4F20503C4FD9014D915D916D91DB
:102FD0007C91408351836283738391E09093F303E8
:102FE000882311F0CF91DECFCF910895CF92DF9259
:102FF000EF92FF92CF93DF93C82FC7DF94E0C99F72
:10300000E0011124FE01E050FC4FC080D180E2803D
:10301000F3808111C7DFC555D94FC701B6010E94A2
:10302000379F288139814A815B810E94969FDF9179
:10303000CF91FF90EF90DF90CF900895CF92DF92E5
:10304000EF92FF92CF93DF93C82F9FDF94E0C99F49
:10305000E0011124FE01EC50FC4FC080D180E280E1
:10306000F38081119FDFC555D94FC701B6010E947A
:10307000379F288139814A815B810E94969FDF9129
:10308000CF91FF90EF90DF90CF9008958F929F9215
:10309000AF92BF92CF92DF92EF92FF92CF93DF93E6
:1030A000EC018090310D9090320DA090330DB090D6
:1030B000340D20E030E0A901C501B4010E94319F28
:1030C000882309F452C0C880D980EA80FB80A70118
:1030D0009601C501B4010E94319F18160CF04AC038
:1030E0002091280D3091290D40912A0D50912B0DE2
:1030F000C701B6010E94319F882321F1C092280D9B
:10310000D092290DE0922A0DF0922B0D20912C0DDA
:1031100030912D0D40912E0D50912F0DC701B6010C
:103120000E94969F9B01AC0160E070E080E89FE305
:103130000E94AFA36093150270931602809317024A
:1031400090931802609115027091160280911702F7
:1031500090911802DF91CF91FF90EF90DF90CF9088
:10316000BF90AF909F908F90089560E070E080E8EE
:103170009FE3F0CF60E070E0CB01ECCF0F931F93A3
:10318000CF93DF9300D01F92CDB7DEB78C010896A6
:103190007DDF69837A838B839C83BE016F5F7F4F62
:1031A000C80188DD9B01AC01F801608571858285CD
:1031B00093850E94AFA3F801608771878287938708
:1031C0000F900F900F900F90DF91CF911F910F9163
:1031D00008950F931F93CF93DF9300D01F92CDB725
:1031E000DEB72091300D2223D1F08C0108964EDFFE
:1031F00069837A838B839C83BE016F5F7F4FC80195
:1032000059DD9B01AC01F80160857185828593854C
:103210000E94B0A3F80160877187828793870F901F
:103220000F900F900F90DF91CF911F910F91089504
:103230000F931F93E62FDC01FC910F2F10E030E07D
:1032400020E0062E04C036952795179507950A9419
:10325000D2F700FF1CC000915C0310E030E020E0DA
:1032600004C036952795179507956A95D2F700FF04
:103270000EC041E050E060E070E004C0440F551F14
:10328000661F771FEA95D2F740954F234C931F9105
:103290000F910895CF93DF9324E0829FC001112402
:1032A000EC01C25ED14FFC01E857FB4F825B9C4FA3
:1032B000DC012D913D914D915C9160817181828104
:1032C00093810E94B0A3688379838A839B83DF9173
:1032D000CF910895CF93DF931F92CDB7DEB7898347
:1032E00060E0CE010196A4DF61E0CE010196A0DF8F
:1032F00062E0CE0101969CDF89810F90DF91CF9132
:1033000008958F929F92AF92BF92CF92DF92EF92E9
:10331000FF92CF93DF9320911D02222309F45CC01A
:10332000EC0180915C03C82ED12CF12CE12C80FFA4
:1033300016C080902B0290902C02A0902D02B0908D
:103340002E02288139814A815B81C501B4010E9426
:10335000319F87FF04C088829982AA82BB82D701ED
:10336000C601B695A7959795879580FF16C0809062
:103370002F0290903002A0903102B09032022C8146
:103380003D814E815F81C501B4010E94319F87FF5D
:1033900004C08C829D82AE82BF8282E0F694E79464
:1033A000D794C7948A95D1F7C0FE16C0C090330257
:1033B000D0903402E0903502F090360228853985AD
:1033C0004A855B85C701B6010E94319F87FF04C013
:1033D000C886D986EA86FB86DF91CF91FF90EF9071
:1033E000DF90CF90BF90AF909F908F900895CF9235
:1033F000DF92EF92FF928091410365995FC08160F7
:1034000080934103909103018091410391FD58C045
:10341000826080934103809141034B9953C0846043
:1034200080934103C090E403C0FE0FC080918504E7
:1034300080FF0BC08091410380FF07C08091780618
:1034400081608093780680E0B3DDD12CF12CE12CF3
:10345000D701C601B695A7959795879580FF10C0AF
:1034600080918504869580FF0BC08091410381FF88
:1034700007C08091780682608093780681E098DDAD
:1034800082E0F694E794D794C7948A95D1F7C0FE6A
:103490001BC0809185048695869580FF15C080911C
:1034A000410382FF11C08091780684608093780682
:1034B00082E0FF90EF90DF90CF907ACD8E7FA0CF0B
:1034C0008D7FA7CF8B7FACCFFF90EF90DF90CF9019
:1034D00008950F931F9380914003813011F52CD8EC
:1034E000009138031091390320913A0330913B0346
:1034F000601B710B820B930B28EE33E040E050E031
:103500000E940BA3609134037091350380913603C0
:1035100090913703620F731F841F951F1F910F91A6
:10352000089560913C0370913D0380913E0390911A
:103530003F03D6CF10924003109238031092390304
:1035400010923A0310923B0310923C0310923D03F9
:1035500010923E0310923F031092340310923503F1
:103560001092360310923703089580914003813002
:10357000E1F08230C1F4ADDF609334037093350322
:10358000809336039093370381E0809340030E9439
:103590009C12609338037093390380933A0390939D
:1035A0003B0381E00895C6DFEFCF80E0089580916E
:1035B00040038150823070F4109240030E949C12AC
:1035C00060933C0370933D0380933E0390933F03CD
:1035D00081E0089580E0089590E080E00895282F2C
:1035E00090910F03833021F495FD0FC094FD0FC01F
:1035F000892F90E0B0E0A0E004C0B695A79597951C
:1036000087952A95D2F78170089581E0089580E02A
:103610000895CF93DF93C0917104D09172042097E5
:1036200029F160916D0470916E0480916F04909106
:1036300070040E94F4A46E5F7F4F24976C177D077F
:10364000ACF470933C0460933B040E949C12605A5B
:1036500075418F4F9F4F60933D0470933E0480935C
:103660003F0490934004DF91CF91089510923D0460
:1036700010923E0410923F0410924004F4CFCF9376
:10368000DF9310926304CCE4D4E0198618866C8131
:103690007D818E819F810E94F4A4CB0170E060E067
:1036A0000E94A8121A862C98C9E6D4E019861886BA
:1036B000B0DF1A8680910201807280930001DF9151
:1036C000CF9108952FEB280F2A3108F047C0E22F41
:1036D000F0E080912B0390912C03A0912D03B091E9
:1036E0002E0304C0B695A795979587952A95D2F78E
:1036F00080FD02C081700895EF5EFC4FE081EE23F3
:1037000041F18091DE0C9091DF0CE80FF92FF11D53
:10371000808190ED980F9A3030F08E3251F4818193
:1037200080538A3098F4F0930C03E0930B0381E00C
:1037300008958D3211F08B3249F4818190ED980F0C
:103740009A3088F38E3211F48281EACFF0E0E0E023
:10375000EACF10920C0310920B03E9CF80E008959A
:10376000B1DF882341F081E020910B0330910C03FD
:10377000232B09F480E00895CF93DF93EC01688157
:1037800070E085E00E945E11698170E084E00E9433
:103790005E116A8170E086E00E945E1188819981E5
:1037A000482F490F5527551F8A81840F952F911D4A
:1037B00021E0833091050CF420E02093100403975E
:1037C0006CF05EE0CF36D50749F088819981AA81F7
:1037D00080936F0E9093700EA093710EDF91CF9136
:1037E00008958F929F92AF92BF92CF92DF92EF9205
:1037F000FF92CF93DF9300D0CDB7DEB72FEF8417C2
:10380000950731F16A01052E000CEE08FF084C0106
:10381000092E000CAA08BB08681779072CF0CB0109
:10382000461757070CF4CA019C01990F440B550B1E
:10383000281939094A095B09AFEFB0E00E9449A392
:10384000A7019601281939094A095B090E942DA38D
:1038500080916404821751F0209364048FEF898370
:103860001A8220952B83CE01019686DF0F900F9050
:103870000F90DF91CF91FF90EF90DF90CF90BF90AE
:10388000AF909F908F9008958F929F92AF92BF922A
:10389000CF92DF92EF92FF92CF93DF9300D0CDB71C
:1038A000DEB72FEF8417950731F16A01052E000C62
:1038B000EE08FF084C01092E000CAA08BB08681787
:1038C00079072CF0CB01461757070CF4CA019C016D
:1038D000990F440B550B281939094A095B09AFEFB9
:1038E000B0E00E9449A3A7019601281939094A09A5
:1038F0005B090E942DA380916404821749F02093F4
:10390000640429831A828FEF8B83CE01019634DF02
:103910000F900F900F90DF91CF91FF90EF90DF907D
:10392000CF90BF90AF909F908F900895CF93DF93EB
:10393000C3E7D3E020E030E0A901688179818A8182
:103940009B810E94319F81111FC020E030E0A901BE
:103950006C817D818E819F810E94319F811114C075
:1039600020E030E0A901688579858A859B850E94E1
:10397000319F811109C02C9683E0C739D807D1F651
:1039800080E0DF91CF91089581E0FBCF129A0895F6
:103990005F9A809186048E7F809386048A9A8091B4
:1039A00086048D7F809386048091080180958170C4
:1039B00080930601479A809186048B7F80938604CA
:1039C000E5CF81E008959091C00095FFFCCF8093F2
:1039D000C6000895CF93DF93EC018991882311F0FD
:1039E000F2DFFBCF8DE0EFDF8AE0DF91CF91EBCF0D
:1039F000CF92DF92EF92FF920F931F93CF93DF93BB
:103A0000CDB7DEB7A0970FB6F894DEBF0FBECDBF1F
:103A1000442309F443C0611571058105910571F1D5
:103A200000E0C42ED12CF12CE12CA70196010E94BC
:103A30000BA311E0100FE1E0F0E0EC0FFD1FE00F31
:103A4000F11D07FDFA956083B901CA01012F6115C7
:103A500071058105910549F7115000F1E1E0F0E0B1
:103A6000EC0FFD1FE10FF11D17FDFA95908187E323
:103A70009A3008F480E3890FA6DFEECF80E3A096AA
:103A80000FB6F894DEBF0FBECDBFDF91CF911F916F
:103A90000F91FF90EF90DF90CF9095CFA0960FB64B
:103AA000F894DEBF0FBECDBFDF91CF911F910F9174
:103AB000FF90EF90DF90CF900895682F70E090E036
:103AC00080E04AE095CFBC0190E080E04AE090CFF2
:103AD0008F929F92AF92BF92CF92DF92EF92FF921E
:103AE000CF936B017C01B42E20E030E0A9010E944D
:103AF000319F87FF06C08DE266DFF7FAF094F7F892
:103B0000F094C0E060E070E080E09FE3CB1541F00E
:103B10002DEC3CEC4CEC5DE30E94969FCF5FF6CF22
:103B2000A70196010E94B0A36B017C010E94F9A439
:103B30004B015C014AE05CDFCC2369F1C501B401B3
:103B40000E94359F9B01AC01C701B6010E94AFA343
:103B50006B017C018EE237DFC150E8F020E030E0FD
:103B600040E251E4C701B6010E94969F6B017C01BF
:103B70000E94F9A44B015C014AE03ADFC501B4019F
:103B80000E94359F9B01AC01C701B6010E94AFA303
:103B90006B017C01E1CFCF91FF90EF90DF90CF9050
:103BA000BF90AF909F908F900895CF92DF92EF9249
:103BB000FF92CF936B017C01C42F4A3061F4F7FE72
:103BC0000AC0F094E094D094C094C11CD11CE11CB4
:103BD000F11C8DE2F8DE4C2FC701B601CF91FF90AA
:103BE000EF90DF90CF9004CFBC01990F880B990B19
:103BF0004AE0DBCFCF93DF93EC018991882311F06A
:103C0000E2DEFBCFDF91CF910895CF93DF93EC01FC
:103C1000FE0184912196882311F0D5DEF9CFDF9142
:103C2000CF910895EF92FF920F931F93CF937C0152
:103C30008B01C2E44F3F09F0C4E580E2C4DE8C2F63
:103C4000C2DE8AE3C0DEF7016081718182819381E7
:103C500042E03EDF83E79CE1D8DFF80160817181BB
:103C60008281938142E034DF62E070E080E090E0A6
:103C7000CF911F910F91FF90EF900C946B12CF9307
:103C8000C82FCB01C2DF81E09DE0BFDF82EF9CE067
:103C9000CC2311F087EF9CE0B8DF8AE0CF9193CE80
:103CA000CF9386E19DE0B1DF8CB1C1E085FB882731
:103CB00080F960E17DE08C27E2DF80910301869549
:103CC00081706AE07DE08C27DADF89B183FB882789
:103CD00080F964E07DE08C27CF91D1CF0F931F93C3
:103CE000CF938C01C62F8BE69BE08FDFC8018DDF61
:103CF0008AE369DE80E38C0F66DE8AE0CF911F9154
:103D00000F9161CECF93DF93EB017FDFCE01DF9187
:103D1000CF91D9CECF92DF92EF92FF926A017B01D1
:103D200074DF42E0C701B601FF90EF90DF90CF90C3
:103D3000CFCE4F925F926F927F928F929F92AF926F
:103D4000BF92CF92DF92EF92FF920F931F93CF9388
:103D5000DF93CCE5D2E04C845D846E847F840EE1F9
:103D60001EE0F80124813581468157816C817D8177
:103D70008E819F810E94B0A34B015C01F8012085D8
:103D8000318542855385688579858A859B850E9422
:103D9000B0A36B017C01F801208131814281538104
:103DA000688179818A819B810E94B0A3AB01BC01AB
:103DB0008CEC90E2AFDFB501A40188EC90E2AADFC1
:103DC000B701A60184EC90E2A5DFB301A20180EC6B
:103DD00090E2DF91CF911F910F91FF90EF90DF90D4
:103DE000CF90BF90AF909F908F907F906F905F909B
:103DF0004F9090CFCF92DF92EF92FF926A017B01BA
:103E000004DF4AE0C701B601FF90EF90DF90CF904A
:103E1000CCCEE5E3FDE0808181834091B70D5091E8
:103E2000B80D6091B90D7091BA0D4F5F5F4F6F4F34
:103E30007F4F87EB90E2DEDF8AE0C5DD83EB90E227
:103E4000E4CECF93DF93EC01488159816A817B8175
:103E50008AEC9BE1CFDF4C815D816E817F8188ECB4
:103E600090E2C8DF488559856A857B8584EC90E2BD
:103E7000C1DF8AE0DF91CF91A6CDCF93DF93CDB79D
:103E8000DEB72C970FB6F894DEBF0FBECDBF51DF63
:103E90007CD89CE0E0E0F4E0DE01119601900D9208
:103EA0009A95E1F781117ED8CE010196CADF2C9652
:103EB0000FB6F894DEBF0FBECDBFDF91CF9108954E
:103EC000CF93DF93EB01A1DECE01DF91CF918CCEBA
:103ED0001F93CF93DF9300D000D01F921F92CDB7D6
:103EE000DEB7182F6091540470915504072E000C12
:103EF000880B990B0E94379F6D837E838F839887F1
:103F00008091500490915104A0915204B0915304B7
:103F100089839A83AB83BC834AEFBE016B5F7F4F7B
:103F2000CE0101967FDE6091710470917204072EBC
:103F3000000C880B990B0E94379F6D837E838F83C3
:103F4000988780916D0490916E04A0916F04B09158
:103F5000700489839A83AB83BC834FEFBE016B5F90
:103F60007F4FCE0101965EDE609173041F3F39F0F2
:103F700087E11802F0011124E45BFB4F628570E0D9
:103F80008BE79CE19DDF6091730470E086E79CE124
:103F900097DF28960FB6F894DEBF0FBECDBFDF9136
:103FA000CF911F91089585E293E02FCE8FE193E0AA
:103FB0002CCEEC01162F63DB209729F0F7DFCE0122
:103FC00024DE8AE000DDEFDF89EE90E21EDE89EE7E
:103FD00093E030E6019729F0232F2A950000E9F7B6
:103FE000F9CFF89489EE93E038EE019729F0232F6A
:103FF0002A950000E9F7F9CF42DB112319F0C8DC5C
:10400000A895FECFC3DCFCCFEF92FF920F931F93D6
:10401000CF93C82F7B018A0180918704833070F091
:10402000C2DFC701F2DD89ED9BE1EFDDC7FD15C001
:104030008C2FCC0F990BD8DD8AE0C5DC20DBA8954E
:104040008091110481110DC081E08093110482E000
:104050008093870460E0C801ACDF85ED9BE1D5DD8E
:10406000EBCFCF911F910F91FF90EF9008954F925A
:104070005F926F927F928F929F92AF92BF92CF92F8
:10408000DF92EF92FF920F931F93CF93DF93EC0198
:104090006B014A01B22EFA01408051806280738028
:1040A000A30192016D817E818F8198850E94319F4D
:1040B0008823A1F04D825E826F827886AA24A39421
:1040C00020E030E0A901F401608171818281938157
:1040D0000E94D6A518160CF0A12CAC828C818230DF
:1040E000A1F0833009F45AC08130C9F52D813E8199
:1040F0004F815885F60160817181828193810E9490
:10410000319F87FD2CC082E08C83B701FF0C880BA8
:10411000990B0E94379F9B01AC016D817E818F813D
:1041200098850E94AFA39B01AC01F601608171816B
:10413000828193810E94D6A587FD22C00E949C1295
:104140006B017C019801A8EEB3E00E9459A3C60E52
:10415000D71EE81EF91EC882D982EA82FB82DF914F
:10416000CF911F910F91FF90EF90DF90CF90BF9074
:10417000AF909F908F907F906F905F904F90089539
:104180000E949C12088119812A813B81601B710B5E
:10419000820B930B97FDE3CF83E08C8343E55CE1D7
:1041A00063E67CE18B2DDF91CF911F910F91FF9002
:1041B000EF90DF90CF90BF90AF909F908F907F90C7
:1041C0006F905F904F9020CF882379F1EFDE409180
:1041D000F40C5091F50C6091F60C7091F70C8CEA90
:1041E00090E298DD4091F80C5091F90C6091FA0C36
:1041F0007091FB0C89EA90E28DDD4091FC0C5091AE
:10420000FD0C6091FE0C7091FF0C86EA90E282DD5D
:104210004091000D5091010D6091020D7091030DC0
:1042200083EA90E277DD8AE0CECB80E2CCDBCFCFB1
:10423000CF93DF93BBDEC091DE0CD091DF0C80E921
:1042400090E2E3DCCE01D6DC8DE890E2DF91CF9105
:10425000DCCCCF93C82FAADE84E5B5DB8C2F2DDC18
:1042600080E2B1DB87E89CE1CF91CFCC0F931F9325
:10427000CF9381110FC0C42F8B0198DE8CEC90E19D
:10428000C4DCC801C2DCCC2329F08AE0CF911F91A5
:104290000F9199CBCF911F910F9108958091350D7A
:1042A0009091360D2FEF3FEF981751F0E92FF0E086
:1042B000EB5CF24F228130E09F5F9F779093360D49
:1042C000C90108950F931F93CF938C01C62F6BDE06
:1042D0004091B70D5091B80D6091B90D7091BA0D24
:1042E000C80188DD8AE06FDBD9DF0196E9F78C2F02
:1042F00090DD1092BC0D1092BB0DCF911F910F91CC
:1043000008958F929F92AF92BF92CF92DF92EF92D9
:10431000FF920F931F93CF93DF93B0E4A0E06A2F37
:1043200070E0AB014B0F511D55954795411119C0D8
:10433000EBE9FCE165917491072E000C880B990B59
:104340000E94379FDF91CF911F910F91FF90EF90C7
:10435000DF90CF90BF90AF909F908F900895B42F33
:10436000E0CF4A1711F0B41303C0E7E9FDE1E2CF53
:104370009A0121503109220F331F220F331FF901F7
:10438000E756F34EE590F490F901E356F34EC591EC
:10439000D4918E159F051CF3A42FC817D9070CF4D0
:1043A000BECFF901E556F34E05911491F901E1569E
:1043B000F34EC590D490BC016E197F09072E000CF6
:1043C000880B990B0E94379F4B015C01B601601B63
:1043D000710B072E000C880B990B0E94379F9B01D5
:1043E000AC01C501B4010E94969F4B015C01BE0166
:1043F0006E197F09072E000C880B990B0E94379FBE
:104400009B01AC01C501B4010E948CA46B017C012D
:10441000B801110F880B990B0E94379F9B01AC01CB
:10442000C701B6010E94B0A38DCFCF93DF93A895AB
:1044300080914E0490914F0464DF60935004709318
:104440005104809352049093530480916B04909193
:104450006C040E94CC1260936D0470936E04809380
:104460006F0490937004C0914E04D0914F048091DA
:104470004C0290914D02C817D90734F445E15CE134
:1044800062E27CE180E0C0DD8091540490915504AB
:10449000181619066CF480914A0290914B028C1701
:1044A0009D0734F444E35CE161E47CE180E0ACDD51
:1044B00020916B0430916C0480918104909182046E
:1044C0002817390734F445E15CE162E27CE18FEFC3
:1044D0009BDD8091710490917204181619069CF46A
:1044E00020916B0430916C048091480290914902B4
:1044F0008217930744F444E35CE161E47CE18FEFCD
:10450000DF91CF9181CDDF91CF9108952F923F928E
:104510004F925F926F927F928F929F92AF92BF92D3
:10452000CF92DF92EF92FF920F931F93CF93DF937F
:10453000CDB7DEB72F970FB6F894DEBF0FBECDBF55
:10454000809187048823E9F08091450481111BC084
:104550002F960FB6F894DEBF0FBECDBFDF91CF917F
:104560001F910F91FF90EF90DF90CF90BF90AF9091
:104570009F908F907F906F905F904F903F902F9083
:104580000895A895E5CF51DF109245040E949C1232
:104590002B013C016091500270915102072E000CDA
:1045A000880B990B0E94379F4B015C01AC019B016A
:1045B0006091500470915104809152049091530481
:1045C0000E94D6A518160CF43DC160915404709158
:1045D0005504072E000C880B990B0E94379F6983A6
:1045E0007A838B839C8334E0E32EF12C08E210E085
:1045F00020E0AE014F5F5F4F60E574E084E39EE032
:1046000036DDC0905004D0905104E0905204F090F8
:10461000530460914E0270914F02072E000C880BDC
:10462000990B0E94379F9B01AC01C701B6010E9404
:10463000D6A518164CF4A7019601C501B4010E9435
:10464000D6A518160CF40FC260E060935604809152
:104650002E0E90912F0EA091300EB091310E00973A
:10466000A105B10599F1A3019201281B390B4A0B51
:104670005B0BDA01C901B7FD29C06091500470914C
:10468000510480915204909153040E94F4A420910B
:104690002C0E30912D0E621773070CF4F2C220918C
:1046A0005404309155042115310541F06E5F7F4F60
:1046B00024503109621773070CF4F8C210922E0EC1
:1046C00010922F0E1092300E1092310E80914104F4
:1046D00090914204A0914304B0914404A30192013B
:1046E000281B390B4A0B5B0BDA01C901B7FD10C05F
:1046F0000E94A213D301C2018C53964FAF4FBF4FFC
:104700008093410490934204A0934304B0934404E3
:1047100020E030E040EF52E460916D0470916E044F
:1047200080916F04909170040E94D6A518160CF425
:1047300082C080913D0490913E04A0913F04B091CD
:1047400040040097A105B105D1F1A3019201281BF6
:10475000390B4A0B5B0BDA01C901B7FD30C0609120
:104760006D0470916E0480916F04909170040E94AA
:10477000F4A420913B0430913C0462177307CCF001
:10478000E0917104F0917204309751F0AB014E5FEB
:104790005F4F9F0124503109421753070CF499C20F
:1047A00010923D0410923E0410923F041092400477
:1047B0000AC047EF5BE166E07CE18FEF25DCE0912A
:1047C0007104F0917204BF01FF0F880B990B0E94D6
:1047D000379F69837A838B839C8392E0E92EF12C47
:1047E00004E110E02FEFAE014F5F5F4F6DE674E024
:1047F0008DE39EE03CDC40906D0450906E04609030
:104800006F047090700420E030E040EA50E4C3018F
:10481000B2010E94D6A587FD0AC020E030E040EF3B
:1048200052E4C301B2010E94319F181694F460E073
:10483000609373048DCE45E15CE162E27CE18FEF31
:10484000E3DB77CF45E15CE162E27CE180E0DCDB49
:10485000BCCE60917104709172046115710509F408
:104860001CC2072E000C880B990B0E94379FA301D6
:1048700092010E94AFA34B015C0120E030E040E2D6
:1048800051EC0E94319F87FD08C220E030E040E2F9
:1048900051E4C501B4010E94D6A518160CF401C25A
:1048A0008091780490917904A0917A04B0917B046E
:1048B0008D839E83AF83B88780914302811121C28B
:1048C0002091220430912304409124045091250426
:1048D000C0901E04D0901F04E0902004F0902104AA
:1048E000C501B4010E94B0A3162F072F382E292E20
:1048F00020E030E0A9010E94319F87FD1AC22D817E
:104900003E814F81588560E070E08FE793E40E941C
:104910008CA469877D878E879F87212F302F432D19
:10492000522D0E94319F87FF04C019850D853E845A
:104930002F84812F902FA32DB22D8093220490934A
:104940002304A0932404B09325042091740430918F
:1049500075044091760450917704C501B4010E941A
:10496000969F4B015C018092160490921704A092CE
:104970001804B0921904212F302F432D522D6D8130
:104980007E818F8198850E94969F6D837E838F8321
:10499000988760931A0470931B0480931C0490936F
:1049A0001D04A3019201609112047091130480917F
:1049B0001404909115040E94AFA320917C043091BF
:1049C0007D0440917E0450917F040E94969FA70130
:1049D00096010E94AFA320ED3CEC4CE45DE30E9405
:1049E000969FA70196010E94B0A36B017C01C09223
:1049F0001E04D0921F04E0922004F0922104409201
:104A000012045092130460921404709215042D81C4
:104A10003E814F815885C501B4010E94B0A3A70112
:104A200096010E94B0A320E030E0A9010E94B0A34B
:104A30006B017C0120E030E0A9010E94319F87FDDD
:104A4000F6CE20E030E04FE753E4C701B6010E9404
:104A5000D6A518160CF428C1C701B6010E94F4A40B
:104A600075956795E5CE6091540470915504611574
:104A7000710509F40DC1072E000C880B990B0E94DB
:104A8000379FA70196010E94AFA34B015C0120E074
:104A900030E040E251EC0E94319F87FDF9C020E0F8
:104AA00030E040E251E4C501B4010E94D6A51816D9
:104AB0000CF422C180913A0481112BC1209132045F
:104AC0003091330440913404509135042D833E835A
:104AD0004F8358878091360490913704A091380411
:104AE000B091390489879A87AB87BC87A701960163
:104AF00060912604709127048091280490912904E4
:104B00000E94AFA320915F04309160044091610442
:104B1000509162040E94969F2D813E814F8158855D
:104B20000E94AFA320ED3CEC4CE45DE30E94969F15
:104B30002D813E814F8158850E94B0A36B017C017D
:104B4000C0923204D0923304E0923404F0923504DF
:104B500020915B0430915C0440915D0450915E04AF
:104B60002D833E834F83588729853A854B855C8505
:104B7000C501B4010E94B0A38B011C0120E030E00C
:104B8000A9010E94319F87FDCFC02D813E814F81B9
:104B9000588560E070E088E493E40E948CA4698703
:104BA0007D878E879F879801A1010E94319F87FF93
:104BB00004C009851D852E843F84C801D1018093DE
:104BC000360490933704A0933804B09339042091AD
:104BD0005704309158044091590450915A04C5012A
:104BE000B4010E94969F4B015C0180922A0490922E
:104BF0002B04A0922C04B0922D049801A1016D8188
:104C00007E818F8198850E94969F9B01AC012093A5
:104C10002E0430932F044093300450933104C50187
:104C2000B4010E94B0A3A70196010E94B0A320E0A6
:104C300030E0A9010E94B0A369837A838B839C83AF
:104C400048EC50E070E060E0CE0101960E946013F5
:104C5000C0905004D0905104E0905204F09053045E
:104C600069817A818B819C810E94F4A475956795F6
:104C7000C0922604D0922704E0922804F0922904DE
:104C8000E4CC47EF5BE166E07CE180E0BDD91ECD7E
:104C900081E080933A0460E0EBCF81E080934302AF
:104CA000C6CD81E0809343026FE7C2CD70932D0E95
:104CB00060932C0E0E949C12605E714B8F4F9F4F31
:104CC00060932E0E70932F0E8093300E9093310EC2
:104CD000FDCC50933C0440933B040E949C12605ACC
:104CE00075418F4F9F4F60933D0470933E048093B6
:104CF0003F049093400463CD81E080933A0464E6DE
:104D0000B7CF10924302C12CD12C7601A701960196
:104D1000E7CD10923A0419861A861B861C861D82DE
:104D20001E821F821886E2CE00E010E0212C312C7A
:104D300044CF10E000E0312C212CFBCDCF92DF924C
:104D4000EF92FF926B017C0183E3C816D104E1046A
:104D5000F10468F082E3C81AD108E108F10862E3BF
:104D600070E080E090E00E946B12D0DBEDCFC701D5
:104D7000B6010E946B12FF90EF90DF90CF90C6CBF0
:104D800080918404882329F062E070E080E090E064
:104D9000D5CF0895CF92DF92EF92FF921F93CF93DA
:104DA000DF93C82FD1E0D827811101C0FFD88AEA4C
:104DB00092E10E94051E84EA92E10E94051E8AE0AB
:104DC0000E94E31C8AE00E94E31CC11112C0EED8CD
:104DD0008CEC90E10E94051E81E992E10E94051E83
:104DE00080917203882309F44CC28AE00E94E31C7C
:104DF000DDD86091720370E08DE792E161D8409157
:104E00006E0350916F0360917003709171038AE794
:104E100092E10E948A1E8AE00E94E31C41E06AE659
:104E200072E18C2F23DA8D2FCFD941E06DE472E14E
:104E30008C2F1CDAC11101C0B9D84091040D5091DA
:104E4000050D6091060D7091070D84E492E10E94BA
:104E50008A1E4091080D5091090D60910A0D7091C4
:104E60000B0D89EA90E20E948A1E40910C0D509130
:104E70000D0D60910E0D70910F0D86EA90E20E946B
:104E80008A1E4091100D5091110D6091120D70917C
:104E9000130D83EA90E20E948A1E8AE00E94E31CBE
:104EA00041E063E272E18C2FE1D9C11101C07ED8EB
:104EB0006091E00C7091E10C8091E20C9091E30C18
:104EC0000E94359FAB01BC018AE192E10E948A1EDB
:104ED0006091E40C7091E50C8091E60C9091E70CE8
:104EE0000E94359FAB01BC0189EA90E20E948A1EB4
:104EF0006091E80C7091E90C8091EA0C9091EB0CB8
:104F00000E94359FAB01BC0186EA90E20E948A1E96
:104F10006091EC0C7091ED0C8091EE0C9091EF0C87
:104F20000E94359FAB01BC0183EA90E20E948A1E79
:104F30008AE00E94E31C41E061ED71E18C2F96D97B
:104F4000C11101C033D84091140D5091150D6091DD
:104F5000160D7091170D88EC91E10E948A1E409108
:104F6000180D5091190D60911A0D70911B0D85EC63
:104F700091E10E948A1E40911C0D50911D0D60917F
:104F80001E0D70911F0D82EC91E10E948A1E8AE035
:104F90000E94E31C41E06EE671E18C2F67D9C111DC
:104FA00001C004D86091F00C7091F10C8091F20C6A
:104FB0009091F30C0E94359FAB01BC0185E691E115
:104FC0000E948A1E4091200D5091210D6091220D6A
:104FD0007091230D82E691E10E948A1E4091240D7A
:104FE0005091250D6091260D7091270D82EC91E175
:104FF0000E948A1E4091790650917A0660917B0644
:1050000070917C068FE591E10E948A1E8AE00E94E1
:10501000E31C41E062E571E18C2F28D9C11102C087
:105020000E94D61F409188045091890460918A049F
:1050300070918B0489E491E10E948A1E40918C0456
:1050400050918D0460918E0470918F0489EA90E2F2
:105050000E948A1E409190045091910460919204A4
:105060007091930486EA90E20E948A1E8AE00E9470
:10507000E31C41E066E371E18C2FF8D8C11102C056
:105080000E94D61F6091300D70E08DE291E10E9488
:10509000601F4091310D5091320D6091330D709130
:1050A000340D86EA90E20E948A1E8AE00E94E31C88
:1050B0000E94961C882309F44AC083E7E82E83E007
:1050C000F82ED0E0670110E0C11102C00E94D61F87
:1050D00082E291E10E94051E812F0E945D1D8FE1F9
:1050E00091E10E94051E8D2F0E945D1D86EA90E2CF
:1050F0000E94051EF601608171818281938145E0E5
:105100000E94681D8AE00E94E31C1F5FFCE0CF0E36
:10511000D11C1330C9F6DF5F84E0E80EF11CD330F8
:1051200089F6C11102C00E94D61F84E191E10E945C
:10513000051E609197037091980380919903909157
:105140009A0345E00E94681D8AE00E94E31C41E04A
:1051500066E071E18C2F8AD8C11102C00E94D61F6F
:1051600040915704509158046091590470915A0429
:105170008DEF90E10E948A1E2CEA35EC47E25EE357
:1051800060915B0470915C0480915D0490915E0479
:105190000E948CA4AB01BC018AEF90E10E948A1EA0
:1051A0002CEA35EC47E25EE360915F0470916004A5
:1051B00080916104909162040E94969FAB01BC01B2
:1051C00087EF90E10E948A1E8AE00E94E31CC111D1
:1051D00002C00E94D61F40917404509175046091E2
:1051E0007604709177048EEE90E10E948A1E2CEA7C
:1051F00035EC47E25EE36091780470917904809128
:105200007A0490917B040E948CA4AB01BC018BEECC
:1052100090E10E948A1E2CEA35EC47E25EE3609141
:105220007C0470917D0480917E0490917F040E94A3
:10523000969FAB01BC0188EE90E10E948A1E8AE035
:105240000E94E31C41E068ED70E18C2F0FD8C11182
:1052500002C00E94D61F4091A5065091A6066091FB
:10526000A7067091A8068FEC90E10E948A1E8AE042
:10527000DF91CF911F91FF90EF90DF90CF900C9432
:10528000E31C86E892E10E94051EB2CDDF92EF9208
:10529000FF920F931F93CF93DF931F92CDB7DEB78B
:1052A0008C01D42E7C01E60EF71E80912A0E90917F
:1052B0002B0E0E94E6A28983DD2011F0F801808385
:1052C000CE0101960E94B91080912A0E90912B0E6A
:1052D000019690932B0E80932A0E0F5F1F4F0E1591
:1052E0001F0519F780E00F90DF91CF911F910F916B
:1052F000FF90EF90DF90089540919F0321E04227B7
:105300006CE070E0C3CF40919F0321E0422764E04E
:1053100070E0BCCF40919F0321E0422761E070E044
:10532000B5CF40919F0321E0422762E070E0AECF0D
:1053300040919F0321E0422761E070E0A7CF4091B8
:105340009F0321E0422768E070E0A0CF40919F03D7
:1053500021E042276CE070E099CF41E061E070E02D
:1053600095CF40919F0321E0422790CF9F92AF922B
:10537000BF92CF92DF92EF92FF920F931F93CF9342
:10538000DF931F92CDB7DEB78C016C01C60ED71E1E
:10539000F12CE12CC016D10609F44DC0A0902A0EC4
:1053A000B0902B0EF80191908F019982C5010E9457
:1053B000E6A2981691F1692DC5010E94EEA2FFEFB9
:1053C000EF1AFF0AC7018F779927892B01F162E055
:1053D00070E080E090E00E946B12C5010E94E6A29E
:1053E00099818917D1F00E94D61F8FEC90E20E941C
:1053F000051E81E00F90DF91CF911F910F91FF90DB
:10540000EF90DF90CF90BF90AF909F90089562E0B3
:1054100070E080E090E092DCE0CFCE0101960E9447
:10542000B91080912A0E90912B0E019690932B0E1D
:1054300080932A0EAFCF80E0DDCF62E070E096CFA0
:105440006CE070E093CF64E070E090CF61E070E0DA
:105450008DCF61E070E08ACF6CE070E087CF8F92F3
:105460009F92AF92BF92DF92EF92FF920F931F93A2
:10547000CF93DF93CDB7DEB7C658D1090FB6F894F6
:10548000DEBF0FBECDBFC358DF4F188219821A820C
:105490001B82CD57D0408091C5029091C602A09149
:1054A000C702B091C802CF57DF4F88839983AA8380
:1054B000BB83C158D04084E690E090932B0E80933C
:1054C0002A0E1092330E1092320E1092A00364E056
:1054D00070E0CE018F579F4F49DF80912A0E909147
:1054E0002B0E029690932B0E80932A0E1092330E61
:1054F0001092320E81E0CA57DF4F8883C658D040E1
:10550000CE018A579F4FA5DF68E470E080EE9CE0F3
:105510002DDF80E1E0E7F2E08E010F5F1F4FD80141
:1055200001900D928A95E1F760E170E0C8011EDFFD
:1055300089E796E088DF88E894E08EDF7E018DE6DB
:10554000E80EF11C8FEFD7018C93C70182DF19821F
:105550001A821B821C82C80176DF8091310D9091E6
:10556000320DA091330DB091340D89839A83AB83B2
:10557000BC83C80168DF83E08983F701808387E902
:1055800093E061DFC80165DFC70163DF64E270E0BB
:1055900083E793E0EBDE8CE0D8011D928A95E9F772
:1055A000C8015ADFC358DF4F188219821A821B8242
:1055B000CD57D0403AE0D32EDA94DD2029F0CE0149
:1055C00083589F4F40DFF8CF88E0F701982F119262
:1055D0009A95E9F7D8011D928A95E9F783E0CB57B0
:1055E000DF4F8883C558D040EA968FAFEA97CE0147
:1055F0008B579F4F2EDFCE0187589F4F2ADF68E0E1
:1056000070E0C801B3DE68E070E0C701AFDEC358E8
:10561000DF4F188219821A821B82CD57D0402AE0B0
:10562000A22EB12CB1E0AB1AB10829F0CE018358FB
:105630009F4F09DFF7CF19828FEFF7018083C801F1
:1056400005DFC70106DF80E1D82ED801ED2D1D92C0
:10565000EA95E9F760E170E0C80188DE1982C801C7
:10566000F5DE198A1A8A1B8A1C8A80E090E0A0E87D
:10567000BFE38D879E87AF87B88B80915704909149
:105680005804A0915904B0915A0489839A83AB833A
:10569000BC832CEA35EC47E25EE360915B047091D9
:1056A0005C0480915D0490915E040E948CA46D83E3
:1056B0007E838F8398872CEA35EC47E25EE3609126
:1056C0005F047091600480916104909162040E9473
:1056D000969F69877A878B879C8764E170E0C80111
:1056E00045DE84E190E09A838983C801A6DE80913B
:1056F000740490917504A0917604B0917704898325
:105700009A83AB83BC832CEA35EC47E25EE360917D
:1057100078047091790480917A0490917B040E94BE
:105720008CA46D837E838F8398872CEA35EC47E2C7
:105730005EE360917C0470917D0480917E04909181
:105740007F040E94969F69877A878B879C87C80110
:1057500077DE8CE0E0E8F2E0D80101900D928A95C6
:10576000E1F7C8016DDE1982C80173DE8FE790E0B2
:105770009A838983C80161DE85E0ECE8F2E0D80114
:1057800001900D928A95E1F765E070E0C801EEDDC9
:105790001982C8015BDE80E2E1E9F2E0D801019004
:1057A0000D928A95E1F760E270E0C801DFDDD70174
:1057B0001C92C7014BDE82E793E048DE8EE693E061
:1057C00042DEC358DF4F188219821A821B82CD57DE
:1057D000D040CE0183589F4F36DE80E2F80111920F
:1057E0008A95E9F760E270E0C801C0DDFE01F99634
:1057F00088E0DF011D928A95E9F744E650E060E019
:1058000070E049835A836B837C834D835E836F830F
:10581000788783E090E0A0E0B0E089879A87AB8743
:10582000BC874D875E876F87788B498B5A8B6B8BD4
:105830007C8B8D8B9E8BAF8BB88F898F9A8FAB8F24
:10584000BC8F8D8F9E8FAF8FB8A38EE190E0A0E0CC
:10585000B0E089A39AA3ABA3BCA38DA39EA3AFA3DF
:10586000B8A789A79AA7ABA7BCA78DA79EA7AFA7E4
:10587000B8AB89AB9AABABABBCAB8DAB9EABAFABB4
:10588000B8AF60E470E0C80171DDF8018D2D1192B0
:105890008A95E9F760E170E0C80168DDD8011D92E2
:1058A000DA94E9F760E170E0C80160DD85EA96E02E
:1058B000CADD9CE0D92EF8018D2D11928A95E9F769
:1058C0006CE070E0C80152DD8CE6D8011D928A952B
:1058D000E9F76CE670E0C80149DD82E693E0B0DDEF
:1058E000F7011082118212821382148215821682AD
:1058F000178268E070E0C70139DDF7011192DA9490
:10590000E9F7CB57DF4F1882C558D04080E090E0D0
:10591000A0E4B0E4ED968CAF9DAFAEAFBFAFED9716
:10592000C7019ADDCE018B579F4F93DDCE0187587B
:105930009F4F89DDD090A003D11043C000912A0E63
:1059400010912B0E045611098091320E9091330E56
:10595000D7018D939C9384E690E090932B0E8093D7
:105960002A0E64E070E081EC92E000DDC70165DDA5
:105970000E94D61FB80187E990E10E94821EF701BC
:1059800080809180B12CA12C8AE890E10E94051EB4
:105990004AE0C501B4010E94F81C87E890E10E942A
:1059A000051E0D39124041F00E94D31F81EC92E197
:1059B0000E94051EDD24D3948091A0038D2980933D
:1059C000A0039091A00381E08927CA57DF4F0FB64B
:1059D000F894DEBF0FBECDBFDF91CF911F910F9125
:1059E000FF90EF90DF90BF90AF909F908F900895C1
:1059F000EF92FF920F931F93CF93DF93CDB7DEB754
:105A000062970FB6F894DEBF0FBECDBF87E00E944D
:105A10006A198823E1F148EC52E082FF02C049ECA8
:105A200052E028EC32E081FF02C02BEC32E080FD36
:105A30002BC088EC92E05F934F933F932F939F93FB
:105A40008F938BE790E29F938F93CE0101967C0119
:105A50009F938F930E94029F0E94D61FC7010E94AE
:105A6000EA1C0FB6F894DEBF0FBECDBF81E0629690
:105A70000FB6F894DEBF0FBECDBFDF91CF911F915F
:105A80000F91FF90EF9008958DEC92E0D4CF80E0DD
:105A9000EECFCF92DF92EF92FF920F931F93CF93AF
:105AA000DF93C0EEDCE00DE816E0C12CD12C7601CE
:105AB000C39469917991899199910E94359F288920
:105AC00039894A895B890E94969F0E94F9A4F8014E
:105AD00061937193819391938F01C616D706E8065F
