:100000000C94790F0C94AA0F0C94AA0F0C94AA0FBD
:100010000C94AA0F0C94AA0F0C94AA0F0C94AA0F7C
:100020000C94AA0F0C94AA0F0C94AA0F0C94AA0F6C
:100030000C94AA0F0C94AA0F0C94AA0F0C94AA0F5C
:100040000C94AA0F0C942A880C94AA0F0C94AA0F53
:100050000C94AA0F0C94AA0F0C945A7C0C94DB7A83
:100060000C94AA0F0C9474880C946A880C94AA0FB0
:100070000C94AA0F0C94AA0F0C94AA0F0C94AA0F1C
:100080000C94AA0F0C94AA0F0C94AA0F0C94AA0F0C
:100090000C94AA0F0C94AA0F0C94AA0F0C94AA0FFC
:1000A0000C94AA0F0C94AA0F0C94AA0F0C94AA0FEC
:1000B0000C94AA0F0C94AA0F0C94AA0F0C94AA0FDC
:1000C0000C94AA0F0C94AA0F0C94AA0F0C94AA0FCC
:1000D0000C94AA0F0C94AA0F0C94AA0F0C94AA0FBC
:1000E0000C94AA0F084AD73B3BCE016E84BCBFFDDF
:1000F000C12F3D6C74319ABD56833DDA3D00C77FF8
:1001000011BED9E4BB4C3E916BAAAABE0000008090
:100110003F05A84CCDB2D44EB93836A9020C50B91F
:10012000918688083CA6AAAA2ABE000000803F004B
:100130004E414E494E495459494E46CDCCCC3D0ACC
:10014000D7233C17B7D13877CC2B329595E6241FAF
:10015000B14F0A000020410000C84200401C462068
:10016000BCBE4CCA1B0E5AAEC59D74434F4D4D5577
:100170004E49434154494F4E0044525952554E0046
:100180004552524F525300494E464F004543484F47
:10019000002121204B494C4C20636175736564201C
:1001A000627920746F6F206D75636820696E61637A
:1001B000746976652074696D65202D20637572728F
:1001C000656E7420636F6D6D616E643A20005072CD
:1001D000696E7465722073746F70706564206475E5
:1001E0006520746F206572726F72732E2046697875
:1001F00020746865206572726F7220616E6420756C
:100200007365204D39393920746F207265737461BC
:1002100072742E202854656D7065726174757265F4
:100220002069732072657365742E2053657420698C
:10023000742061667465722072657374617274698A
:100240006E67290A004E6F20436865636B73756D96
:100250002077697468206C696E65206E756D6265C3
:10026000722C204C617374204C696E653A200063D7
:100270006865636B73756D206D69736D6174636818
:100280002C204C617374204C696E653A20004C69D7
:100290006E65204E756D626572206973206E6F7495
:1002A000204C617374204C696E65204E756D6265DB
:1002B000722B312C204C617374204C696E653A208E
:1002C000004D3131300053657269616C2073746187
:1002D000747573206D69736D617463680A0062756B
:1002E00073793A2070617573656420666F72206956
:1002F0006E7075740A00627573793A207061757357
:10030000656420666F7220757365720A006275738A
:10031000793A2070726F63657373696E670A00655E
:1003200063686F3A004572726F723A000A4D6561F8
:10033000737572656420706F696E74733A0A003366
:100340007833206D6573682E205A206F666673655A
:10035000743A2000206E6F7420656E746572656457
:100360002E0A0020496E76616C696420657874728B
:1003700075646572200047322F4733206261642024
:10038000706172616D65746572730A0047322F4740
:10039000332062616420706172616D65746572738F
:1003A0000A00206F6620004D424C204732392070F1
:1003B0006F696E742000290A004A206F7574206FDF
:1003C000662072616E67652028302D00290A004979
:1003D000206F7574206F662072616E67652028300B
:1003E0002D004732384C30004D6573682070726FB5
:1003F00062696E6720646F6E652E0A0053746172C5
:1004000074206D6573682070726F62696E67207703
:10041000697468202247323920533122206669727C
:1004200073742E0A004732395332004732384C3049
:100430000A473239533200686173206E6F2064615D
:1004400074612E0A004D65736820426564204C6516
:1004500076656C696E67200053206F7574206F6637
:100460002072616E67652028302D35292E0A004DD7
:1004700065736820706F696E74206F7574206F6685
:100480002072616E67650A002569730025696D2019
:10049000256973002569682025696D202569730029
:1004A000256964202569682025696D202569730008
:1004B00025697920256964202569682025696D20D2
:1004C000256973005072696E742074696D653A20F5
:1004D000006F6B006F6666008C01870180017901F7
:1004E0006B0144454255473A004D31313220536843
:1004F0007574646F776E004D3131332053004D4574
:1005000041545041434B00434F4F4C45525F54457B
:100510004D5045524154555245004348414D424586
:10052000525F54454D504552415455524500424149
:1005300042595354455050494E470041524353008D
:100540004D4F54494F4E5F4D4F444553005448451D
:10055000524D414C5F50524F54454354494F4E0009
:100560004C4F4E475F46494C454E414D4500415525
:10057000544F5245504F52545F53445F535441546B
:1005800055530053445F5752495445005245504516
:100590004154005344434152440050524F4D505433
:1005A0005F535550504F525400454D455247454EAC
:1005B00043595F50415253455200434153455F4CAC
:1005C000494748545F4252494748544E45535300A7
:1005D000544F47474C455F4C494748545300534F8D
:1005E0004654574152455F504F5745520042554976
:1005F0004C445F50455243454E54004C4556454C83
:10060000494E475F44415441005A5F50524F424562
:100610000052554E4F5554004155544F4C45564588
:100620004C005052494E545F4A4F420050524F477F
:1006300052455353004155544F5245504F52545F09
:1006400054454D50004155544F5245504F52545F00
:10065000504F5300564F4C554D4554524943004559
:100660004550524F4D0042494E4152595F46494C08
:10067000455F5452414E53464552005345524941FD
:100680004C5F584F4E5F584F4646004649524D57B3
:100690004152455F4E414D453A4D61726C696E2045
:1006A000322E302E382E3120284A756C20313520DC
:1006B000323032312031353A35353A343829205309
:1006C0004F555243455F434F44455F55524C3A673F
:1006D00069746875622E636F6D2F4D61726C696EFF
:1006E0004669726D776172652F4D61726C696E201B
:1006F00050524F544F434F4C5F56455253494F4E03
:100700003A312E30204D414348494E455F545950AF
:10071000453A5369646577696E6465722058312083
:1007200045585452554445525F434F554E543A3103
:1007300020555549443A63656465326132662D340B
:100740003161322D343734382D396231322D6335F1
:10075000356336326633363766660A002F2F00203F
:100760005200416363656C65726174696F6E3A2013
:1007700050003F4A206F7574206F662072616E676B
:10078000652028302E303120746F20302E33290A16
:10079000004D32303620580020580020204D61781E
:1007A0003A2000200020204D696E3A2000536F66E9
:1007B0007420656E6473746F70733A200046523A09
:1007C0000020466C6F773A2000426162797374654D
:1007D00070205A004D424C2041646A757374205A4F
:1007E0000020643A0020693A0020703A00496E7691
:1007F000616C69642065787472756465720A0020A2
:10080000643A0020693A0020703A00646973006518
:100810006E0043290A0061626C656420286D696E70
:100820002074656D702000436F6C6420657874726D
:10083000756465732061726520004F4646004F4E17
:10084000004F46460A00466164652048656967684E
:10085000742000426564204C6576656C696E672083
:10086000004661696C656420746F20656E61626C1E
:100870006520426564204C6576656C696E670A0088
:100880004D65736820426564204C6576656C206414
:100890006174613A0A00496E76616C6964206D6525
:1008A00073682E0A004D65736820706F696E74203E
:1008B0006F7574206F662072616E67650A004D3433
:1008C000323120696E636F72726563742070617279
:1008D000616D657465722075736167650A00486FA4
:1008E0006D65202573257325732046697273740026
:1008F000546F6F206661722066726F6D207265663C
:100900006572656E636520706F696E740A00454597
:1009100050524F4D204F4B0A002E0A002028302DF8
:10092000313029002076616C7565206F7574206FF9
:10093000662072616E676500416476616E63652052
:100940004B3D00496E76616C696420657874727500
:100950006465720A006F6B005A580A0058590A0001
:10096000595A0A00576F726B737061636520506C3F
:10097000616E6520004361703A0020573A002057AD
:100980003A0023646566696E652044454641554CCE
:10099000545F0000626564004B6420004B692000D6
:1009A0004B702000504944204175746F74756E651A
:1009B0002066696E697368656421205075742074BF
:1009C0006865206C617374204B702C204B6920612A
:1009D0006E64204B6420636F6E7374616E74732059
:1009E00066726F6D2062656C6F7720696E746F2020
:1009F000436F6E66696775726174696F6E2E680AFF
:100A000000504944204175746F74756E65206661AD
:100A1000696C6564212074696D656F75740A005096
:100A20004944204175746F74756E65206661696C08
:100A30006564212054656D706572617475726520FE
:100A4000746F6F20686967680A00204B643A200061
:100A5000204B693A2000204B703A200020436C6103
:100A60007373696320504944200A00204E6F206F41
:100A700076657273686F6F740A002054753A2000AF
:100A8000204B753A2000206D61783A2000206D6976
:100A90006E3A200020643A200020626961733A2097
:100AA00000504944204175746F74756E65207374ED
:100AB0006172740A00504944204175746F74756EF8
:100AC00065206661696C6564212054656D7065728E
:100AD000617475726520746F6F20686967680A00B9
:100AE000504944204175746F74756E652066616964
:100AF0006C656421204261642068656174657220C0
:100B000069640A006F70656E005452494747455248
:100B10004544003A20007A5F6D696E00795F6D6927
:100B20006E00785F6D696E005265706F7274696EE9
:100B30006720656E6473746F70207374617475736D
:100B40000A0020746F6F206C6F6E67206578747276
:100B50007573696F6E2070726576656E7465640A70
:100B60000020636F6C6420657874727573696F6EB2
:100B70002070726576656E7465640A00000000C0BE
:100B80000000A0C0000000005761726E696E673AF5
:100B900020486F6D696E672042756D7020446976DC
:100BA00069736F72203C20310A0002020400009732
:100BB0004300809D430000C8430000A0400000A007
:100BC0004000000040000000010000000100008023
:100BD00000555555000000400033333300AAAA2ABF
:100BE000004992240000002000C7711C0099991947
:100BF00000D1451700555515003BB113002449128B
:100C00000011111100000010000F0F0F00E3380E4B
:100C10000043790D00CCCC0C00C3300C00E8A20BD3
:100C20000064210B00AAAA0A00703D0A009DD809A1
:100C300000427B090092240900DCD3080088880860
:100C4000001042080000000800F0C1070087870775
:100C50000075500700711C07003EEB0600A1BC06A2
:100C6000006990060066660600703E060061180680
:100C70000017F4050074D105005BB00500B29005C3
:100C800000627205005555050078390500B81E054B
:100C900000050505004EEC040087D40400A1BD0446
:100CA0000090A7040049920400C17D0400EE69048D
:100CB00000C7560400444404005C320400082104C8
:100CC0000041100400000004003FF00300F8E003BE
:100CD0000026D20300C3C30300CCB503003AA80327
:100CE000000A9B0300388E0300C08103009F750338
:100CF00000D0690300505E03001D53030034480315
:100D000000913D03003333030016290300381F030D
:100D10000097150300300C0300030303000BFA02D5
:100D20000049F10200BAE802005CE002002DD8029E
:100D3000002DD0020059C80200B0C0020031B90233
:100D400000DAB10200AAAA0200A0A30200BC9C0221
:100D500000FA9502005C8F0200DF880200828202A6
:100D600000457C02002776020027700200436A02D9
:100D7000007C640200D05E02003F590200C85302AA
:100D800000FFFDFCFAF8F6F4F2F0EEECEAE9E7E534
:100D9000E3E1E0DEDCDAD9D7D5D4D2D0CFCDCBCAEF
:100DA000C8C7C5C3C2C0BFBDBCBAB9B7B6B4B3B279
:100DB000B0AFADACAAA9A8A6A5A4A2A1A09E9D9CD7
:100DC0009A99989795949392908F8E8D8B8A898813
:100DD000878684838281807F7E7D7B7A797877762F
:100DE0007574737271706F6E6D6C6B6A696867662B
:100DF0006564636261605F5E5D5C5B5A5958585719
:100E000056555453525150504F4E4D4C4B4A4A49EF
:100E100048474646454443424241403F3E3E3D3CB2
:100E20003B3B3A3938383736353534333232313066
:100E3000302F2E2E2D2C2B2B2A292928272726250B
:100E40002524232322212120201F1E1E1D1C1C1BA4
:100E50001B1A191918181716161515141313121230
:100E60001111100F0F0E0E0D0D0C0C0B0A0A0909B3
:100E7000080807070606050504040303020201002B
:100E8000000000964300009B430000C843000000A0
:100E9000C00000A0C000000000290A002062797490
:100EA00065733B20637263200053657474696E67D9
:100EB000732053746F726564202800486172646304
:100EC0006F6465642044656661756C742053657455
:100ED00074696E6773204C6F616465640A003B201F
:100EE0000020204D393030204B004C696E65617216
:100EF00020416476616E63653A0020440020490019
:100F000020204D3330342050002044002049002060
:100F1000204D3330312050005049442073657474A3
:100F2000696E67733A002020473239205334205AC3
:100F300000204A0020204732392053332049002026
:100F4000204D3432302053004D6573682042656473
:100F5000204C6576656C696E673A0020204D323012
:100F600036205800486F6D65206F66667365743A69
:100F700000204A0020530020204D3230352042000E
:100F8000416476616E6365643A20423C6D696E5FD0
:100F90007365676D656E745F74696D655F75733ECB
:100FA00020533C6D696E5F66656564726174653E71
:100FB00020543C6D696E5F74726176656C5F666526
:100FC0006564726174653E204A3C6A756E635F6455
:100FD00065763E0020540020520020204D323034EF
:100FE000205000416363656C65726174696F6E20A7
:100FF00028756E6974732F7332293A20503C7072D1
:10100000696E745F616363656C3E20523C72657407
:10101000726163745F616363656C3E20543C7472FB
:101020006176656C5F616363656C3E0020204D32C4
:1010300030312058004D6178696D756D20416363D2
:10104000656C65726174696F6E2028756E69747362
:101050002F7332293A0020204D3230332058004D72
:101060006178696D756D206665656472617465731C
:101070002028756E6974732F73293A005374657054
:10108000732070657220756E69743A0020440020E8
:10109000204D3230302053002044697361626C650A
:1010A000640A0046696C616D656E742073657474C2
:1010B000696E67733A0020286D6D29002020473241
:1010C00031202020203B20556E69747320696E20EA
:1010D0006D6D00454550524F4D20646174617369D8
:1010E0007A65206572726F722E0A00290A002062EA
:1010F000797465733B2063726320002073746F7290
:1011000065642073657474696E67732072657472A8
:101110006965766564202800202863616C63756CBE
:101120006174656429210A0020213D200045455055
:10113000524F4D20435243206D69736D6174636853
:10114000202D202873746F72656429200020536954
:101150007A653A2000496E6465783A20000000966E
:1011600043000096430000484200002042F43DA0A6
:1011700042F43DA04296E3C7430080D943D0070024
:1011800000D00700006400000010270000204D611F
:10119000726C696E3D563833290A00454550524FEE
:1011A0004D2076657273696F6E206D69736D617421
:1011B00063682028454550524F4D3D0024F4D430FB
:1011C00050C38E20C2A24017828B7011127A910DEB
:1011D000816CD90AA861E108C758660761514306C6
:1011E0001E4B5D05C145A7041A411104093D980332
:1011F000713931034036DB0265339102D430540239
:10120000802E1D02632CEE01752AC501B028A001B5
:10121000102781018F2564012B244B01E02234012A
:10122000AC211F018D200D01801FFC00841EED00EC
:10123000971DDF00B81CD200E61BC600201BBC00B7
:10124000641AB200B219A8000A19A0006A1899001D
:10125000D117910040178B00B516840031167E001F
:10126000B31579003A157300C7146F0058146A005B
:10127000EE1366008813630025135E00C7125B003F
:101280006C12570015125400C111510070114F001B
:1012900021114B00D61049008D1047004610440024
:1012A00002104200C00F4000800F3E00420F3C0081
:1012B000060F3B00CB0E3800930E37005C0E350056
:1012C000270E3400F30D3200C10D3100900D3000B7
:1012D000600D2E00320D2D00050D2C00D90C2B00B9
:1012E000AE0C2900850C29005C0C2700350C27006A
:1012F0000E0C2600E80B2400C40B2400A00B2300D6
:101300007D0B23005A0B2100390B2100180B200004
:10131000F80A1F00D90A1E00BB0A1E009D0A1D0004
:10132000800A1D00630A1C00470A1B002C0A1B00D0
:10133000110A1A00F7091A00DD091900C409190079
:10134000AB091900920917007B09180063091700FF
:101350004C09160036091600200916000A09150066
:10136000F5081500E0081400CC081400B8081400B3
:10137000A4081400900813007D0812006B081300E5
:101380005808120046081200340811002308110002
:101390001208110001081100F0071000E00710000A
:1013A000D0071000C0071000B0070F00A107100001
:1013B00091070E0083070F0074070F0065070E00EA
:1013C00057070E0049070E003B070D002E070E00C1
:1013D00020070D0013070D0006070D00F9060C008D
:1013E000ED060D00E0060C00D4060C00C8060C004B
:1013F000BC060C00B0060C00A4060B0099060C00FD
:101400008D060B0082060B0077060B006C060B00A6
:1014100061060A0057060B004C060A0042060A0045
:1014200038060A002E060A0024060A001A060A00D8
:101430001006090007060A00FD050900F405090069
:10144000EB050900E2050900D9050900D0050900EE
:10145000C7050900BE050900B5050800AD0508006F
:10146000A50509009C050800940508008C050800E6
:10147000840508007C050800740508006C05070059
:10148000650508005D050700560508004E050700C4
:10149000470507004005080038050700310507002B
:1014A0002A050700230507001C050600160507008E
:1014B0000F0507000805060002050700FB040600EB
:1014C000F5040700EE040600E8040600E204070045
:1014D000DB040600D5040600CF040600C90406009C
:1014E000C3040600BD040600B7040600B1040500ED
:1014F000AC040600A6040600A00405009B04060038
:1015000095040500900406008A0405008504050082
:10151000800406007A0405007504050070040500C7
:101520006B04050066040500610405005C04050009
:1015300057040500520405004D0405004804050049
:10154000430405003E0404003A0405003504050088
:10155000300404002C0405002704040023040500C3
:101560001E0404001A0404001604050011040400FB
:101570000D04040009040500040404000004040030
:10158000FC030400F8030400F4030400F003040067
:10159000EC030400E8030400E4030400E003040097
:1015A000DC030400D8030400D4030400D0030400C7
:1015B000CC030400C8030300C503030024F404D9CA
:1015C000201BC40C5C0E9804C4095F0265077101FE
:1015D000F405F900FB04B30048048700C103690067
:1015E0005803550003034500BE023A00840231004F
:1015F00053022A002902250004022000E4011C00F5
:10160000C8011900AF0117009801140084011300EC
:10161000710110006101100051010E0043010D0025
:1016200036010B002B010B0020010B0015010900F6
:101630000C01090003010800FB000800F30008008A
:10164000EB000700E4000600DE000600D8000600FC
:10165000D2000600CC000500C7000500C20005004E
:10166000BD000400B9000400B5000400B10004008E
:10167000AD000400A9000400A5000300A2000300BF
:101680009F0004009B0003009800030095000200E7
:1016900093000300900003008D0002008B00030004
:1016A000880002008600020084000300810002001E
:1016B0007F0002007D0002007B0002007900020032
:1016C0007700010076000200740002007200010041
:1016D000710002006F0002006D0001006C0002004A
:1016E0006A00010069000200670001006600010055
:1016F0006500010064000200620001006100010059
:10170000600001005F0002005D0001005C0001005C
:101710005B0001005A00010059000100580001005F
:10172000570001005600010055000100540001005F
:10173000530000005300010052000100510001005D
:10174000500001004F0001004E0000004E0001005B
:101750004D0001004C0001004B0000004B00010057
:101760004A00010049000100480000004800010053
:10177000470001004600000046000100450000004F
:101780004500010044000100430000004300010047
:101790004200000042000100410000004100010041
:1017A000400001003F0000003F0001003E0000003B
:1017B0003E0001003D0000003D0001003C00000033
:1017C0003C0000003C0001003B0000003B00010029
:1017D0003A0000003A000100390000003900010021
:1017E0003800000038000000380001003700000019
:1017F000370001003600000036000000360001000E
:101800003500000035000000350001003400000004
:1018100034000000340001003300000033000000F9
:1018200033000100320000003200000032000100ED
:1018300031000000310000003100010030000000E4
:1018400030000000300001002F0000002F000000D9
:101850002F0000002F0001002E0000002E000000CD
:101860002E0001002D0000002D0000002D000000C2
:101870002D0001002C0000002C0000002C000000B6
:101880002C0001002B0000002B0000002B000000AA
:101890002B0001002A0000002A0000002A0000009E
:1018A0002A00010029000000290000002900000092
:1018B0002900000029000100280000002800000085
:1018C0002800000028000000280001002700000078
:1018D000270000002700000027000000270001006B
:1018E0002600000026000000260000002600000060
:1018F0002600010025000000250000002500000052
:101900002500000025000000250001002400000043
:101910002400000024000000240000002400010036
:10192000230000002300000023000000230000002B
:10193000230000002300000023000100220000001B
:10194000220000002200000022000000220000000F
:101950002200010021000000210000002100000001
:1019600021000000210000002100000021000100F2
:1019700020000000200000002000000020000000E7
:1019800020000000200000002000000020000100D6
:101990001F0000001F0000001F0000001F000000CB
:1019A0001F0000001F0000001F0001001E000000BB
:1019B0001E0000001E0000001E000000232C00007E
:1019C000B8220000561800003A0F0000B8080000C6
:1019D000B1040000710200003E01000020436F7559
:1019E0006E7420583A0000626564002C207379738D
:1019F00074656D2073746F70706564212048656133
:101A00007465725F49443A200048656174696E6785
:101A1000204661696C65640048656174696E672081
:101A20006661696C6564004572723A204D41585494
:101A3000454D50004D415854454D502074726967D2
:101A40006765726564004572723A204D494E54458F
:101A50004D50004D494E54454D5020747269676792
:101A60006572656400544845524D414C2052554EB4
:101A70004157415900546865726D616C2052756E12
:101A80006177617900202F002042403A0020403ADF
:101A90000070012C0190012701B0012201C0011D3D
:101AA00001F00118011002130130020E0160020959
:101AB0000190020401C002FF000003FA004003F598
:101AC000008003F000D003EB002004E6007004E186
:101AD00000E004DC004005D700C005D2004006CD80
:101AE00000D006C8008007C3003008BE00F008B967
:101AF00000C009B400B00AAF00B00BAA00D00CA51A
:101B000000000EA000500F9B00C0109600501291D4
:101B10000000148C00C0158700B0178200B0197D3A
:101B200000D01B7800001E730040206E00902269D8
:101B300000F024640040275F0090295A00E02B55F4
:101B400000102E500020304B0010324600E0334190
:101B50000090353C001037370070383200A0392D26
:101B600000B03A2800A03B2300603C1E00103D1945
:101B700000903D1400103E0F00703E0A00C03E056C
:101B800000003F0000403FFBFF803FF6FFC03FF1F9
:101B9000FF2020506C616E6E6572427566666572DC
:101BA00042797465733A20002046726565204D6560
:101BB0006D6F72793A2000436F6D70696C65643A9D
:101BC000204A756C20313520323032310A00204CE9
:101BD00061737420557064617465643A20323032E8
:101BE000312D30352D3135207C20417574686F7270
:101BF0003A2028457468657265616C2050726F6A7E
:101C0000656374205349444557494E444552205812
:101C10003120572F4D414E55414C204D45534829B9
:101C20000A00322E302E382E310A004D61726C6956
:101C30006E0020536F66747761726520526573651C
:101C4000740A00205761746368646F67205265737B
:101C500065740A002042726F776E206F757420528F
:101C6000657365740A002045787465726E616C2036
:101C700052657365740A00506F77657255700A007B
:101C800073746172740A00205A3A0020593A002095
:101C9000583A00656E6473746F7073206869743AA3
:101CA000200000002100240027002A002D00300021
:101CB000330001010000040107010A0100002200B5
:101CC000250028002B002E00310034000201000006
:101CD000050108010B0105050505070508080808A9
:101CE000020202020A0A08080404040401010101B4
:101CF00001010101030303030303030304070707AF
:101D00000C0C0C0C0C0C0C0C020202020606060653
:101D1000060606060B0B0B0B0B0B0B0B0102102020
:101D20002008081020401020408002010201080411
:101D300002010102040810204080804020100804A5
:101D400002018004020180402010080402010804FE
:101D50000201010204081020408001020408102042
:101D6000408000000A0B02090C0D0E080703040155
:101D70000000000000000000000000000000000063
:101D80000000000000000000000000000000121130
:101D90001000000000000000000000000000000033
:101DA0000000000000000000486F6D696E6720466B
:101DB00061696C656400FFFFFFDB0FC93F45BCDA5A
:101DC0003F8FB30240FCF0274056946140FE4B9B8E
:101DD0004084A5D840E0231841346A5641E8599719
:101DE0004164DBD5416E271742B4B75542CE1A97EE
:101DF00042C8AED542B5885A43D40684BFA65FA771
:101E0000BF7443E0BF10B11AC01C2C58C0E8F6974D
:101E1000C0B849D6C04E4E17C124D355C1802497AF
:101E2000C1A0B5D5C1121A17C244AE55C2781797D2
:101E3000C26CACD5C267885AC320746F6F206C6FB8
:101E40006E6720657874727573696F6E2070726545
:101E500076656E7465640A0020636F6C6420657833
:101E600074727573696F6E2070726576656E7465D5
:101E7000640A00220A00556E6B6E6F776E20636FE6
:101E80006D6D616E643A202200204500205A0020CA
:101E90005900204D39322058006F6B0A005265738B
:101EA000656E643A200020453A00205A3A002059D5
:101EB0003A00583A004572726F72207772697469FD
:101EC0006E6720746F20454550524F4D210A0050D7
:101ED00072696E7465722068616C7465642E206B23
:101EE000696C6C28292063616C6C6564210A0000B0
:101EF000238911241FBECFEFD1E2DEBFCDBF00E0AA
:101F00000CBF12E0A0E0B2E0E6E8F1E301E00BBFB5
:101F100002C007900D92AC3BB107D9F72EE0ACEBB5
:101F2000B2E001C01D92A737B207E1F71FE0C9E791
:101F3000DFE000E006C021970109802FFE010E942A
:101F4000A795C837D10780E00807A9F70E949D89A7
:101F50000C94C1980C940000FC0120818091190E12
:101F600090911A0E922728E0AC01880F991F57FD17
:101F700007C02150C9F790931A0E8093190E089547
:101F8000F1E28F27F0E19F27F4CF282F30E0F9010D
:101F9000EE59F24E9491F901E45EF24E44912A52C8
:101FA000334EF9012491222309F435C0992311F10C
:101FB00091509231F8F4E92FF0E08827ED51F04F7D
:101FC0008F4F0C94A79514101810F50F0C101010CB
:101FD000FA0F1B10211025102B102F103310391061
:101FE0003D10FA0F411047104B10809180008F7701
:101FF00080938000E22FF0E0EE0FFF1FE454F34ED9
:10200000A591B4918FB7F894EC91611148C04095B7
:102010004E234C938FBF0895809180008F7DE8CF31
:1020200080918000877FE4CF84B58F7784BDE2CF35
:1020300084B58F7DFBCF8091B0008F778093B00007
:10204000D9CF8091B0008F7DF9CF809190008F77AC
:1020500080939000CFCF809190008F7DF9CF8091B9
:102060009000877FF5CF8091A0008F778093A000AC
:10207000C1CF8091A0008F7DF9CF8091A000877F94
:10208000F5CF809120018F7780932001B3CF80918D
:1020900020018F7DF9CF80912001877FF5CF4E2BD6
:1020A000B8CF582F282F30E0F901E45EF24E44916A
:1020B000F901EA52F34E8491882399F090E0880F59
:1020C000991FFC01EE55F34EA591B491FC01E45427
:1020D000F34E859194918FB7F894EC91E42BEC93A7
:1020E0008FBF6115710519F460E0852F4ECF6F3FEA
:1020F000710511F461E0F9CFF901EE59F24EE49166
:10210000E150E23108F0B0C0F0E08827E557FF4E1B
:102110008F4F0C94A7959D10A210A710B110BB1063
:102120003411C510CD10D510DF10E910F3100211D5
:102130000C113411161120112A1184B5806884BD48
:1021400067BD089584B5806284BD68BD089580919F
:10215000800080688093800070938900609388007D
:1021600008958091800080628093800070938B003E
:1021700060938A0008958091800088608093800039
:1021800070938D0060938C0008958091B0008068FA
:102190008093B0006093B30008958091B000806296
:1021A0008093B0006093B40008958091900080689F
:1021B00080939000709399006093980008958091A7
:1021C000900080628093900070939B0060939A00CF
:1021D00008958091900088608093900070939D0096
:1021E00060939C0008958091A00080688093A00077
:1021F0008091A0008F7B8093A0007093A9006093D2
:10220000A80008958091A00080628093A000709340
:10221000AB006093AA0008958091A000886080932D
:10222000A0007093AD006093AC00089580912001F0
:10223000806880932001709329016093280108959C
:102240008091200180628093200170932B01609324
:102250002A01089580912001886080932001709365
:102260002D0160932C010895603871050CF042CF68
:102270003BCF3FB7F89480915B0690915C06A091AC
:102280005D06B0915E0626B5A89B05C02F3F19F0EC
:102290000196A11DB11D3FBFBA2FA92F982F8827E6
:1022A000BC01CD01620F711D811D911D42E0660FC1
:1022B000771F881F991F4A95D1F708958F929F9293
:1022C000AF92BF92CF92DF92EF92FF926B017C01AF
:1022D000D0DF4B015C01C114D104E104F104B1F081
:1022E000C8DF681979098A099B09683E734081052E
:1022F000910588F321E0C21AD108E108F10888EEBF
:10230000880E83E0981EA11CB11CE5CFFF90EF90D2
:10231000DF90CF90BF90AF909F908F9008952FB790
:10232000F8946091570670915806809159069091E3
:102330005A062FBF089561157105C1F002966650C7
:1023400071098617970794F49093140E8093130ED7
:10235000E6DF605E714B8F4F9F4F6093150E709359
:10236000160E8093170E9093180E08951092150E66
:102370001092160E1092170E1092180E08958F924A
:102380009F92AF92BF92CF92DF92EF92FF920F9304
:102390001F93CF93DF93B0E4A0E06A2F70E0AB010E
:1023A0004B0F511D55954795411119C0E3E9FAE1CD
:1023B00065917491072E000C880B990B0E945B911C
:1023C000DF91CF911F910F91FF90EF90DF90CF9011
:1023D000BF90AF909F908F900895B42FE0CFA41737
:1023E00011F0B41303C0EFE8FBE1E2CF9A012150F2
:1023F0003109220F331F220F331FF901EF56F54E1B
:10240000E590F490F901EB56F54EC591D4918E15F7
:102410009F051CF3A42FC817D9070CF4BECFF901F0
:10242000ED56F54E05911491F901E956F54EC5901A
:10243000D490BC016E197F09072E000C880B990BF4
:102440000E945B914B015C01B601601B710B072E72
:10245000000C880B990B0E945B919B01AC01C5019C
:10246000B4010E94BA914B015C01BE016E197F0953
:10247000072E000C880B990B0E945B919B01AC010D
:10248000C501B4010E94AA966B017C01B801110F2D
:10249000880B990B0E945B919B01AC01C701B601AF
:1024A0000E94CE958DCFCF93DF93C6EED9E120E089
:1024B00030E048E452E460916404709165048091D6
:1024C0006604909167040E94F49787FF17C080E02C
:1024D000FE01C4912091020190E0B0E0A0E004C0B0
:1024E000B695A79597958795CA95D2F780FD14C0A4
:1024F000207120930001DF91CF910895FE01249176
:1025000081E090E0A0E0B0E004C0880F991FAA1F0E
:10251000BB1F2A95D2F7DCCF2095EACF80910C041F
:10252000882339F06091560E7091570E8091580EA5
:10253000089560E070E080E00895BC012091ED0313
:102540003091EE034091ED035091EE0324173507CF
:1025500031F481E02617370709F080E008959A01E9
:10256000F1CFEF92FF920F931F93E092C902F09286
:10257000CA020093CB021093CC026093CD027093F9
:10258000CE028093CF029FEFFF27621B730B840B59
:1025900030F4809570956195790B890B992790930C
:1025A000C802A6E06A9F0092BC02512DEE277A9FD6
:1025B000500DE11D8A9FE00D5093BD02E093BE02D5
:1025C000AFE06A9F0092C002512DEE277A9F500D16
:1025D000E11D8A9FE00D5093C102E093C202AAE080
:1025E0006A9F0092C402512DEE277A9F500DE11D83
:1025F0008A9FE00D5093C502E093C6021F910F9190
:10260000FF90EF90089580917C0480FF1EC0899810
:102610008FEF80939D0380917C04869580FF18C086
:102620008F988FEF80939E0380917C04869586958A
:1026300080FF11C080910B01809582708093090109
:10264000439A8FEF80939F030895899A81E0E1CFA9
:102650008F9A81E0E7CF80910B018270809309010E
:10266000439881E0EFCFCF93DF9380915D03811199
:1026700019C0C0911E02D0911F02219720E030E0C6
:1026800040E05FE3609164047091650480916604AA
:10269000909167040E94CE950E94129721E06C17DA
:1026A0007D070CF020E0822FDF91CF9108959F925B
:1026B000AF92BF92CF92DF92EF92FF920F931F9350
:1026C000CF93DF9300D01F921F92CDB7DEB7E1E822
:1026D000FDE00027BB27462F572FA82FAA2341F440
:1026E000A52F542FB85FAA2319F4A52F5527B85F3B
:1026F000A03138F45295A295452F4F70507FA42BEE
:10270000BC5FA03428F4550FAA1F550FAA1FBE5F47
:10271000A03818F4550FAA1FB395550FAA1FEA0F3A
:10272000F01F449151E0AA27B85079F1C0F0B0FFF2
:1027300002C0440F551FB1FF04C0440F551F440F82
:10274000551FB2FF06C052954295142F1F70407F4F
:10275000512BB3FF1AC0A52F542F442716C0B19593
:10276000B0FF02C055954795B1FF04C055954795F8
:1027700055954795B2FF05C05295407F4295452B30
:102780005F70B3FF02C0452F5527DD24CC24BB2446
:10279000B2E0649FD018C108B00AB00B749FC01893
:1027A000B108B00B849FB018B109659FC018B1087B
:1027B000B00B759FB018B109859FB0196A9FB0180A
:1027C000B1097A9FB0194D9DA12C992433279927DF
:1027D00022275D9DA00C911C301F901F201FAD9DD6
:1027E000900C311D901F201F4C9DA00C911C301F80
:1027F000901F201F5C9D900C311D901F201FAC9DD1
:10280000300D911D201F4B9D900C311D901F201FDE
:102810005B9D300D911D201FAB9D900D211D4B9F89
:10282000300D911D201F5B9F900D211DAB9F200D32
:10283000B1E0BB24CC24DD24639FD018C108B00ACA
:10284000B00B739FC018B108B00B839FB018B109CB
:10285000699FC018B108B00B799FB018B109899F62
:10286000B019629FB018B109729FB019D61AC70A81
:10287000B80A20F0B1E03B0F901F201F1124792FE0
:10288000632F90E0822F0F900F900F900F900F907A
:10289000DF91CF911F910F91FF90EF90DF90CF903C
:1028A000BF90AF909F900895CF92DF92EF92FF92EA
:1028B00080916E03882309F457C0C0906A03D090BA
:1028C0006B03E0906C03F0906D0320E030E0A90111
:1028D000C701B6010E945591882309F445C020E044
:1028E00030E040E05FE3C701B6010E94BA919B016E
:1028F000AC010E94BA912BED3FE049E450E40E9404
:10290000BA919B01AC0160E070E080E89FE30E9417
:10291000AA966B017C01C0925903D0925A03E092AF
:102920005B03F0925C0360911C0270911D02072E04
:10293000000C880B990B0E945B912AE037ED43E273
:102940005CE30E94BA91A70196010E94BA9160933C
:102950005402709355028093560290935702FF9051
:10296000EF90DF90CF900895C12CD12C80E8E82E15
:102970008FE3F82ED0CF8091300E9091310E891BCD
:102980008F7019F490E080E0089590912D0E9923B6
:1029900051F0833030F48FEF890F19F080932D0EB2
:1029A000F1CF10922D0E8091310E22E6829FC00150
:1029B00011248C55994FFC01208120FDE3CF2091FB
:1029C000310E2F5F2F7020932E0E3091310E2091FB
:1029D0002F0E321304C020912E0E20932F0E089537
:1029E0002F923F924F925F926F927F928F929F921F
:1029F000AF92BF92CF92DF92EF92FF920F931F930D
:102A0000CF93DF93CDB7DEB762970FB6F894DEBFF2
:102A10000FBECDBF788B6F87DC018D909D90AD9000
:102A2000BC90139714962D913D914D915C91179701
:102A30002D833E834F83588720E030E040EF51E400
:102A4000C501B4010E94CD9529E838E848E05CE36F
:102A50000E94BA910E94129716160CF024C161E0F0
:102A6000E62E660FFF08F701EE0FFF1FEE0FFF1FA8
:102A7000EB59F14F408051806280738087010F5F76
:102A80001F4F20E030E040EF51E46D817E818F8167
:102A900098850E94CD952FE632E143E05CE30E94E9
:102AA000BA910E94129716160CF001C161E0E62F50
:102AB000660FFF0BFA8BE98BEE0FFF1FEE0FFF1F68
:102AC000EB59F14F208131814281538129833A832F
:102AD0004B835C8329883A883FEF231A330AB70176
:102AE000660F771FAB014E0D5F1D5A874987FA01AC
:102AF00089899A89E80FF91FEE0FFF1FEE0FFF1F5C
:102B0000E159FC4FC080D180E280F380F801EE0FE4
:102B1000FF1FEE0FFF1FEB59F14FA30192016081E0
:102B20007181828193810E94CD956B877C878D878F
:102B30009E87A3019201C501B4010E94CD952B018E
:102B40003C01C801880F991F080F191FA989BA896C
:102B5000A00FB11FAA0FBB1FAA0FBB1FA159BC4FCB
:102B6000A70196016D917D918D919C910E94CD95CB
:102B70002B853C854D855E850E94AA96A301920116
:102B80000E94BA91A70196010E94CE956B017C012B
:102B9000E985FA85E20DF31DEE0FFF1FEE0FFF1F13
:102BA000E159FC4F80809180A280B380020D131DFB
:102BB000F801EE0FFF1FEE0FFF1FE159FC4FA501BB
:102BC000940160817181828193810E94CD952B85D2
:102BD0003C854D855E850E94AA96A30192010E94C4
:102BE000BA91A50194010E94CE95A70196010E9479
:102BF000CD954B015C01F101EE0FFF1FEE0FFF1FA2
:102C0000EB59F14F29813A814B815C81608171815F
:102C1000828193810E94CD959B01AC01C501B401D5
:102C20000E94AA964B015C0129813A814B815C810B
:102C30006D817E818F8198850E94CD959B01AC012D
:102C4000C501B4010E94BA91A70196010E94CE95D8
:102C5000EF85F88920813181428153810E94BA91A8
:102C600020919303309194034091950350919603E2
:102C70000E94CE9562960FB6F894DEBF0FBECDBF10
:102C8000DF91CF911F910F91FF90EF90DF90CF9048
:102C9000BF90AF909F908F907F906F905F904F907C
:102CA0003F902F90089567FFDBCE60E0D9CE67FF9D
:102CB000FECE60E0FCCE90916F0081E091FD02C0FD
:102CC00080E0089590916F009D7F90936F0008952C
:102CD000EFE6F0E08081826080830895CF93C82F73
:102CE000EADF94E0C99F90011124F901E051FC4F03
:102CF00024503C4FD9014D915D916D917C91408361
:102D000051836283738391E09093EF03882311F0E2
:102D1000CF91DECFCF910895CF92DF92EF92FF92C5
:102D2000CF93DF93C82FC7DF94E0C99FE001112440
:102D3000FE01E450FC4FC080D180E280F38081111D
:102D4000C7DFCE56D94FC701B6010E945B912881DB
:102D500039814A815B810E94BA91DF91CF91FF90C6
:102D6000EF90DF90CF900895CF92DF92EF92FF9295
:102D7000CF93DF93C82F9FDF94E0C99FE001112418
:102D8000FE01E051FC4FC080D180E280F3808111D0
:102D90009FDFCE56D94FC701B6010E945B912881B3
:102DA00039814A815B810E94BA91DF91CF91FF9076
:102DB000EF90DF90CF9008958F929F92AF92BF9245
:102DC000CF92DF92EF92FF92CF93DF93EC0180904E
:102DD000180D9090190DA0901A0DB0901B0D20E0C9
:102DE00030E0A901C501B4010E945591882309F47E
:102DF00052C0C880D980EA80FB80A7019601C50136
:102E0000B4010E94559118160CF04AC020910F0D84
:102E10003091100D4091110D5091120DC701B60166
:102E20000E945591882321F1C0920F0DD092100D70
:102E3000E092110DF092120D2091130D3091140DAE
:102E40004091150D5091160DC701B6010E94BA911F
:102E50009B01AC0160E070E080E89FE30E94CD95AB
:102E6000609318027093190280931A0290931B02C8
:102E7000609118027091190280911A0290911B02C0
:102E8000DF91CF91FF90EF90DF90CF90BF90AF9008
:102E90009F908F90089560E070E080E89FE3F0CF0E
:102EA00060E070E0CB01ECCF0F931F93CF93DF93E3
:102EB00000D01F92CDB7DEB78C0108967DDF698305
:102EC0007A838B839C83BE016F5F7F4FC80188DD4F
:102ED0009B01AC01F80160857185828593850E9414
:102EE000CD95F80160877187828793870F900F9047
:102EF0000F900F90DF91CF911F910F9108950F9335
:102F00001F93CF93DF9300D01F92CDB7DEB72091F0
:102F1000170D2223D1F08C0108964EDF69837A8346
:102F20008B839C83BE016F5F7F4FC80159DD9B017E
:102F3000AC01F80160857185828593850E94CE95EC
:102F4000F80160877187828793870F900F900F90A9
:102F50000F90DF91CF911F910F9108950F931F93C1
:102F6000E62FDC01FC910F2F10E030E020E0062E70
:102F700004C036952795179507950A94D2F700FF58
:102F80001CC00091480310E030E020E004C03695FA
:102F90002795179507956A95D2F700FF0EC041E077
:102FA00050E060E070E004C0440F551F661F771FBB
:102FB000EA95D2F740954F234C931F910F910895B6
:102FC000CF93DF9324E0829FC0011124EC01CB5FFB
:102FD000D14FFC01E158FB4F865C9C4FDC012D91E9
:102FE0003D914D915C9160817181828193810E94BC
:102FF000CE95688379838A839B83DF91CF910895EF
:10300000CF93DF931F92CDB7DEB7898360E0CE0107
:103010000196A4DF61E0CE010196A0DF62E0CE015F
:1030200001969CDF89810F90DF91CF9108958F9257
:103030009F92AF92BF92CF92DF92EF92FF92CF9387
:10304000DF9320912002222309F45CC0EC018091DF
:103050004803C82ED12CF12CE12C80FF16C08090A3
:103060002E0290902F02A0903002B0903102288161
:1030700039814A815B81C501B4010E94559187FF66
:1030800004C088829982AA82BB82D701C601B69504
:10309000A7959795879580FF16C0809032029090F3
:1030A0003302A0903402B09035022C813D814E81D4
:1030B0005F81C501B4010E94559187FF04C08C82D5
:1030C0009D82AE82BF8282E0F694E794D794C79443
:1030D0008A95D1F7C0FE16C0C0903602D090370254
:1030E000E0903802F0903902288539854A855B8561
:1030F000C701B6010E94559187FF04C0C886D986D2
:10310000EA86FB86DF91CF91FF90EF90DF90CF9022
:10311000BF90AF909F908F900895CF92DF92EF92E3
:10312000FF9280912D0365995FC0816080932D038C
:103130009091030180912D0391FD58C0826080938E
:103140002D0380912D034B9953C0846080932D03F0
:10315000C090E003C0FE0FC080917C0480FF0BC0D4
:1031600080912D0380FF07C080915F06816080936E
:103170005F0680E0B3DDD12CF12CE12CD701C60134
:10318000B695A7959795879580FF10C080917C0490
:10319000869580FF0BC080912D0381FF07C0809131
:1031A0005F06826080935F0681E098DD82E0F6949E
:1031B000E794D794C7948A95D1F7C0FE1BC080913D
:1031C0007C048695869580FF15C080912D0382FF33
:1031D00011C080915F06846080935F0682E0FF905B
:1031E000EF90DF90CF907ACD8E7FA0CF8D7FA7CF4D
:1031F0008B7FACCFFF90EF90DF90CF9008950F932F
:103200001F9380912C03813011F589D800912403FC
:10321000109125032091260330912703601B710B29
:10322000820B930B28EE33E040E050E00E942F9594
:1032300060912003709121038091220390912303D8
:10324000620F731F841F951F1F910F910895609146
:1032500028037091290380912A0390912B03D6CFE4
:1032600010922C031092240310922503109226032F
:1032700010922703109228031092290310922A0318
:1032800010922B031092200310922103109222031C
:1032900010922303089580912C038130D9F082305D
:1032A000B9F4ADDF60932003709321038093220370
:1032B0009093230381E080932C0331D860932403FF
:1032C00070932503809326039093270381E008954C
:1032D000C7DFF0CF80E0089580912C0381508230C9
:1032E00068F410922C031BD8609328037093290371
:1032F00080932A0390932B0381E0089580E0089542
:10330000CF93DF93C0915104D0915204209729F1BB
:1033100060914D0470914E0480914F04909150043F
:103320000E9412976E5F7F4F24976C177D07ACF455
:1033300070933804609337040E948F11605A75416E
:103340008F4F9F4F6093390470933A0480933B04EE
:1033500090933C04DF91CF9108951092390410921C
:103360003A0410923B0410923C04F4CFCF93DF93C5
:1033700010924104C0E6D4E0198618866C817D81E4
:103380008E819F810E941297CB0170E060E00E94C5
:103390009B111A862C98C9E4D4E019861886B0DFF0
:1033A0001A8680910201807280930001DF91CF9193
:1033B000089590E080E00895282F9091F5028330E1
:1033C00021F495FD0FC094FD0FC0892F90E0B0E06F
:1033D000A0E004C0B695A795979587952A95D2F752
:1033E0008170089581E0089580E008952FEB280F03
:1033F0002A3108F047C0E22FF0E08091120390914B
:103400001303A0911403B091150304C0B695A795BA
:10341000979587952A95D2F780FD02C0817008950F
:10342000E850FD4FE081EE2341F18091C50C909171
:10343000C60CE80FF92FF11D808190ED980F9A309E
:1034400030F08E3251F4818180538A3098F4F093B9
:10345000F202E093F10281E008958D3211F08B3297
:1034600049F4818190ED980F9A3088F38E3211F4EF
:103470008281EACFF0E0E0E0EACF1092F20210920F
:10348000F102E9CF80E00895B1DF882341F081E0C7
:103490002091F1023091F202232B09F480E008958B
:1034A000CF93DF93EC01688170E085E00E945110BA
:1034B000698170E084E00E9451106A8170E086E0CA
:1034C0000E94511088819981482F490F5527551F17
:1034D0008A81840F952F911D21E0833091050CF492
:1034E00020E020930C0403976CF05EE0C635D5070E
:1034F00049F088819981AA818093560E9093570E46
:10350000A093580EDF91CF9108958F929F92AF9222
:10351000BF92CF92DF92EF92FF92CF93DF9300D0D2
:10352000CDB7DEB72FEF8417950731F16A01052E6D
:10353000000CEE08FF084C01092E000CAA08BB087D
:10354000681779072CF0CB01461757070CF4CA010E
:103550009C01990F440B550B281939094A095B093D
:10356000AFEFB0E00E946D95A701960128193909C7
:103570004A095B090E94519580911F03821751F0FF
:1035800020931F038FEF89831A8220952B83CE010E
:10359000019686DF0F900F900F90DF91CF91FF90F3
:1035A000EF90DF90CF90BF90AF909F908F90089555
:1035B0008F929F92AF92BF92CF92DF92EF92FF9243
:1035C000CF93DF9300D0CDB7DEB72FEF84179507E9
:1035D00031F16A01052E000CEE08FF084C01092E9E
:1035E000000CAA08BB08681779072CF0CB01461716
:1035F00057070CF4CA019C01990F440B550B28196D
:1036000039094A095B09AFEFB0E00E946D95A70147
:103610009601281939094A095B090E945195809140
:103620001F03821749F020931F0329831A828FEF0B
:103630008B83CE01019634DF0F900F900F90DF91B6
:10364000CF91FF90EF90DF90CF90BF90AF909F9081
:103650008F900895CF93DF93CFE6D3E020E030E062
:10366000A901688179818A819B810E94559181118C
:103670001FC020E030E0A9016C817D818E819F8197
:103680000E945591811114C020E030E0A9016885A5
:1036900079858A859B850E945591811109C02C9658
:1036A00083E0C339D807D1F680E0DF91CF91089548
:1036B00081E0FBCF129A08955F9A80917D048E7FFE
:1036C00080937D048A9A80917D048D7F80937D0410
:1036D000809108018095817080930601479A8091BE
:1036E0007D048B7F80937D04E5CF81E008959091E8
:1036F000C00095FFFCCF8093C6000895CF93DF9361
:10370000EC018991882311F0F2DFFBCF8DE0EFDF30
:103710008AE0DF91CF91EBCFCF92DF92EF92FF92D1
:103720000F931F93CF93DF93CDB7DEB7A0970FB65C
:10373000F894DEBF0FBECDBF442309F443C061152A
:1037400071058105910571F100E0C42ED12CF12C99
:10375000E12CA70196010E942F9511E0100FE1E0E6
:10376000F0E0EC0FFD1FE00FF11D07FDFA956083FF
:10377000B901CA01012F611571058105910549F74C
:10378000115000F1E1E0F0E0EC0FFD1FE10FF11D41
:1037900017FDFA95908187E39A3008F480E3890F4A
:1037A000A6DFEECF80E3A0960FB6F894DEBF0FBE83
:1037B000CDBFDF91CF911F910F91FF90EF90DF90E0
:1037C000CF9095CFA0960FB6F894DEBF0FBECDBFB9
:1037D000DF91CF911F910F91FF90EF90DF90CF90ED
:1037E0000895682F70E090E080E04AE095CFBC013A
:1037F00090E080E04AE090CF8F929F92AF92BF928C
:10380000CF92DF92EF92FF92CF936B017C01B42EA7
:1038100020E030E0A9010E94559187FF06C08DE2AB
:1038200066DFF7FAF094F7F8F094C0E060E070E03B
:1038300080E09FE3CB1541F02DEC3CEC4CEC5DE3DC
:103840000E94BA91CF5FF6CFA70196010E94CE9554
:103850006B017C010E9417974B015C014AE05CDF21
:10386000CC2369F1C501B4010E9459919B01AC01BF
:10387000C701B6010E94CD956B017C018EE237DF56
:10388000C150E8F020E030E040E251E4C701B60169
:103890000E94BA916B017C010E9417974B015C0159
:1038A0004AE03ADFC501B4010E9459919B01AC0185
:1038B000C701B6010E94CD956B017C01E1CFCF918C
:1038C000FF90EF90DF90CF90BF90AF909F908F9040
:1038D0000895CF92DF92EF92FF92CF936B017C011C
:1038E000C42F4A3061F4F7FE0AC0F094E094D094FB
:1038F000C094C11CD11CE11CF11C8DE2F8DE4C2FE0
:10390000C701B601CF91FF90EF90DF90CF9004CF29
:10391000BC01990F880B990B4AE0DBCFCF93DF9363
:10392000EC018991882311F0E2DEFBCFDF91CF918A
:103930000895CF93DF93EC01FE01849121968823B3
:1039400011F0D5DEF9CFDF91CF910895EF92FF927C
:103950000F931F93CF937C018B01C2E44F3F09F07B
:10396000C4E580E2C4DE8C2FC2DE8AE3C0DEF7014C
:10397000608171818281938142E03EDF85E89AE136
:10398000D8DFF801608171818281938142E034DF68
:1039900062E070E080E090E0CF911F910F91FF9086
:1039A000EF900C945E11CF93C82FCB01C2DF83E15F
:1039B0009BE0BFDF84E09BE0CC2311F089E09BE03B
:1039C000B8DF8AE0CF9193CECF9388E29BE0B1DF5E
:1039D0008CB1C1E085FB882780F962E27BE08C270F
:1039E000E2DF80910301869581706CE17BE08C279A
:1039F000DADF89B183FB882780F966E17BE08C27D9
:103A0000CF91D1CF0F931F93CF938C01C62F85E712
:103A100099E08FDFC8018DDF8AE369DE80E38C0FD8
:103A200066DE8AE0CF911F910F9161CECF93DF9335
:103A3000EB017FDFCE01DF91CF91D9CECF92DF9224
:103A4000EF92FF926A017B0174DF42E0C701B60189
:103A5000FF90EF90DF90CF90CFCE4F925F926F921A
:103A60007F928F929F92AF92BF92CF92DF92EF920E
:103A7000FF920F931F93CF93DF93C8E5D2E04C845E
:103A80005D846E847F8405E01EE0F8012481358129
:103A9000468157816C817D818E819F810E94CE9568
:103AA0004B015C01F801208531854285538568858D
:103AB00079858A859B850E94CE956B017C01F801F2
:103AC0002081318142815381688179818A819B8102
:103AD0000E94CE95AB01BC0182EB9EE1AFDFB50148
:103AE000A4018EEA9EE1AADFB701A6018AEA9EE15F
:103AF000A5DFB301A20186EA9EE1DF91CF911F917C
:103B00000F91FF90EF90DF90CF90BF90AF909F907C
:103B10008F907F906F905F904F9090CFCF92DF9279
:103B2000EF92FF926A017B0104DF4AE0C701B60110
:103B3000FF90EF90DF90CF90CCCEECE1FDE0808164
:103B4000818340919E0D50919F0D6091A00D7091C9
:103B5000A10D4F5F5F4F6F4F7F4F8DE99EE1DEDF1D
:103B60008AE0C5DD89E99EE1E4CECF93DF93EC01E5
:103B7000488159816A817B818CED99E1CFDF4C814D
:103B80005D816E817F818EEA9EE1C8DF488559851F
:103B90006A857B858AEA9EE1C1DF8AE0DF91CF9169
:103BA000A6CDCF93DF93CDB7DEB72C970FB6F894A1
:103BB000DEBF0FBECDBF51DF7ED89CE0ECEFF3E05F
:103BC000DE01119601900D929A95E1F7811180D84E
:103BD000CE010196CADF2C960FB6F894DEBF0FBE59
:103BE000CDBFDF91CF910895CF93DF93EB01A1DE9D
:103BF000CE01DF91CF918CCE1F93CF93DF9300D076
:103C000000D01F921F92CDB7DEB7182F60916804C5
:103C100070916904072E000C880B990B0E945B9130
:103C20006D837E838F83988780916404909165046F
:103C3000A0916604B091670489839A83AB83BC83A7
:103C40004AEFBE016B5F7F4FCE0101967FDE609130
:103C5000510470915204072E000C880B990B0E949E
:103C60005B916D837E838F83988780914D049091C3
:103C70004E04A0914F04B091500489839A83AB8382
:103C8000BC834FEFBE016B5F7F4FCE0101965EDEBE
:103C9000609153041F3F39F087E11802F0011124AD
:103CA000E05AFB4F628570E08DE89AE19DDF6091FC
:103CB000530470E088E89AE197DF28960FB6F894ED
:103CC000DEBF0FBECDBFDF91CF911F91089585E27A
:103CD00093E02FCE8FE193E02CCEEC01162F46DB44
:103CE000209729F0F7DFCE0124DE8AE000DDEFDF48
:103CF0008FEC9EE11EDE89EE93E030E6019729F01D
:103D0000232F2A950000E9F7F9CFF89489EE93E084
:103D100038EE019729F0232F2A950000E9F7F9CF13
:103D200025DB112319F0C8DCA895FECFC3DCFCCF3E
:103D3000EF92FF920F931F93CF93C82F7B018A01BD
:103D400080917E04833070F0C2DFC701F2DD8BEE1C
:103D500099E1EFDDC7FD15C08C2FCC0F990BD8DD95
:103D60008AE0C5DC03DBA89580910D0481110DC0AC
:103D700081E080930D0482E080937E0460E0C801BE
:103D8000ACDF87EE99E1D5DDEBCFCF911F910F919D
:103D9000FF90EF9008954F925F926F927F928F9273
:103DA0009F92AF92BF92CF92DF92EF92FF920F93CA
:103DB0001F93CF93DF93EC016B014A01B22EFA01FE
:103DC0004080518062807380A30192016D817E8169
:103DD0008F8198850E9455918823A1F04D825E8243
:103DE0006F827886AA24A39420E030E0A901F40130
:103DF00060817181828193810E94F49718160CF082
:103E0000A12CAC828C818230A1F0833009F45AC09D
:103E10008130C9F52D813E814F815885F601608141
:103E20007181828193810E94559187FD2CC082E02F
:103E30008C83B701FF0C880B990B0E945B919B014F
:103E4000AC016D817E818F8198850E94CD959B010B
:103E5000AC01F60160817181828193810E94F497A7
:103E600087FD22C00E948F116B017C019801A8EE92
:103E7000B3E00E947795C60ED71EE81EF91EC882D1
:103E8000D982EA82FB82DF91CF911F910F91FF903F
:103E9000EF90DF90CF90BF90AF909F908F907F90EA
:103EA0006F905F904F9008950E948F110881198143
:103EB0002A813B81601B710B820B930B97FDE3CF33
:103EC00083E08C8345E65AE165E77AE18B2DDF914B
:103ED000CF911F910F91FF90EF90DF90CF90BF9007
:103EE000AF909F908F907F906F905F904F9020CF7A
:103EF000882379F1EFDE4091DB0C5091DC0C60916E
:103F0000DD0C7091DE0C82E99EE198DD4091DF0CC2
:103F10005091E00C6091E10C7091E20C8FE89EE111
:103F20008DDD4091E30C5091E40C6091E50C7091B3
:103F3000E60C8CE89EE182DD4091E70C5091E80CA4
:103F40006091E90C7091EA0C89E89EE177DD8AE0E6
:103F5000CECB80E2CCDBCFCFCF93DF93BBDEC09163
:103F6000C50CD091C60C86E79EE1E3DCCE01D6DC21
:103F700083E79EE1DF91CF91DCCC0F931F93CF932A
:103F800081110FC0C42F8B01A5DE8EED9EE0D1DC28
:103F9000C801CFDCCC2329F08AE0CF911F910F918B
:103FA000A6CBCF911F910F910895CF938093F702E5
:103FB0009091C40C91FF11C0C82F8CDE84E699E06B
:103FC000B8DC80E699E0C23031F08CE599E0C13090
:103FD00011F488E599E0CF91ACCCCF910895809110
:103FE0001C0D90911D0D2FEF3FEF981751F0E92F09
:103FF000F0E0E45EF24F228130E09F5F9F77909384
:104000001D0DC90108950F931F93CF938C01C62FE7
:104010005EDE40919E0D50919F0D6091A00D7091BC
:10402000A10DC8017BDD8AE062DBD9DF0196E9F7EB
:104030008C2F83DD1092A30D1092A20DCF911F91B2
:104040000F9108958F929F92AF92BF92CF92DF927D
:10405000EF92FF920F931F93CF93DF93B0E4A0E012
:104060006A2F70E0AB014B0F511D559547954111DB
:1040700019C0E3E9FAE165917491072E000C880BF1
:10408000990B0E945B91DF91CF911F910F91FF904F
:10409000EF90DF90CF90BF90AF909F908F9008955A
:1040A000B42FE0CF4A1711F0B41303C0EFE8FBE1DF
:1040B000E2CF9A0121503109220F331F220F331F03
:1040C000F901EF56F54EE590F490F901EB56F54EF7
:1040D000C591D4918E159F051CF3A42FC817D9073D
:1040E0000CF4BECFF901ED56F54E05911491F9018E
:1040F000E956F54EC590D490BC016E197F09072E84
:10410000000C880B990B0E945B914B015C01B6017E
:10411000601B710B072E000C880B990B0E945B91A2
:104120009B01AC01C501B4010E94BA914B015C0135
:10413000BE016E197F09072E000C880B990B0E9497
:104140005B919B01AC01C501B4010E94AA966B0171
:104150007C01B801110F880B990B0E945B919B01A8
:10416000AC01C701B6010E94CE958DCFCF93DF93EE
:10417000A895809162049091630464DF6093640465
:1041800070936504809366049093670480914B0458
:1041900090914C040E94BF1160934D0470934E04A3
:1041A00080934F0490935004C0916204D0916304B3
:1041B00080914E0290914F02C817D90734F447E21C
:1041C0005AE164E37AE180E0B3DD80916804909184
:1041D0006904181619066CF480914C0290914D02F6
:1041E0008C179D0734F446E45AE163E57AE180E0F8
:1041F0009FDD20914B0430914C0480917804909184
:1042000079042817390734F447E25AE164E37AE184
:104210008FEF8EDD8091510490915204181619068B
:104220009CF420914B0430914C0480914A0290916F
:104230004B028217930744F446E45AE163E57AE1BE
:104240008FEFDF91CF9174CDDF91CF9108952F92B1
:104250003F924F925F926F927F928F929F92AF9216
:10426000BF92CF92DF92EF92FF920F931F93CF9363
:10427000DF93CDB7DEB763970FB6F894DEBF0FBEFE
:10428000CDBF80917E048823E9F0809142048111A2
:104290001BC063960FB6F894DEBF0FBECDBFDF9193
:1042A000CF911F910F91FF90EF90DF90CF90BF9033
:1042B000AF909F908F907F906F905F904F903F90C6
:1042C0002F900895A895E5CF51DF109242040E94E7
:1042D0008F114B015C016091520270915302072EC5
:1042E000000C880B990B0E945B912B013C01AC01E7
:1042F0009B016091640470916504809166049091C3
:1043000067040E94F49718160CF433C16091680496
:1043100070916904072E000C880B990B0E945B9129
:1043200069837A838B839C8334E0E32EF12C08E24B
:1043300010E020E0AE014F5F5F4F64E674E08BE178
:104340009EE029DDC0906404D0906504E09066048E
:10435000F09067046091500270915102072E000C9A
:10436000880B990B0E945B919B01AC01C701B601C0
:104370000E94F49718164CF4A7019601C301B201EC
:104380000E94F49718160CF405C260E060936A046A
:104390008091150E9091160EA091170EB091180EE7
:1043A0000097A105B10569F1A5019401281B390BFE
:1043B0004A0B5B0BDA01C901B7FD23C0C701B60187
:1043C0000E9412972091130E3091140E62177307FA
:1043D0000CF4F2C220916804309169042115310572
:1043E00041F06E5F7F4F26503109621773070CF45E
:1043F000FFC21092150E1092160E1092170E109208
:10440000180E80913D0490913E04A0913F04B0911C
:104410004004A5019401281B390B4A0B5B0BDA0100
:10442000C901B7FD10C00E945312D501C4018C53BD
:10443000964FAF4FBF4F80933D0490933E04A0939F
:104440003F04B093400420E030E040EF52E460913C
:104450004D0470914E0480914F04909150040E943D
:10446000F49718160CF47EC08091390490913A04A8
:10447000A0913B04B0913C040097A105B105B1F1B6
:10448000881A990AAA0ABB0AB7FC30C060914D0489
:1044900070914E0480914F04909150040E941297A5
:1044A000209137043091380462177307CCF0E09103
:1044B0005104F0915204309751F0AB014E5F5F4FC1
:1044C0009F0124503109421753070CF4A4C21092E3
:1044D000390410923A0410923B0410923C040AC032
:1044E00049E05AE168E17AE18FEF22DCE091510482
:1044F000F0915204BF01FF0F880B990B0E945B9152
:1045000069837A838B839C8392E0E92EF12C04E10A
:1045100010E02FEFAE014F5F5F4F6DE474E084E277
:104520009EE039DC40904D0450904E0460904F0462
:104530007090500420E030E040EA50E4C301B20142
:104540000E94F49787FD0AC020E030E040EF52E47B
:10455000C301B2010E945591181694F460E0609373
:10456000530497CE47E25AE164E37AE18FEFE0DB50
:104570007BCF47E25AE164E37AE180E0D9DBC6CE43
:1045800060915104709152046115710509F427C2BC
:10459000072E000C880B990B0E945B91A3019201DE
:1045A0000E94CD954B015C0120E030E040E251ECEF
:1045B0000E94559187FD13C220E030E040E251E4B3
:1045C000C501B4010E94F49718160CF40CC2809136
:1045D000580490915904A0915A04B0915B048D83C2
:1045E0009E83AF83B88780914602811136C22091A5
:1045F0001E0430911F044091200450912104C0906A
:104600001A04D0901B04E0901C04F0901D04C50116
:10461000B4010E94CE95162F072F382E292E20E0A8
:1046200030E0A9010E94559187FD1FC22D813E8176
:104630004F81588560E070E08FE793E40E94AA966E
:104640006D877987898B9A8B212F302F432D522D9F
:104650000E94559187FF04C01D85098539882A88E5
:10466000812F902FA32DB22D80931E0490931F04B1
:10467000A0932004B0932104209154043091550458
:104680004091560450915704C501B4010E94BA915B
:104690004B015C018092120490921304A0921404C6
:1046A000B0921504212F302F432D522D6D817E8124
:1046B0008F8198850E94BA916D837E838F839887BE
:1046C0006093160470931704809318049093190450
:1046D000A301920160910E0470910F048091100467
:1046E000909111040E94CD9520915C0430915D045D
:1046F00040915E0450915F040E94BA91A701960117
:104700000E94CD9520ED3CEC4CE45DE30E94BA9113
:10471000A70196010E94CE956B017C01C0921A04FC
:10472000D0921B04E0921C04F0921D0440920E04EF
:1047300050920F0460921004709211042D813E81FA
:104740004F815885C501B4010E94CE95A7019601FD
:104750000E94CE9520E030E0A9010E94CE956B0129
:104760007C0120E030E0A9010E94559187FDF6CE42
:1047700020E030E04FE753E4C701B6010E94F49710
:1047800018160CF433C1C701B6010E941297759533
:104790006795E5CE609168047091690461157105B3
:1047A00009F418C1072E000C880B990B0E945B912D
:1047B000A70196010E94CD951B012C0120E030E05D
:1047C00040E251EC0E94559187FD04C120E030E0A9
:1047D00040E251E4C201B1010E94F49718160CF4B2
:1047E0002DC18091360481112DC120912E0430916C
:1047F0002F0440913004509131042D833E834F8328
:1048000058878091320490913304A0913404B09180
:10481000350489879A87AB87BC87A7019601609189
:1048200022047091230480912404909125040E9415
:10483000CD9520917304309174044091750450918A
:1048400076040E94BA912D813E814F8158850E9445
:10485000CD9520ED3CEC4CE45DE30E94BA912D81B6
:104860003E814F8158850E94CE956D837E838F83D4
:10487000988760932E0470932F0480933004909354
:10488000310420916F043091700440917104509173
:1048900072042D873E874F87588B29853A854B8533
:1048A0005C85C201B1010E94CE95162F072F782E8C
:1048B000692E20E030E0A9010E94559187FDDAC001
:1048C0002D853E854F85588960E070E08FE793E441
:1048D0000E94AA966987798B8A8B9B8B212F302F18
:1048E000472D562D0E94559187FF04C019850989CF
:1048F0007A886B88812F902FA72DB62D8093320454
:1049000090933304A0933404B093350420916B0446
:1049100030916C0440916D0450916E04C201B1015C
:104920000E94BA911B012C01209226043092270488
:104930004092280450922904212F302F472D562DC4
:104940006D857E858F8598890E94BA919B01AC0107
:1049500020932A0430932B0440932C0450932D046D
:10496000C201B1010E94CE952D813E814F815885B3
:104970000E94CE9520E030E0A9010E94CE952B0147
:104980003C0120E030E0A9010E94559187FD25C03F
:1049900020E030E04FE753E4C301B2010E94F497F6
:1049A00018168CF46FE7C0922204D0922304E09290
:1049B0002404F0922504EACC49E05AE168E17AE166
:1049C00080E0B6D91ECDC301B2010E941297759541
:1049D0006795E9CF81E08093360460E0E4CF81E021
:1049E00080934602BBCD81E0809346026FE7B7CD4E
:1049F0007093140E6093130E0E948F11605E714BC2
:104A00008F4F9F4F6093150E7093160E8093170E65
:104A10009093180EF6CC50933804409337040E94BC
:104A20008F11605A75418F4F9F4F60933904709377
:104A30003A0480933B0490933C0458CD81E08093EA
:104A40003604B0CF1092360419861A861B861C864F
:104A50001D821E821F821886E0CE10924602C12C53
:104A6000D12C7601A7019601D2CD10E000E0312CC7
:104A7000212CF6CD10E000E0712C612C3BCFCF92C1
:104A8000DF92EF92FF926B017C0183E3C816D104A1
:104A9000E104F10468F082E3C81AD108E108F108E2
:104AA00062E370E080E090E00E945E11D0DBEDCF29
:104AB000C701B6010E945E11FF90EF90DF90CF908A
:104AC000C6CB80917B04882329F062E070E080E00F
:104AD00090E0D5CF0895CF92DF92EF92FF921F938F
:104AE000CF93DF93C82FD1E0D827811101C0F2D82E
:104AF0008CEB90E10E94991C86EB90E10E94991C3E
:104B00008AE00E94771B8AE00E94771BC11112C0C5
:104B1000E1D88EED9EE00E94991C83EA90E10E940C
:104B2000991C80916E03882309F44EC28AE00E948A
:104B3000771BD0D860916E0370E08FE890E154D875
:104B400040916A0350916B0360916C0370916D0307
:104B50008CE890E10E941E1D8AE00E94771B41E0D4
:104B60006CE770E18C2F09DA8D2FC2D941E06FE537
:104B700070E18C2F02DAC11101C0ACD84091EB0C6E
:104B80005091EC0C6091ED0C7091EE0C86E590E18B
:104B90000E941E1D4091EF0C5091F00C6091F10CA1
:104BA0007091F20C8FE89EE10E941E1D4091F30C63
:104BB0005091F40C6091F50C7091F60C8CE89EE12C
:104BC0000E941E1D4091F70C5091F80C6091F90C59
:104BD0007091FA0C89E89EE10E941E1D8AE00E94F5
:104BE000771B41E065E370E18C2FC7D9C11101C08B
:104BF00071D86091C70C7091C80C8091C90C9091CC
:104C0000CA0C0E945991AB01BC018CE290E10E9458
:104C10001E1D6091CB0C7091CC0C8091CD0C9091AD
:104C2000CE0C0E945991AB01BC018FE89EE10E941D
:104C30001E1D6091CF0C7091D00C8091D10C909181
:104C4000D20C0E945991AB01BC018CE89EE10E94FC
:104C50001E1D6091D30C7091D40C8091D50C909155
:104C6000D60C0E945991AB01BC0189E89EE10E94DB
:104C70001E1D8AE00E94771B41E063EE7FE08C2FCF
:104C80007CD9C11101C026D84091FB0C5091FC0C7D
:104C90006091FD0C7091FE0C8AED9FE00E941E1D3C
:104CA0004091FF0C5091000D6091010D7091020D2B
:104CB00087ED9FE00E941E1D4091030D5091040D51
:104CC0006091050D7091060D84ED9FE00E941E1D00
:104CD0008AE00E94771B41E060E87FE08C2F4DD98D
:104CE000C11102C00E946A1E6091D70C7091D80C4D
:104CF0008091D90C9091DA0C0E945991AB01BC01C2
:104D000087E79FE00E941E1D4091070D5091080DFE
:104D10006091090D70910A0D84E79FE00E941E1DAD
:104D200040910B0D50910C0D60910D0D70910E0D79
:104D300084ED9FE00E941E1D409160065091610627
:104D4000609162067091630681E79FE00E941E1DDC
:104D50008AE00E94771B41E064E67FE08C2F0DD94A
:104D6000C11102C00E946A1E40917F0450918004CC
:104D700060918104709182048BE59FE00E941E1D6A
:104D8000409183045091840460918504709186045D
:104D90008FE89EE10E941E1D409187045091880477
:104DA0006091890470918A048CE89EE10E941E1D26
:104DB0008AE00E94771B41E068E47FE08C2FDDD819
:104DC000C11102C00E946A1E6091170D70E08FE34E
:104DD0009FE00E94F41D4091180D5091190D6091B3
:104DE0001A0D70911B0D8CE89EE10E941E1D8AE039
:104DF0000E94771B0E942A1B882309F44AC08FE671
:104E0000E82E83E0F82ED0E0670110E0C11102C067
:104E10000E946A1E84E39FE00E94991C812F0E94D9
:104E2000F11B81E39FE00E94991C8D2F0E94F11BD2
:104E30008CE89EE10E94991CF6016081718182815B
:104E4000938145E00E94FC1B8AE00E94771B1F5F54
:104E5000FCE0CF0ED11C1330C9F6DF5F84E0E80E12
:104E6000F11CD33089F6C11102C00E946A1E86E28D
:104E70009FE00E94991C609193037091940380912C
:104E800095039091960345E00E94FC1B8AE00E94E6
:104E9000771B41E068E17FE08C2F6FD8C11102C021
:104EA0000E946A1E40916B0450916C0460916D04E5
:104EB00070916E048FE09FE00E941E1D2CEA35EC7D
:104EC00047E25EE360916F04709170048091710419
:104ED000909172040E94AA96AB01BC018CE09FE005
:104EE0000E941E1D2CEA35EC47E25EE360917304DC
:104EF0007091740480917504909176040E94BA9127
:104F0000AB01BC0189E09FE00E941E1D8AE00E9467
:104F1000771BC11102C00E946A1E40915404509137
:104F20005504609156047091570480E09FE00E9400
:104F30001E1D2CEA35EC47E25EE360915804709147
:104F4000590480915A0490915B040E94AA96AB0187
:104F5000BC018DEF9EE00E941E1D2CEA35EC47E25D
:104F60005EE360915C0470915D0480915E049091B9
:104F70005F040E94BA91AB01BC018AEF9EE00E94DF
:104F80001E1D8AE00E94771B41E06AEE7EE08C2FB6
:104F90000E94BD1FC11102C00E946A1E40918C0672
:104FA00050918D0660918E0670918F0681EE9EE085
:104FB0000E941E1D8AE0DF91CF911F91FF90EF901C
:104FC000DF90CF900C94771B88E990E10E94991CA8
:104FD000B0CDDF92EF92FF920F931F93CF93DF93A9
:104FE0001F92CDB7DEB78C01D42E7C01E60EF71EE2
:104FF0008091110E9091120E0E940A958983DD20F6
:1050000011F0F8018083CE0101960E94AC0F8091CF
:10501000110E9091120E01969093120E8093110E24
:105020000F5F1F4F0E151F0519F780E00F90DF91DE
:10503000CF911F910F91FF90EF90DF9008954091D5
:105040009B0321E042276CE070E0C3CF40919B03BB
:1050500021E0422764E070E0BCCF40919B0321E057
:10506000422761E070E0B5CF40919B0321E04227E9
:1050700062E070E0AECF40919B0321E0422761E007
:1050800070E0A7CF40919B0321E0422768E070E0E9
:10509000A0CF40919B0321E042276CE070E099CFC4
:1050A00041E061E070E095CF40919B0321E0422711
:1050B00090CF9F92AF92BF92CF92DF92EF92FF92EA
:1050C0000F931F93CF93DF931F92CDB7DEB78C0161
:1050D0006C01C60ED71EF12CE12CC016D10609F4C6
:1050E0004DC0A090110EB090120EF80191908F015A
:1050F0009982C5010E940A95981691F1692DC50102
:105100000E941295FFEFEF1AFF0AC7018F779927C8
:10511000892B01F162E070E080E090E00E945E1176
:10512000C5010E940A9599818917D1F00E946A1ED3
:1051300085EB9EE10E94991C81E00F90DF91CF9159
:105140001F910F91FF90EF90DF90CF90BF90AF90A5
:105150009F90089562E070E080E090E090DCE0CF06
:10516000CE0101960E94AC0F8091110E9091120E0B
:1051700001969093120E8093110EAFCF80E0DDCF99
:1051800062E070E096CF6CE070E093CF64E070E096
:1051900090CF61E070E08DCF61E070E08ACF6CE08D
:1051A00070E087CF8F929F92AF92BF92DF92EF9283
:1051B000FF920F931F93CF93DF93CDB7DEB7C658FF
:1051C000D1090FB6F894DEBF0FBECDBFC358DF4F75
:1051D000188219821A821B82CD57D0408091B10269
:1051E0009091B202A091B302B091B402CF57DF4FB9
:1051F00088839983AA83BB83C158D04084E690E01A
:105200009093120E8093110E10921A0E1092190E96
:1052100010929C0364E070E0CE018F579F4F49DFEE
:105220008091110E9091120E02969093120E80931F
:10523000110E10921A0E1092190E81E0CA57DF4F0C
:105240008883C658D040CE018A579F4FA5DF68E4B7
:1052500070E087EC9CE02DDF80E1E8E6F2E08E0173
:105260000F5F1F4FD80101900D928A95E1F760E121
:1052700070E0C8011EDF80E696E088DF8FE794E0EB
:105280008EDF7E018DE6E80EF11C8FEFD7018C9347
:10529000C70182DF19821A821B821C82C80176DF55
:1052A0008091180D9091190DA0911A0DB0911B0DC0
:1052B00089839A83AB83BC83C80168DF83E08983D9
:1052C000F701808383E993E061DFC80165DFC701EF
:1052D00063DF64E270E08FE693E0EBDE8CE0D80100
:1052E0001D928A95E9F7C8015ADFC358DF4F18822B
:1052F00019821A821B82CD57D0403AE0D32EDA941D
:10530000DD2029F0CE0183589F4F40DFF8CF88E0A1
:10531000F701982F11929A95E9F7D8011D928A9575
:10532000E9F783E0CB57DF4F8883C558D040EA9632
:105330008FAFEA97CE018B579F4F2EDFCE01875854
:105340009F4F2ADF68E070E0C801B3DE68E070E0DC
:10535000C701AFDEC358DF4F188219821A821B8241
:10536000CD57D0402AE0A22EB12CB1E0AB1AB10843
:1053700029F0CE0183589F4F09DFF7CF19828FEFB5
:10538000F7018083C80105DFC70106DF80E1D82E61
:10539000D801ED2D1D92EA95E9F760E170E0C801B2
:1053A00088DE1982C801F5DE198A1A8A1B8A1C8ACE
:1053B00080E090E0A0E8BFE38D879E87AF87B88B41
:1053C00080916B0490916C04A0916D04B0916E0477
:1053D00089839A83AB83BC832CEA35EC47E25EE396
:1053E00060916F04709170048091710490917204C7
:1053F0000E94AA966D837E838F8398872CEA35EC72
:1054000047E25EE3609173047091740480917504C7
:10541000909176040E94BA9169877A878B879C87DE
:1054200064E170E0C80145DE84E190E09A838983FD
:10543000C801A6DE8091540490915504A0915604B1
:10544000B091570489839A83AB83BC832CEA35ECF3
:1054500047E25EE3609158047091590480915A04C8
:1054600090915B040E94AA966D837E838F839887B8
:105470002CEA35EC47E25EE360915C0470915D04D8
:1054800080915E0490915F040E94BA9169877A8747
:105490008B879C87C80177DE8CE0E8E7F2E0D801D3
:1054A00001900D928A95E1F7C8016DDE1982C8015D
:1054B00073DE8FE790E09A838983C80161DE85E01F
:1054C000E4E8F2E0D80101900D928A95E1F765E0F9
:1054D00070E0C801EEDD1982C8015BDE80E2E9E818
:1054E000F2E0D80101900D928A95E1F760E270E058
:1054F000C801DFDDD7011C92C7014BDE8EE693E0C9
:1055000048DE8AE693E042DEC358DF4F18821982F4
:105510001A821B82CD57D040CE0183589F4F36DE72
:1055200080E2F80111928A95E9F760E270E0C80123
:10553000C0DDFE01F99688E0DF011D928A95E9F74A
:1055400044E650E060E070E049835A836B837C83DB
:105550004D835E836F83788783E090E0A0E0B0E0C6
:1055600089879A87AB87BC874D875E876F87788BE3
:10557000498B5A8B6B8B7C8B8D8B9E8BAF8BB88FB3
:10558000898F9A8FAB8FBC8F8D8F9E8FAF8FB8A373
:105590008EE190E0A0E0B0E089A39AA3ABA3BCA306
:1055A0008DA39EA3AFA3B8A789A79AA7ABA7BCA7B3
:1055B0008DA79EA7AFA7B8AB89AB9AABABABBCAB83
:1055C0008DAB9EABAFABB8AF60E470E0C80171DDEE
:1055D000F8018D2D11928A95E9F760E170E0C8011C
:1055E00068DDD8011D92DA94E9F760E170E0C80146
:1055F00060DD8CE896E0CADD9CE0D92EF8018D2DA7
:1056000011928A95E9F76CE070E0C80152DD8CE6F2
:10561000D8011D928A95E9F76CE670E0C80149DD72
:105620008EE593E0B0DDF7011082118212821382C1
:10563000148215821682178268E070E0C70139DD96
:10564000F7011192DA94E9F7CB57DF4F1882C5586A
:10565000D04080E090E0A0E4B0E4ED968CAF9DAF48
:10566000AEAFBFAFED97C7019ADDCE018B579F4F0D
:1056700093DDCE0187589F4F89DDD0909C03D110D8
:1056800043C00091110E1091120E04561109809121
:10569000190E90911A0ED7018D939C9384E690E099
:1056A0009093120E8093110E64E070E08DEA92E008
:1056B00000DDC70165DD0E946A1EB80189EA9EE02F
:1056C0000E94161DF70180809180B12CA12C8CE9DD
:1056D0009EE00E94991C4AE0C501B4010E948C1B07
:1056E00089E99EE00E94991C0D39124041F00E9408
:1056F000671E83ED90E10E94991CDD24D394809174
:105700009C038D2980939C0390919C0381E08927C1
:10571000CA57DF4F0FB6F894DEBF0FBECDBFDF9183
:10572000CF911F910F91FF90EF90DF90BF90AF90BE
:105730009F908F900895CF92DF92EF92FF920F93F8
:105740001F93CF93DF93C7ECDCE004E716E0C12C96
:10575000D12C7601C39469917991899199910E9494
:105760005991288939894A895B890E94BA910E9496
:105770001797F80161937193819391938F01C616E6
:10578000D706E806F90610F46B017C01FCE0C73D82
:10579000DF0709F76FEF7FEFCB01A70196010E94AA
:1057A0002F95209384063093850640938606509368
:1057B000870623EF34E045E35FE360916006709174
:1057C000610680916206909163060E94BA912AE177
:1057D00036EF45E95EE30E94AA966B017C01609179
:1057E000C70C7091C80C8091C90C9091CA0C0E9492
:1057F00059919B01AC01C701B6010E94BA910E9468
:105800003998609388067093890680938A069093EE
:105810008B06DF91CF911F910F91FF90EF90DF905A
:10582000CF900895109293031092940310929503D1
:1058300010929603EFE6F3E084E2DF011D928A9571
:10584000E9F708952F923F924F925F926F927F9265
:105850008F929F92AF92BF92CF92DF92EF92FF9280
:105860000F931F93CF93DF93CDB7DEB76C970FB62F
:10587000F894DEBF0FBECDBF8C015B015A83498314
:10588000FC01EF5AFF4F20813181428153812987EA
:105890003A874B875C87CA01B9010E9459916B0115
:1058A0007C01D5012D913D914D915C910E94BA9161
:1058B0000E9494962B013C01E981FA81208131817B
:1058C00042815381C701B6010E94BA910E94949609
:1058D0004B015C01C301B2010E941797698B7A8B5F
:1058E0008B8B9C8B683771058105910540F428E707
:1058F00030E040E050E0298B3A8B4B8B5C8BC5014C
:10590000B4010E9417976D877E878F87988B6837C1
:1059100071058105910540F448E750E060E070E0D2
:105920004D875E876F87788BF801E35AFF4F408081
:10593000518062807380C301B2010E945B916983D0
:105940007A838B839C8369897A898B899C890E945D
:1059500059916D8B7E8B8F8B988F20E030E0A90161
:1059600069817A818B819C810E945591882309F4F9
:10597000E1C1A7019601C701B6010E94BA914B018E
:105980005C012D893E894F89588DCA01B9010E9459
:10599000BA919B01AC01C501B4010E94CD954B01A8
:1059A0005C0129813A814B815C81CA01B9010E9465
:1059B000CE959B01AC01C501B4010E94AA960E943C
:1059C00094960E9417976D837E838F8398876627AE
:1059D0007727CB0164197509860997090E945B91A5
:1059E0004B015C016D857E858F8598890E94599158
:1059F0002B013C0120E030E0A901C501B4010E9467
:105A00005591882309F49AC1A3019201C301B201FF
:105A10000E94BA91698F7A8F8B8F9C8FA701960114
:105A2000C701B6010E94BA919B01AC01698D7A8DC4
:105A30008B8D9C8D0E94CD956B017C01A5019401FD
:105A4000C501B4010E94CE959B01AC01C701B6010E
:105A50000E94AA960E944397D80195968D909D909A
:105A6000AD90BC909897750164012D813E814F8166
:105A70005885C21AD30AE40AF50A0E941797C61A73
:105A8000D70AE80AF90AF7FE8EC02D893E894F89A8
:105A9000588DCA01B9010E94BA916B017C0129811C
:105AA0003A814B815C81CA01B9010E94CE95698718
:105AB0007A878B879C8720E030E0A90169817A8111
:105AC0008B819C810E945591882309F43BC1C501BB
:105AD000B4010E94599129853A854B855C850E94C5
